:020000040800F2
:1000000050ED0020F501000823430008793900086D
:10001000214300087B030008BD6D000800000000BC
:100020000000000000000000000000009D4C0008DF
:10003000C5110008000000009F440008A94C0008FA
:100040000F0200080F0200080F0200080F0200084C
:100050000F0200080F0200080F0200080F0200083C
:100060000F0200080F0200080F0200080F0200082C
:10007000F90E00080F0200080F0200080F02000826
:100080008D0F00080F0200080F0200080F02000881
:100090000F0200080F0200080F0200080F020008FC
:1000A0000F0200080F0200080F0200080F020008EC
:1000B0000F0200080F0200080F0200080F020008DC
:1000C0000F0200080F0200080F0200080F020008CC
:1000D0000F0200080D5600080F56000811560008C0
:1000E0000F0200080F0200080F0200080F020008AC
:1000F0000F020008B54D00080F0200080F020008AB
:100100000F020008E54400080F0200080F02000873
:10011000035200080F0200080F0200080F02000837
:100120000F02000821100008B51000080F02000897
:100130000F020008000000000000000000000000A6
:100140000000000000000000000000000F02000896
:100150000F0200080F0200080F02000813560008E3
:100160000F0200080F0200080F0200080F0200082B
:100170000F020008254300080000000000000000F6
:100180000F0200080F0200080F02000805520008C5
:100190000F0200080F020008000000000F02000814
:1001A0000000000000000000000000000F02000836
:1001B0000F0200080F02000800000000000000000D
:1001C000000000000000000000000000000000002F
:1001D0000000000000000000000000000F02000806
:1001E000DFF80CD000F08CF800480047A16E000842
:1001F00050ED00200648804706480047FEE7FEE72E
:10020000FEE7FEE7FEE7FEE7FEE7FEE7FEE7FEE7C6
:10021000614D0008E10100082DE9F05F054600206E
:1002200092469B4688460646814640241BE0284667
:1002300041464746224600F053F853465A46C01AF4
:10024000914110D311461846224600F03AF82D1A73
:1002500067EB01084F4622460120002100F031F8EB
:1002600017EB00094E41201EA4F10104DFDC4846D3
:1002700031462A464346BDE8F09F40EA01039B070A
:1002800003D009E008C9121F08C0042AFAD203E00B
:1002900011F8013B00F8013B521EF9D27047D2B26F
:1002A00001E000F8012B491EFBD270470022F6E75F
:1002B00010B513460A4604461946FFF7F0FF2046DC
:1002C00010BD202A04DB203A00FA02F1002070471A
:1002D0009140C2F1200320FA03F319439040704784
:1002E000202A04DB203A21FA02F00021704721FA8B
:1002F00002F3D040C2F120029140084319467047F2
:10030000064C074D06E0E06840F0010394E8070062
:1003100098471034AC42F6D3FFF766FF50700008E0
:100320007070000870B58C1810F8015B15F00703A9
:1003300001D110F8013B2A1106D110F8012B03E07E
:1003400010F8016B01F8016B5B1EF9D12B0705D486
:100350000023521E0DD401F8013BFAE710F8013BCF
:10036000CB1A921C03E013F8015B01F8015B521EEB
:10037000F9D5A142D8D3002070BDFEE72DE9F05F8A
:1003800004280F467EDD20287CD1FE4C0C264FF041
:100390000008206F0068016821F001010160216FF1
:1003A00038684860206FC0F80880206FC0F80C8063
:1003B000206FC0F81080206F4661206FC0F8188051
:1003C000206FC0F81C80206FC0F82080206FC0F81C
:1003D0002480206F03F028F908B100F0F4FE206FAC
:1003E0000068C1690906FCD5016821F001010160BE
:1003F000A078800715D5206F806E0068016821F015
:1004000001010160216F886E00680268D207FCD18B
:10041000096824318160206F0068816841F08001A3
:100420008160A078C00715D0206FC06E0068016899
:1004300021F001010160216FC86E00680268D207D7
:10044000FCD1096824318160206F0068816841F027
:1004500040018160216FA14620460A68C96E24329E
:1004600009688A60216FE26AC96E0968CA60226FF2
:10047000B4F87C30E16AD26E194412681161016FE0
:10048000C96E00E0FEE30968BF4DB9F87C00486022
:10049000286F0068016821F001010160296F404662
:1004A0003A684A60296FC1F80880296FC1F80C804A
:1004B000296FC1F81080296F4E61296FC1F818802B
:1004C000296FC1F81C80296FC1F82080296F48620C
:1004D000286F03F0A9F808B100F075FE286F0068D6
:1004E000C1690906FCD5016821F001010160A87805
:1004F000800715D5286F806E0068016821F0010122
:100500000160296F886E00680268D207FCD1096813
:1005100024318160286F0068816841F0800181602A
:10052000A878C00715D0286FC06E0068016821F058
:1005300001010160296FC86E00680268D207FCD112
:10054000096824318160286F0068816841F04001AA
:100550008160286F0168C06E243100688160286F57
:10056000C16EE86A0968C860296FB5F87C20E86A3E
:10057000C96E104409680861286F844CC16EB5F8D3
:100580007C0009684860206F0068016821F0010163
:100590000160216F40463A68B3464A60216FC1F856
:1005A0000880216FC1F80C80216FC1F81080226F84
:1005B0005661216FC1F81880216FC1F81C80216F2E
:1005C000C1F82080216F4862206F03F02DF808B138
:1005D00000F0F9FD206F0068C1690906FCD50168CB
:1005E00021F001010160A078800715D5206F806E91
:1005F0000068016821F001010160216F886E0068C8
:100600000268D207FCD1096824318160206F00683C
:10061000816841F080018160A078C00715D0206F0B
:10062000C06E0068016821F001010160216FC86E91
:1006300000680268D207FCD1096824318160206F0C
:100640000068816841F040018160216FA246204628
:100650000A68C96E243209688A60216FCA6EE16A2D
:100660001268D160216FB4F87C30E26AC96E1A4416
:1006700009680A61016F464CBAF87C00C96E0968C6
:100680004860206F0068016821F001010160206F5F
:10069000464639684160206FC0F80880206FC0F876
:1006A0000C80206FC0F81080216FC1F814B0206F4B
:1006B000C0F81880206FC0F81C80206F0662206F81
:1006C0004662206F02F0B0FF08B100F07CFD206FA1
:1006D0000068C1690906FCD5016821F001010160CB
:1006E000A078800715D5206F806E0068016821F022
:1006F00001010160216F886E00680268D207FCD199
:10070000096824318160206F0068816841F08001B0
:100710008160A078C00715D0206FC06E00680168A6
:1007200021F001010160216FC86E00680268D207E4
:10073000FCD1096824318160206F0068816841F034
:1007400040018160206F4FF40057C16E0068243073
:1007500009688860216FE06AC96E0968C860216F06
:10076000B4F87C00E26AC96E104409680861206F21
:10077000B4F87C10C06E006841603A4605490648EE
:100780000CE00000FCC800207CC90020FCC900204F
:100790007CCA0020C4870020C4C7002006F030FBBC
:1007A000FE493A46FE4806F02BFBFC493A46FD4816
:1007B00006F026FBF9493A46FB4806F021FBF749CB
:1007C0003A46FA4806F01CFBF9493A46F94806F061
:1007D00017FBD9F87000CC46C06E0068016821F0A4
:1007E00001010160D9F87010C86E00680268D20774
:1007F000FCD10868DFF8C083016821F001010160C5
:10080000DCF87000C06E0068016841EA0801016010
:10081000EA48016FC96E09680A6822F400220A607A
:10082000016FB0F87430B0F87C70C26AC96E03FB17
:1008300007220968CA60B0F87410491CA0F8741047
:10084000B0F87810491CA0F87810B0F87410B0F81F
:100850007A20914201D3A0F87460076FB0F8742039
:10086000B0F87C30C16AFF6E02FB03113A68116177
:10087000A0F87860A0F87660286FC06E0068016804
:1008800021F001010160296FC86E00680268D2077B
:10089000FCD10868016821F001010160286FC06E79
:1008A0000068016841EA08010160C548016FC96E2E
:1008B00009680A6822F400220A60016FB0F87430F7
:1008C000B0F87C70C26AC96E03FB07220968CA606F
:1008D000B0F87410491CA0F87410B0F87810491CD6
:1008E000A0F87810B0F87410B0F87A20914201D3D3
:1008F000A0F87460076FB0F87420B0F87C30C16A5B
:10090000FF6E02FB03113A681161A0F87860A0F84D
:1009100076605046DAF87010C96E09680A6822F0ED
:1009200001020A60DAF87020D16E09680B68DB07F3
:10093000FCD11168D1460A6822F001020A60DAF897
:100940007000C06E0068016841EA080101609D48BE
:10095000016FC96E09680A6822F400220A60016FFB
:10096000B0F87430B0F87C70C26AC96E03FB07221D
:100970000968CA60B0F87410491CA0F87410B0F887
:100980007810491CA0F87810B0F87410B0F87A20EC
:10099000914201D3A0F87460076FB0F87420B0F8EA
:1009A0007C30C16AFF6E02FB03113A681161274671
:1009B000A0F87860A0F87660206FC06E00680168CB
:1009C00021F001010160216FC86E00680268D20742
:1009D000FCD10868016821F001010160386FC06E28
:1009E0000068016841EA080101607748016FC96E3B
:1009F00009680A6822F400220A60016FB0F87430B6
:100A0000B0F87C40C26AC96E03FB04220968CA6060
:100A1000B0F87410491CA0F87410B0F87810491C94
:100A2000A0F87810B0F87410B0F87A20914201D391
:100A3000A0F87460026FB0F87430B0F87C40C16AFE
:100A4000D26E03FB041112681161A0F87860A0F85F
:100A50007660DCF870000168CA691206FCD59CF863
:100A60000210202210230824890725D5806E90F8D3
:100A70005C10806D02FA01F18160DCF87010896E03
:100A800091F85C1003FA01F18160DCF87010896E56
:100A900091F85C1004FA01F18160DCF870000068E4
:100AA000816841F080018160DCF87000806E006830
:100AB000016841F0010101609CF80200C00727D0E5
:100AC000DCF87000C06E90F85C10806D02FA01F1E5
:100AD0008160DCF87010C96E91F85C1003FA01F1C6
:100AE0008160DCF87010C96E91F85C1004FA01F1B5
:100AF0008160DCF870000068816841F0400181602D
:100B0000DCF87000C06E0068016841F0010101600E
:100B1000286F29460568EE693606FCD58D78AD0745
:100B200021D5806E90F85C50806D02FA05F58560E5
:100B30000D6FAD6E95F85C5003FA05F585600D6F8D
:100B4000AD6E95F85C5004FA05F58560086F006895
:100B5000856845F080058560086F806E00680568CF
:100B600045F0010505608878C0073BD0086FC06E6E
:100B700090F85C50806D02FA05F585600D6FED6EA2
:100B800095F85C5003FA05F585600D6FED6E95F8EC
:100B90005C5004FA05F58560086F17E0C467002013
:100BA000F8C700202CC8002060C8002094C800208E
:100BB000C4A70020C8C8002010000400FCC8002002
:100BC0007CC90020FCC900207CCA00200068856820
:100BD00045F040058560086FC06E0068056845F007
:100BE00001050560D9F870004D460668D6F81C80EE
:100BF0005FEA0868FAD5AE78B60721D5806E90F81E
:100C00005C60806D02FA06F686602E6FB66E96F80E
:100C10005C6003FA06F686602E6FB66E96F85C602E
:100C200004FA06F68660286F0068866846F080063B
:100C30008660286F806E0068066846F001060660D0
:100C4000A878C00724D0286FC06E90F85C60806DD3
:100C500002FA06F686602E6FF66E96F85C6003FA6E
:100C600006F686602E6FF66E96F85C6004FA06F65D
:100C70008660286F0068866846F040068660286FA8
:100C8000C06E00E08CE00068066846F00106066071
:100C90003E6F3846D6F80070D7F81C805FEA0868C7
:100CA000FAD58778BF0721D5B66E96F85C70B66D19
:100CB00002FA07F7B760076FBF6E97F85C7003FA28
:100CC00007F7B760076FBF6E97F85C7004FA07F715
:100CD000B760066F3668B76847F08007B760066F81
:100CE000B66E3668376847F0010737608678F607D2
:100CF0001FD0066FF66E96F85C70B66DBA40B260A3
:100D0000026FD26E92F85C209340B360026FD26E95
:100D100092F85C209440B460026F1268936843F0CC
:100D200040039360026FD26E1268136843F00103B0
:100D30001360DCF87020D26E1268136843F0010370
:100D40001360DCF870201268136843F0010313602D
:100D50000A6FD26E1268136843F001031360096FC3
:100D600009680A6842F001020A60296FC96E0968C1
:100D70000A6842F001020A60D9F8701009680A682E
:100D800042F001020A60016FC96E09680A6842F008
:100D900001020A60006F0068016841F00101016012
:100DA0000020BDE8F09F00207047000005490022A8
:100DB000054810B504F034FD0449034804F02AFD49
:100DC000002010BD50DD00207CCC002050D500203C
:100DD0000146044810B504F01DFD024804F0FFFC74
:100DE000002010BD7CCC0020002070472DE9F04190
:100DF0008846C16E044600254FF480668D60E16E22
:100E0000B010CD60E16E0E61E16E4D61E16E8D61FD
:100E1000E16EC861E06E0562E06E00F04BFA4FF0E3
:100E2000FF37A0B9E16E40208C63A16E8860A06E90
:100E3000C560A06E0661A06E4561A06E8561A06E62
:100E4000C561A06E0562A06E00F034FA10B138469C
:100E5000BDE8F081A06E002211468463404600F098
:100E60005BFC404600F04AFC2068016821F020014C
:100E700001602068016821F080010160A06F20F00E
:100E80002200A0670020E3E738B504460025049857
:100E900025800090204600F009F808B1012038BDF7
:100EA000208840F002002080002038BDF8B50446BC
:100EB00080781D46069EC00708D0206FC06E00686F
:100EC000436800934368201D05F0ACFFA0788007BD
:100ED0000BD5206F806E006841680091436804F173
:100EE00038003246294605F09DFF94F96C10206FBA
:100EF000FFF77CFF0020F8BD2248202230B51023E8
:100F000090F85C40816DA2408A6090F85C0083405C
:100F10008B601D48011DB0F87C3002691A440261E3
:100F2000C468A24201D3121BCA60002201EB8204F2
:100F3000521C022AA5691D44A561F7DB1249B1F8CC
:100F40007430B1F87820B1F87A405B1C521CA1F8DB
:100F500074309BB2A1F87820A34202D30022A1F8FA
:100F60007420016FC96E09680A68B0F87430120302
:100F7000C26AB0F87C0003FB002001D5C86030BD18
:100F8000086130BDBCCB0020FCC9002022482022D3
:100F900030B5102390F85C40816DA2408A6090F8D3
:100FA0005C0083408B601D48011DB0F87C300269F5
:100FB0001A440261C468A24201D3121BCA60002213
:100FC00001EB8204521C022AA5691D44A561F7DBCE
:100FD0001249B1F87430B1F87820B1F87A405B1C4E
:100FE000521CA1F874309BB2A1F87820A34202D31E
:100FF0000022A1F87420016FC96E09680A68B0F870
:1010000074301203C26AB0F87C0003FB002001D5E3
:10101000C86030BD086130BD5CCB00207CC90020B9
:101020002248202230B5102390F85C40816DA24008
:101030008A6090F85C0083408B601D48011DB0F809
:101040007C3002691A440261C468A24201D3121BB7
:10105000CA60002201EB8204521C022AA5691D44C9
:10106000A561F7DB1249B1F87430B1F87820B1F816
:101070007A405B1C521CA1F874309BB2A1F8782016
:10108000A34202D30022A1F87420016FC96E09683F
:101090000A68B0F874301203C26AB0F87C0003FB2F
:1010A000002001D5C86030BD086130BD1CCC0020D7
:1010B0007CCA00202248202230B5102390F85C40E2
:1010C000816DA2408A6090F85C0083408B601D486F
:1010D000011DB0F87C3002691A440261C468A24262
:1010E00001D3121BCA60002201EB8204521C022AA7
:1010F000A5691D44A561F7DB1249B1F87430B1F858
:101100007820B1F87A405B1C521CA1F874309BB275
:10111000A1F87820A34202D30022A1F87420016F25
:10112000C96E09680A68B0F874301203C26AB0F870
:101130007C0003FB002001D5C86030BD086130BDD4
:10114000FCCA0020FCC8002001681823CAB2103A6B
:10115000B2FBF3F2054B6FF30901032A9B5CC365F5
:1011600000D9091D816508467047000048700008D5
:1011700010B583694FF0C074826A0146002053B1F4
:10118000B3F5005F15D072B1012A0CD0022A0AD043
:10119000032A09D104E01AB1012A06D0022A03D198
:1011A000C96AC90100D5012010BDC96AA142FAD09F
:1011B00010BD002AF7D0012AF2D0022AF3D0032A68
:1011C000F3D010BD70477047F0B5D1E90125D1E9E2
:1011D0000343D1E905762A43D1F800C044EA030469
:1011E000D1E9073542EA0402496A42EA0702BCF142
:1011F000010F42EA060208D004681A432A430A4350
:10120000E30BDB031A4302600BE0066844682B43E0
:1012100026F4F84529430B4303606FF30E04224381
:1012200042600020F0BD00002DE9F043914691E8B6
:101230001C006FF00F05521E2E0105EB03131A431D
:101240000B7E06EB04268C8A2F034FEA054C0D8A91
:1012500032434FF07F4808EB0366CB68B9F1010FCA
:1012600007EB05450CEB04540CD081683F1107EBEC
:1012700003331A432A432243324301F070410A43A5
:10128000826011E08168DFF828C0C7681B03A3F5FE
:10129000805323432A4301EA0C0132430B4383600A
:1012A00007F070442243C2600020BDE8F0830000D4
:1012B000FF0F0FFF2DE9F047044600F0C3F9054684
:1012C00064B14FF0000984F83490022184F835109D
:1012D0002068016821F0010101600EE00120BDE8F5
:1012E000F08700BF00F0AEF9401B052805D920218A
:1012F0006165032084F83500F1E720680068C007C5
:10130000F0D1D4E90020D4E90251D4E9043C2843C7
:1013100004F1180519430843116895E8E00140EA13
:101320000C001C4B2843194040EA060040EA070025
:10133000B8F1040F40EA010003D1D4E90B131943BB
:101340000843106020680126656A4069042D20F07A
:10135000070045EA00050CD1D4E90A01054341B173
:101360002046FFF705FF20B14020606584F8356016
:10137000B4E7206845612046FFF7E6FE94F85C304C
:101380003F229A408260C4F8549084F8356000206F
:10139000A5E700003F8010E070B5044600F052F968
:1013A0000546601C02D004480078044400F04AF965
:1013B000401BA042FAD370BD700000202DE9F0411F
:1013C00086B014216846FEF771FF244801680029A1
:1013D00040D14FF00108C0F800802148016841F079
:1013E00001010160006802240025694600F0010047
:1013F000059003264FF63F000C278DE8F1001948B1
:1014000000F03CF801AACDF800801748694682E850
:10141000F00000F033F848F2371069468DE8F1002B
:10142000124800F02BF84FF4F06069468DE8F100A7
:101430000F4800F023F84CF2030069468DE8F100F4
:101440000C4800F01BF8602069468DE8F1000A485E
:1014500000F014F806B0BDE8F08100006400002040
:1014600038380240001402400008024000180240D0
:1014700000100240000C0240000402402DE9F84F29
:1014800000224FF001094FF0030A4FF00F0E00BF8A
:101490000B6809FA02F42340A34270D14D68012D74
:1014A00005D0022D03D0112D01D0122D11D1856848
:1014B0005700CE680AFA07FC25EA0C05BE402E4309
:1014C000866045680E79A543C6F3001696402E4304
:1014D0004660C56856008F680AFA06F4A543B7400F
:1014E0002F43C7604D68022D01D0122D12D1D508AF
:1014F0000F694FEA427C00EB8505AB462D6A4FEA47
:10150000DC6C0EFA0CF807FA0CF725EA08052F43F5
:10151000CBF820700F79056807F00307A543B740A3
:101520002F4307604C68E4006AD5384C256845F4C1
:1015300080452560246822F00305970704F4804461
:101540000094334C3F0F2544D5F80848DFF8C4C059
:101550000EFA07F6604524EA060401D1002624E0CD
:101560002D4EB04201D101261FE02C4EB04201D1D8
:1015700002261AE02A4EB04202D1032615E03FE0CF
:10158000284EB04201D104260FE0274EB04201D1CF
:1015900005260AE0254EB04201D1062605E0244E7C
:1015A000B04201D1072600E00826BE40214F264365
:1015B000C5F808684D683C68ED0324EA030400D5CB
:1015C0001C431C4D3C602D1D4E682C68B60324EA5C
:1015D000030400D51C43174E2C6008364D68346850
:1015E000ED0224EA030400D51C43124D34600C358F
:1015F0004E682C68B60224EA030400D51C432C6014
:10160000521C102AFFF444AFBDE8F88F4438024062
:101610000030014000000240000402400008024087
:10162000000C02400010024000140240001802406A
:10163000001C0240003C01400AB18161704709046E
:10164000FBE7000001488068704700007000002040
:101650000248816802781144816070477000002060
:10166000094810B5016841F400710160016841F456
:1016700080710160032000F06FF8002000F006F890
:1016800000F024F8002010BD003C024070B50D4D64
:1016900004464FF47A700C4A29781268B0FBF1F0D6
:1016A000B2FBF0F001F08AFD48B9102C07D20022FD
:1016B0002146501E00F030F800206C6070BD012003
:1016C00070BD0000700000206C0000200A4808B5C2
:1016D000016841F080510160006800F08050009086
:1016E0000548001D016841F480410160006800F474
:1016F0008040009008BD000040380240002809DB0F
:10170000410900F01F028900012001F1E021904011
:10171000C1F80001704700000E4BF0B41B680D4685
:10172000C3F30223C3F10706042E00D90426191DB2
:10173000072901D2002300E0DB1E012404FA06F190
:101740009C40491E2940641E994014402143F0BC2E
:1017500005F035BB0CED00E0064900F0070210B5BE
:101760004FF6FF040868044B204040EA022018436B
:10177000086010BD0CED00E00000FA0501680123CF
:10178000C0F8FC33002280F8F4238869044A40F052
:1017900000608861486D1043486500207047000074
:1017A0000300001070470068416200207047F0B5E8
:1017B00003685D6A39B19F6A4C1E00204FF482763F
:1017C00005EB17450BE045EA0240986210E0471C24
:1017D00006EB800053F800C0F8B205EB1C45A042B0
:1017E000F5D34FF4807000EB810045EA02421A50B5
:1017F0000020F0BDD0F8000404F09ABAC1EBC10299
:1018000000EB8202D0F80004926C04F005BAC1EB40
:10181000C10200EB8202D0F80004D2F8082204F0E2
:1018200050BAD0F8000404F085BA01F00F020B069C
:1018300070B5C2EBC20104464FF001004FF0000545
:1018400004EB810103D581F83D003C3103E081F8D0
:10185000FD5101F5FE710A7094F8BC23012A08D0ED
:1018600084F8BC03206804F03FFE002084F8BC53D9
:1018700070BD022070BD70B54268044601F00F00D3
:10188000904201D9012070BD01F00F024FF0000518
:101890000B06C2EBC2014FF0010204EB810103D53C
:1018A00081F83D203C3103E081F8FD5101F5FE71E6
:1018B0008D70087094F8BC03012808D084F8BC230C
:1018C000206805F00DF8002084F8BC5370BD02209C
:1018D00070BD01F00F01C1EBC10100EB8100D0F838
:1018E000140270472DE9F04101F00F0604460D0681
:1018F0004FF00100C6EBC6014FF0000504EB81017B
:1019000003D581F83D003C3103E081F8FD5101F53C
:10191000FE714F788A60CB700E7007B1CE80022BBB
:1019200000D10D7194F8BC23012A09D084F8BC03BE
:10193000206804F0F7FC284684F8BC53BDE8F08129
:101940000220FBE770B501F00F050C460026C5EB41
:10195000C50100EB8101C1F80822C1E9843681F894
:10196000FD6181F8FC5101F5FE710369012B00D185
:101970000A612207027C006803D005F009F8002004
:1019800070BD04F0F3FEFAE770B50D4641680446F9
:1019900005F00F00884201D9012070BD29064FF0E3
:1019A00000064FF0010207D5C0EBC00104EB810136
:1019B00081F83D203C3107E0C5EBC50104EB810116
:1019C00081F8FD6101F5FE718A70087094F8BC031E
:1019D000012807D084F8BC23206804F0ADFF280755
:1019E00002D007E0022070BD217C04F571722068EE
:1019F00004F04AFF002084F8BC6370BD2DE9F0417B
:101A000001F00F050C460026C5EBC501012700EBD0
:101A100081018A64C1E9143681F83D7001F83C5FA8
:101A20000369012B00D10A612207027C006804D0FF
:101A300004F0AEFF0020BDE8F08104F097FEF9E766
:101A40002DE9FC5F05680446284605F0CAF8002821
:101A50007ED1206805F0F1F8002879D0206805F0E3
:101A6000ECF8800704D52068416901F0020141616A
:101A7000206805F0E2F8C10604F57170009034D5D5
:101A80002068816921F0100181612F6A07F00F0140
:101A9000C7F34340C1EBC101022804EB810606F500
:101AA000FE7602D0062811D01AE047F6F070074201
:101AB00016D0C7F30A12F1681746284605F0C1F898
:101AC000F168B0693944F160384408E000990822AF
:101AD000284605F0B6F8B069C7F30A110844B061AA
:101AE0002068816941F010018161206805F0A5F846
:101AF00000034FF001094FF0080B5BD5206800266A
:101B000005F07AF8DFF8A8A3074651E0F8074DD0B2
:101B10002068F1B205F089F88046C00707D005EBD0
:101B20004611C1F8089B3146204602F001FC5FEAED
:101B3000087022D505EB4611C1F808BB2068016C7E
:101B400000EB461001915145D0F8081B07D900E081
:101B5000ABE1090403D54FF40041C0F8081B20464F
:101B600000F0A6FA0198504507D92069012804D150
:101B700020680121009A04F087FE5FEAC86004D55E
:101B800005EB46111020C1F8080B5FEA886004D508
:101B900005EB46102021C0F8081B5FEA884005D5F8
:101BA00005EB46114FF40050C1F8080B7F08761C76
:101BB000002FABD1206805F040F840034FF0000A39
:101BC0005CD5206805F011F80026074654E0F807B8
:101BD00050D02068F1B205F016F88046C00723D037
:101BE000D5F8342806F00F0C05EB461309FA0CF073
:101BF0008243C5F83428C3F80899206901280FD119
:101C0000C6EBC60004EB8000D0E9111211448164D8
:101C100036B9206D20B920680121009A04F034FE05
:101C20002046F1B2FFF7EAFD5FEA087003D505EB45
:101C30004611C1F808B95FEAC86004D505EB461142
:101C40001020C1F808095FEA486004D505EB461189
:101C50004020C1F808095FEA887004D505EB4611F9
:101C60000220C1F808095FEA086003D53146204622
:101C700002F0C4FB7F08761C002FA8D1206804F076
:101C8000DCFF002811DAD5F8040820F00100C5F8BF
:101C9000040894F8F403012839D0204600F0ECF948
:101CA0002068416901F000414161206804F0C5FFEE
:101CB00000050BD5D5F80808C00702D0204600F073
:101CC00013FA2068416901F400614161206804F061
:101CD000B4FF00010AD52068416901F0006141614B
:101CE00094F8F403D0B1204600F0FEF9206804F027
:101CF000A4FFC00476D5D5F8040820F00100C5F88B
:101D000004082068102104F04DFF002135E0002177
:101D1000204684F8F4A3FFF745FDC1E784F8F49367
:101D20002068406D0121C0F38300C4F8F803204609
:101D3000FFF738FDDAE700BF05EB41104FF67F32C1
:101D4000C0F80829D0F8003923F40013C0F800398E
:101D5000D0F8003943F00063C0F80039C0F8082B10
:101D6000D0F8002B22F40012C0F8002BD0F8002B82
:101D700042F00062C0F8002B491C60688842DBD842
:101D8000D5F81C0840F00110C5F81C08206B60B1A4
:101D9000D5F8840840F00B00C5F88408D5F844084D
:101DA00040F00B00C5F844080CE0D5F8140842F2E6
:101DB0002B010843C5F81408D5F8100840F00B00B3
:101DC000C5F81008D5F8000820F4FE60C5F8000832
:101DD000217C2068009A04F057FD2068416901F4D5
:101DE00080514161206804F028FF800417D52068E5
:101DF00004F0D8FA206804F0E7FEE06000F084FC0C
:101E00000146207B2368C2B2184604F051FF2046E9
:101E100000F01CF92068416901F40051416120681B
:101E200004F00BFF000707D5204600F029F92068D1
:101E3000416901F008014161206804F0FEFEC00222
:101E400008D50021204600F035F82068416901F4EA
:101E500080114161206804F0F0FE800208D5002165
:101E6000204600F02BF82068416901F4001141611F
:101E7000206804F0E2FE400007D52046FFF7BAFCD8
:101E80002068416901F080414161206804F0D5FE7D
:101E900040070AD520684568680702D52046FFF745
:101EA000C0FC2168486828434860BDE8FC9F0000EA
:101EB0000A30544FD0F8000403F092BFD0F8000469
:101EC00003F090BF2DE9F04104008AB005D094F8EA
:101ED000BD030025266820B108E001200AB0BDE856
:101EE000F081204684F8BC5300F066F8032084F8A3
:101EF000BD03F06BC00500D42561206804F030FC00
:101F000004F11001684628228846FEF7B6F994E8E5
:101F10000F0004F055FA0227D8BB2068002104F016
:101F20009EFE0020012610E0C0EBC001421C04EB25
:101F3000810181F83D6081F83F504D648D640D65ED
:101F400081F83C00A1F84200D0B261688142EBD830
:101F5000002011E0C0EBC001421C04EB810181F8BC
:101F6000FD5181F8FF51C1F80452C1F80852C1F87F
:101F7000105281F8FC01D0B261688142EAD828226F
:101F800041466846FEF779F994E80F0004F02AFB11
:101F900010B184F8BD73A0E7606A84F8385084F803
:101FA000BD63012802D12046FFF7E8FB206804F05A
:101FB0000DFB002092E7000030B587B004461421E5
:101FC0006846FEF773F91E492068884236D11D4CD9
:101FD000206840F00200206020680221002200F00A
:101FE0000200059003230C254FF440408DE82F009C
:101FF00015486946FFF742FA12481430016841F06B
:1020000000410160006800F000400590206840F049
:1020100000502060206800F000500590206840F0DB
:102020008040206020680022052100F0804005905B
:102030004D20FFF771FB4D20FFF760FB07B030BD6F
:1020400000000440303802400004024070B50446ED
:10205000C068012570B1022801D0FFF7B4F8D4F8A8
:102060000004294603F014FFD4F80004BDE87040D2
:1020700003F0CFBE0025F2E7D0F8000403F0F2BE73
:10208000D0F8000403F0F8BE10B5044690F8BC0385
:1020900001280BD0012084F8381084F8BC03206894
:1020A00004F0F4FD002084F8BC0310BD022010BD34
:1020B000D0F8002400F57171104603F0F5BE10B59C
:1020C000044690F8BC0301280CD0012084F8BC031E
:1020D000206804F06FFA206804F04EFD002084F8B8
:1020E000BC0310BD022010BD10B50446D0F800049A
:1020F00003F01AFF2068D0F8001E41F00101C0F87B
:10210000001E206A002804D00248016841F0060140
:10211000016010BD10ED00E01848F8B5016841F00D
:10212000805101600068164C00F0805000902068DB
:1021300040F480302060FFF785FA4FF47A76054648
:1021400005E000BFFFF77EFA401BB0420FD8606881
:10215000C003F7D5206840F400302060FFF772FA22
:10216000054606E0FFF76EFA401BB04201D9032096
:10217000F8BD60688003F5D50020F8BD4038024006
:10218000007000402DE9F84F04460078DFF81C94F9
:102190004FF000073E46C0070ED0D9F8001021F4DA
:1021A0000001C9F80010D9F80010E26A1143C9F81B
:1021B0000010E06A00B90127FC4D20688435000357
:1021C0000ED5616B286820F4401008432860606BCE
:1021D000B0F5801F01D010B102E0012700E0012618
:1021E00020684FF4800BC0020CD5A16B286820F446
:1021F000400008432860A06B584501D1012701E049
:1022000000B901262078800667D5E8483830016893
:1022100041F0805101600068DFF894A300F0805025
:102220000090DAF8001041F48071CAF80010FFF74E
:1022300009FA804606E000BFFFF704FAA0EB0800A9
:1022400064287DD8DAF80000C005F5D5DFF85C8396
:1022500008F16808D8F8000010F440702AD0218DE9
:1022600001F44071814225D0D8F80010D8F8002040
:1022700021F4407142F48032C8F80020D8F80020E0
:1022800022F48032C8F80020C8F80010D8F8000006
:10229000C0070FD0FFF7D6F9824607E0FFF7D2F963
:1022A000A0EB0A0141F288308142CAD8D8F8000078
:1022B0008007F3D5A06AC0F3012103297ED0D9F8A5
:1022C000001021F4F811C9F80010228DD8F8001080
:1022D000C2F30B021143C8F800102078C00607D5DE
:1022E000286820F0807028602868216B08432860E7
:1022F0002188AE488830490405D5E26D016821F493
:102300004031114301602188090405D5226E01681E
:1023100021F44021114301602168C90305D5626E93
:10232000016821F44011114301602178490605D567
:10233000E26B016821F0030111430160217800E0A4
:102340000BE1090605D5226C016821F00C0111434F
:1023500001602188C90505D5626C016821F0300152
:10236000114301602188890505D5A26C016821F01F
:10237000C001114301602188490505D5E26C01685F
:1023800021F44071114301602188090505D5226DB2
:10239000016821F44061114301602188C90405D519
:1023A000626D016821F44051114301602188890464
:1023B00007D5A26D016821F4404100E034E01143EB
:1023C000016021684FF0006A890209D5626F0168D7
:1023D00021F0006111430160616F514500D1012678
:1023E0002168490305D5E26E016821F0407111436F
:1023F00001602168090205D5A26F016821F08051B2
:10240000114301602168490105D5E26F016821F09F
:10241000005111430160DFF89C91012F0ED020681C
:10242000B0F1007F0AD06EE0634AD9F80030104066
:1024300023F4F8120243C9F8002046E7D9F8000057
:102440004F4620F08060C9F80000FFF7FBF8804697
:1024500006E000BFFFF7F6F8A0EB080064287CD880
:1024600038680001F6D4217850487C30C9070DD077
:10247000E16A59B9227A6168D0F800C08B01CCF3C7
:10248000036143EA016141EA0271016021680A03C4
:1024900003D5626BB2F5801F04D0C90214D5A16BBD
:1024A000594511D1237B626801689201C1F3027121
:1024B00042EA036242EA017101602968E26921F09F
:1024C0001F01521E114329602168890108D56168E6
:1024D000227B237A890141EA026141EA03710160AA
:1024E0003968B84641F080613960FFF7ABF80746BC
:1024F00005E000BFFFF7A6F8C01B642863D8D8F832
:1025000000000001F6D54EB3D9F800004E4620F089
:102510008050C9F80000FFF795F8074605E000BFB6
:10252000FFF790F8C01B64284DD83068C043800086
:10253000F6D51E48216880300A0301D5626B1AB1B6
:10254000C90219D5A16BB9B923690168227D9B0124
:10255000C1F3014143EA014101E034E03AE041EADC
:102560000261016029686FF0FF03226A21F4F851CB
:1025700003EB022211432960216889020DD5616FA6
:1025800051450AD1228B21690368890141EA02423F
:10259000C3F3036142EA01610160306840F080509A
:1025A0003060FFF74FF8044610E0000008380240A2
:1025B0000070004000380240FFFCFF0FFFF742F8B8
:1025C000001B642802D90320BDE8F88F3068C0439F
:1025D0008000F3D40020F7E72DE9F04705000F460F
:1025E00063D0444E306800F00F00B84209D2306822
:1025F00020F00F0038433060306800F00F00B84220
:1026000053D128683C4C810712D5400703D5206878
:1026100040F4E05020602878000703D5206840F49B
:1026200060402060A968206820F0F0000843206026
:102630002878C0072AD0304968680839012810D0A6
:102640000968022810D0890700292EDA216821F0B4
:10265000030101432160FEF7F5FF804641F288390E
:102660000DE009688903EFE78901EDE7FEF7EAFF6E
:10267000A0EB0801494502D90320BDE8F08768684E
:10268000216801F00C01B1EB800FEFD1306800F050
:102690000F00B8420BD9306820F00F00384330608B
:1026A000306800F00F00B84201D00120E5E728783B
:1026B000400705D5E968206820F4E0500843206011
:1026C0002878000706D52869216821F4604141EA8D
:1026D000C000206000F03EF82168084AC1F30311F1
:1026E000515CC8400649086006480068FEF7CEFF06
:1026F0000020C2E7003C0240083802403070000869
:102700006C00002074000020014800687047000041
:102710006C0000200449054809680068044AC1F3B8
:102720008221515CC8407047083802406C0000208C
:10273000407000080449054809680068044AC1F36C
:102740004231515CC8407047083802406C0000209C
:1027500040700008154910B51548096811F00C02C1
:1027600013D01449042A0FD0082A0ED10F4C241F6D
:102770002268236802F03F025B0207D52068C0F39D
:102780008810A0FB010106E0084610BD2168C1F3D6
:102790008811A1FB00010023FDF73EFD2168C1F374
:1027A0000141491C4900B0FBF1F010BD083802405E
:1027B0000024F40000366E012DE9F84F04004FF0BC
:1027C00000076ED02078DFF868A3AAF10408C007DC
:1027D000A8F104054CD0DAF800105046C1F381018D
:1027E000012908D00068C0F3810002280AD1D8F876
:1027F0000000400206D52868800339D560680028AB
:10280000DFD035E06068B0F5803F0BD010B1B0F597
:10281000A02F11D0286820F480302860286820F488
:10282000802002E0286840F480302860606890B121
:10283000FEF708FF06460AE0286840F4802028607A
:10284000F0E700BFFEF7FEFE801B642872D8286800
:102850008003F7D50CE0FEF7F5FE064605E000BF65
:10286000FEF7F0FE801B6428F0D828688003F7D4B8
:102870002078800742D5DAF80010504611F00C0F8E
:1028800008D00068C0F3810002280BD1D8F80000FE
:10289000400207D42868800718D5E068012800D1D5
:1028A00014E041E1E0680028286817D040F00100FA
:1028B0002860FEF7C7FE064605E000BFFEF7C2FE31
:1028C000801B0228C2D828688007F7D520692968AC
:1028D00021F0F80141EAC00028600FE020F001007B
:1028E0002860FEF7AFFE064605E000BFFEF7AAFE31
:1028F000801B02281ED828688007F7D4207800079C
:1029000029D58B4861696C3000298146016812D055
:1029100041F001010160FEF795FE064605E000BFAB
:10292000FEF790FE801B022804D8D9F8000080072B
:10293000F6D510E089E021F001010160FEF782FE8A
:10294000064604E0FEF77EFE801B02287DD8D9F8FB
:1029500000008007F6D4207840076BD5DFF8D091CF
:1029600009F13809D9F80000C0000BD4D9F80010DB
:1029700041F08051C9F80010D9F80000012700F09B
:10298000805000906B480168C90512D401688346E5
:1029900041F480710160FEF755FE064605E000BF78
:1029A000FEF750FE801B64284FD8DBF80000C005FE
:1029B000F6D55F4EA068683601280AD008B1052810
:1029C00011D0306820F001003060306820F0040041
:1029D00002E0306840F001003060A068A0B1FEF76E
:1029E00031FE83460CE0306840F004003060F0E7D0
:1029F000FEF728FEA0EB0B0141F28830814266D839
:102A000030688007F4D50EE0FEF71CFE834607E031
:102A1000FEF718FEA0EB0B0141F28830814256D838
:102A200030688007F4D42FB1D9F8001021F080511C
:102A3000C9F80010A069C8B3DAF80010C1F3810129
:102A400002294BD00228286800E040E020F0807086
:102A5000286003D0FEF7F6FD04463BE0FEF7F2FDEA
:102A6000064604E0FEF7EEFD801B02282FD82868FA
:102A70008001F7D4D4E90962D4E907012E4B570845
:102A800094F82C20084303EB074343EA86110843DC
:102A900040EA026040F00050C8F80000286840F0AA
:102AA00080702860FEF7CEFD044606E03EE000BFE1
:102AB000FEF7C8FD001B022809D828688001F7D559
:102AC00034E000BFFEF7BEFD001B022802D9032040
:102AD000BDE8F88F28688001F4D427E00128D8F8F1
:102AE000000021D0E16900F480028A421CD1216AF1
:102AF00000F03F028A4217D1626A47F6C071014076
:102B0000B1EB821F10D1A16A4FF0FF3200F44033C5
:102B100002EB5101B3EB014F06D194F82C1000F0F9
:102B20007060B0EB016F01D00120D1E70020CFE74A
:102B300008380240007000400000FFFF70B504003C
:102B40000D4603D094F82C0010B107E0012070BDB1
:102B5000002084F82D00204600F011F8022084F8AF
:102B60002C002068211DFEF72FFBD4E90002294626
:102B7000FEF75AFB012084F82C00002070BDFEF700
:102B80001DBC00002DE9FE4304460F46416C0320A6
:102B900084F8340003295BD0B7F5805F58D04FF438
:102BA00000664FF00005B7424FF080681CD10095D9
:102BB00000210195206801F005FF800121D46946BC
:102BC000204601F02FFF98BB0198400332D5B4F89E
:102BD00050102068090401F086FC48BB20680221DF
:102BE00022E0A06B284327E01FB1A06B40F00060FB
:102BF00022E0009500210195206801F0E3FE8001AC
:102C000001D53546EDE76946204601F00BFF78B95E
:102C10000198C0030ED5B4F850102068090401F0E3
:102C200062FC28B92068002101F0A9FC0028D8D056
:102C30000546D6E74546D4E7A063A06B012558B109
:102C400021680C48886384F834500120BDE8FE8375
:102C5000A06B40F08050EFE7211DD4E905060EC9B6
:102C60000097CDE90106206801F0AFFE84F83450EA
:102C70000020EBE7FF054000F0B5426E920F0A70AE
:102C8000426EC2F383624A70426EC2F301628A707E
:102C9000426E120CCA70B0F86420120A0A7190F8E1
:102CA00064204A71826E120DCA80826EC2F30342A2
:102CB0000A72B0F86820C2F3C0324A72B0F86820D5
:102CC000C2F380328A72B0F86820C2F34032CA720E
:102CD000B0F868200026C2F300320A734E73012256
:102CE000436C4FF4007463B1012B3AD00368504930
:102CF0009963816B41F08051816380F83420012019
:102D0000F0BDB0F86830C56E9B051B0D43EA9573A6
:102D10000B61C36EC3F3C2630B75C36EC3F302636F
:102D20004B75C36EC3F342538B75C36EC3F38243BB
:102D3000CB75C36EC3F3C2330B760D696D1C45654D
:102D40000B7E03F007039B1C9D4045650B7A0466D0
:102D500003F00F0302FA03F35F0A7D43C0E916355F
:102D60000EE090F86850C36EAD06AD0A45EA134315
:102D70000B610B695B1C9B024365C0E9164304664B
:102D8000B0F86C30C3F380334B76B0F86C30C3F3DB
:102D9000C6138B7690F86C3003F07F03CB76036F0D
:102DA000DB0F0B77036FC3F341734B77036FC3F3F1
:102DB00082638B77036FC3F38353CB77036FC3F3C4
:102DC000405381F8203081F82160036FC3F3004342
:102DD00081F82230B0F87030C3F3C03381F823306B
:102DE000B0F87030C3F3803381F82430B0F870301D
:102DF000C3F3403381F82530B0F87030C3F30033AB
:102E000081F82630B0F87030C3F3812381F8273081
:102E1000B0F87030C3F3012381F8283090F87000C7
:102E2000C0F3460081F8290081F82A200020F0BD77
:102E3000FF05400070B504000ED094F83400002562
:102E400018B92046257700F03DF8032084F83400B7
:102E5000204600F00AF808B1012070BD0120A563EA
:102E6000256384F83400002070BD3EB5044676200A
:102E7000002100910B460A46CDE90110206801F0BF
:102E8000A4FD08B101203EBD2068416821F4807195
:102E90004160206801F0AAFD2068416841F480711A
:102EA0004160204601F0A0FE4FF0010520B9204608
:102EB00001F023FE0028E6D084F83450A16B0143D2
:102EC000A163DFE7F0B587B0044614216846FDF73B
:102ED000EDF91E492068884235D11D48016841F44A
:102EE00000610160006800F4006005901848143823
:102EF000016841F004010160016801F004010591DD
:102F0000016841F00801016000680224002569465B
:102F100000F00800059003260C274FF4F8508DE8C8
:102F2000F1000C48FEF7AAFA042069468DE8F1008A
:102F30000948FEF7A3FA002209213120FEF7ECFB35
:102F40003120FEF7DBFB07B0F0BD0000002C014094
:102F50004438024000080240000C02402DE9F047CE
:102F6000040005D094F85D000025A56218B107E0C3
:102F70000120BDE8F087204684F85C5000F050F84E
:102F8000022284F85D204FF4E0632068016821F09C
:102F900040010160E068984201D9002101E04FF44E
:102FA0008051B0F5706F02D0984200D0A5624FF00A
:102FB0000109266B2EB9984201D9226301E0C4F8B9
:102FC0003090D4E90468D4E90102278B46EA080668
:102FD000A36A104307F4007830432668D4E907C297
:102FE00040EA080040EA0C00CC460427104318438E
:102FF0003060D4F81880666B606AE26807EA1847A8
:10300000236830433A431043084358602068C1693D
:1030100021F40061C161256684F85DC00020A8E745
:103020002DE9F04186B0064614216846FDF73EF9C9
:103030005749002533680224564A14395448032658
:103040000527934215D1026842F48052026000685D
:1030500000F480500590086840F00100086008689E
:10306000694600F001000590E0208DE8F1004A4833
:103070002EE0474ADFF824C1DFF82481121F6345A0
:103080002BD1106840F480401060106800F480403C
:103090000590086840F004000860086800F004002B
:1030A0000590086840F002000860086801AB0094D1
:1030B000694600F00200CDE9047083E870003948E9
:1030C000FEF7DCF94FF4806069468DE8F100404678
:1030D000FEF7D4F906B0BDE8F081DFF8CCC0634557
:1030E00023D1106840F400401060106800F40040E4
:1030F0000590086840F0020008600868072147460C
:1031000000F0020005900420CDE903618DE8310054
:1031100069464046FEF7B2F908200621CDE9036171
:103120008DE8310069463846D2E7204A934215D1EE
:10313000026842F400520260006800F400500590FA
:10314000086840F0100008600868694600F0100048
:10315000059044208DE8F1001548B9E7154A9342DF
:10316000B8D1026842F480120260006800F4801056
:103170000590086840F0200008600868694600F083
:10318000200005904FF420708DE8F1000A489FE779
:103190004438024000300140000002400038004046
:1031A0000004024000080240003C0040003401409E
:1031B000001002400050014000140240401EB0F1D7
:1031C000807F10B501D3012010BD4FF0E024606175
:1031D0000F21601703F0F3FD0020A061072121619A
:1031E00010BD00002DE9F04390F83C20012A42D0A8
:1031F000012280F83C2051F80C4BDFF880804FF022
:10320000000991E8680051E9022723F44073B1F8FE
:103210000CC03B43CF6923F480631343026823F45B
:103220000063234323F4805343EA050323F400534C
:1032300043EA060323F4804343EA07030C3923F4EB
:103240007023424543EA0C4302D00D4CA2420CD1FC
:103250008D8C23F47006D1E9073446EA055121F03C
:103260008071194321F000732343536480F83C902C
:103270000020BDE8F0830220FBE7000000000140D1
:1032800000040140F0B590F83C20012A3BD01F4ECD
:10329000012480F83C40022280F83D2002681C4D49
:1032A0005368B242D2F808C001D0AA4203D14F6895
:1032B00023F470033B430F6823F070031F435760F0
:1032C0000268B24213D0B2F1804F10D0114B9A4233
:1032D0000DD0114B9A420AD0104B9A4207D0AA4205
:1032E00005D00F4B9A4202D00E4B9A4204D1896806
:1032F0002CF0800319439160002180F83D4080F854
:103300003C100846F0BD0220F0BD00000000014066
:10331000000401400004004000080040000C004090
:10332000004001400018004010B5040003D094F89C
:103330003D0010B107E0012010BD002084F83C00E2
:10334000204600F00DF8022084F83D002068211D81
:1033500001F040FD012084F83D00002010BD000078
:1033600010B586B0044614216846FCF79FFF1E493D
:103370002068884222D11D48016841F001010160A6
:10338000006800F00100059018481438016841F009
:103390000101016000680123022200F00100059094
:1033A00000204FF4805100916946CDE90120CDE91C
:1033B00003030F48FEF762F806B010BD0D498842BE
:1033C000FAD10A48001F016841F480710160006869
:1033D0000022062100F4807005902D20FEF79CF954
:1033E0002D20FEF78BF9E7E700000140443802404A
:1033F000000002400020004070B5044690F83C00F8
:10340000012817D0324B012584F83C50022084F863
:103410003D0022689068184020F47F409060086862
:10342000502830D00DDC20284DD005DC98B3102872
:103430003BD148E0022070BD302844D0402834D130
:1034400039E0602828D0702806D0B0F5805F2CD0F5
:10345000B0F5005F29D10AE04A682068D1E902137B
:1034600001F01EFD2068816841F0770109E04A689B
:103470002068D1E9021301F013FD2068816841F44E
:103480008041816011E0CA684968206801F096FEB9
:103490002068502107E016E0CA684968206801F0FA
:1034A0009EFE2068602101F004FD002084F83D505C
:1034B00084F83C0070BDCA684968206801F07EFE4F
:1034C00020684021EFE7226801461046EBE7000044
:1034D00088FFFEFF10B586B0044614216846FCF74D
:1034E000E5FE0E492068884216D10D48016841F07A
:1034F0000101016000680123022200F00100059033
:1035000000204FF4807100916946CDE90120CDE99A
:1035100003030448FDF7B2FF06B010BD00000140F0
:10352000303802400000024070B5044690F83C007C
:1035300001280ED0012584F83C50022084F83D007B
:103540000C2A19D007DC5AB1042A0DD0082A1ED142
:103550000EE0022070BD102A12D0142A17D113E0F9
:10356000206801F0AFFC12E0206801F0E5FC0EE0FD
:10357000206801F01DFD0AE0206801F055FD06E01D
:10358000206801F07DFD02E0206801F0A5FD00202B
:1035900084F83D5084F83C0070BD10B5040003D0A1
:1035A00094F83D0010B107E0012010BD002084F820
:1035B0003C00204600F00CF8022084F83D00206812
:1035C000211D01F007FC012084F83D00002010BD02
:1035D000704770B5044690F83C00012812D00125D0
:1035E00084F83C50022084F83D00204601F0A0FD04
:1035F00000284FF0000007D084F83D5084F83C00CC
:10360000012070BD022070BD2168CA6822F040020E
:10361000CA602168CA6822F48042CA6084F83D50BA
:1036200084F83C00002070BD10B5040002D0606F2B
:1036300010B107E0012010BD002084F87000204682
:1036400000F026F8242060672068016821F001015D
:103650000160204601F05AFE0128ECD0606A10B1EA
:10366000204601F0D0FD2068416821F4904141607E
:103670002068816821F02A0181602068016841F09A
:10368000010101602046BDE8104001F020BE0000AD
:103690002DE9F04F87B0054614216846FCF706FE79
:1036A000A4490024A44E03222F681039A148022304
:1036B000DFF888B2B7424FF0080C1ED1056845F418
:1036C00000250560006800F400200590086840F0BF
:1036D00001000860086869468DE81C0000F00100E0
:1036E0000392CDE904C05846FDF7C8FE00220B2125
:1036F0003420FEF711F8342020E0914EB74222D159
:10370000056845F000450560006800F00040059040
:10371000086840F010000860086869468DE81C00E1
:1037200000F010000392CDE904C08648FDF7A6FE24
:1037300000220F215320FDF7EFFF5320FDF7DEFF9E
:1037400007B0BDE8F08F804E4FF0006ADFF8E4E18B
:103750004FF00709B7420EF1040E4FF4806639D1DD
:10376000DEF8007047F01007CEF80070DEF80000B9
:1037700000F010000590086840F00100086008683B
:103780004FF4C061039200F001008DE81A00CDE90A
:10379000049069465846FDF771FE6C4F6C493846F7
:1037A00039604FF44031C7E901A4C7E903467C61A1
:1037B000BC61C7E907417C62FDF77CFD08B1FDF7FC
:1037C00002FDEF6600220C21BD632520FDF7A4FF5A
:1037D0002520B3E7DFF87C81474535D1076847F4FA
:1037E00000370760006800F400300590086840F07A
:1037F0000100086008680C21039200F001008DE8C8
:103800001A00CDE9049069465846FDF737FE524F3D
:103810005249384639604FF44031C7E901A4C7E93D
:1038200003467C61BC61C7E907417C62FDF742FD4C
:1038300008B1FDF7C8FCEF6600220D21BD6326200C
:10384000FDF76AFF262079E7DFF81481474535D177
:10385000076847F480270760006800F4802005901F
:10386000086840F00800086008684FF4407103924F
:1038700000F008008DE81A00CDE904903948694647
:10388000FDF7FCFD384F3549384660393960C7E9E6
:1038900001A4C7E903467C61BC61FC613C627C62B7
:1038A000FDF708FD08B1FDF78EFCEF6600220E2142
:1038B000BD632720FDF730FF27203FE72B488742D5
:1038C0007FF43EAFDEF8007047F02007CEF80070BE
:1038D000DEF8000000F020000590086840F00400C9
:1038E00008600868694600F004000590C0208DE873
:1038F00019001F48CDE9032CFDF7C0FD14481D4FEA
:103900001838810587E81300C7E903467C6138460B
:10391000BC61FC613C627C62FDF7CCFC08B1FDF748
:1039200052FCEF6600220A21BD634720FDF7F4FE3A
:10393000472003E740380240004C004000000240AE
:10394000007C00400010024000100140FCCA002032
:1039500040640240004400405CCB0020886002408C
:1039600000480040000C0240BCCB00200014014085
:10397000000802401CCC0020FEE70000134910B5EF
:103980004FF4005401F58040224603F039FA104903
:103990002246104803F034FA0E4822460E493430CD
:1039A00003F02EFA0B4822460C49683003F028FA3F
:1039B000084822460A499C3003F022FA054822466C
:1039C000BDE810400749D03003F01ABAC487002080
:1039D000C4070020F8C70020C4270020C4470020E7
:1039E000C4670020C4A70020F8B50426D24C2523C4
:1039F000D249F702B7FBF6F0A4F87A603A46A4F889
:103A00007C00CF48206784F86C30CE4BC06E0160DC
:103A1000A3F50041608840F00100608020460097D7
:103A2000FDF732FA206F0068C1690906FCD501680C
:103A300021F001010160A078800715D5206F806E0C
:103A40000068016821F001010160216F886E006843
:103A50000268D207FCD1096824318160206F0068B8
:103A6000816841F080018160A078C00715D0206F87
:103A7000C06E0068016821F001010160216FC86E0D
:103A800000680268D207FCD1096824318160206F88
:103A90000068816841F040018160206F0068016822
:103AA00021F001010160206FC16EE06A0968C86001
:103AB0003A46206FA04D8035C16EE068B7FBF6F442
:103AC0000B68262158609E48A5F87A608030A5F8DA
:103AD0007C40286785F86C10C06E9B49994B01604B
:103AE000A3F5C041688840F0010068802846009234
:103AF000FDF7CAF9286F0068C1690906FCD501689D
:103B000021F001010160A878800715D5286F806E2B
:103B10000068016821F001010160296F886E00686A
:103B20000268D207FCD1096824318160286F0068DF
:103B3000816841F080018160A878C00715D0286FA6
:103B4000C06E0068016821F001010160296FC86E34
:103B500000680268D207FCD1096824318160286FAF
:103B60000068816841F040018160286F0068016849
:103B700021F001010160286FC16EE86A0968C86020
:103B80003C46286F3A46B7FBF6F7C16EE8686F4DC2
:103B90000B68272158606E48A5F87A60A5F87C70FC
:103BA000286785F86C10C06E6749664B6039016004
:103BB000A3F58041688840F00100688028460092A3
:103BC000FDF762F9286F0068C1690906FCD5016834
:103BD00021F001010160A878800715D5286F806E5B
:103BE0000068016821F001010160296F886E00689A
:103BF0000268D207FCD1096824318160286F00680F
:103C0000816841F080018160A878C00715D0286FD5
:103C1000C06E0068016821F001010160296FC86E63
:103C200000680268D207FCD1096824318160286FDE
:103C30000068816841F040018160286F2246B2FB34
:103C4000F6F3424C47213D4F00688034183FD0F8CE
:103C500000C02CF0010CC0F800C0286FC06ED0F876
:103C600000C0E86ACCF80C00286FED68C06E0068F0
:103C700045603748A4F87A608030A4F87C3020672B
:103C800084F86C10C06E2F4BA3F50051076060885C
:103C900040F00100608020460092FDF7F5F8206FAB
:103CA0000068C1690906FCD5016821F001010160C5
:103CB000A078800715D5206F806E0068016821F01C
:103CC00001010160216F886E00680268D207FCD193
:103CD000096824318160206F0068816841F08001AB
:103CE0008160A078C00715D0206FC06E00680168A1
:103CF00021F001010160216FC86E00680268D207DF
:103D0000FCD1096824318160206F0068816841F02E
:103D100040018160206F0068016821F001010160AD
:103D2000216FE06AC96E0968C860216FE068C96EDA
:103D300009684860F8BD0000FCC8002040640240EB
:103D400090050020C487002088600240FCC9002044
:103D500090060020F0B500230A251C4630263727A0
:103D600011E000BFB5EB107F02D906EB107C01E03B
:103D700007EB107C01F813C001EB430C00015B1C46
:103D80008CF80140DBB29342ECD3F0BD194808B582
:103D9000016841F480010160016801F48001009133
:103DA000016841F40011016000680022012100F463
:103DB000001000900C20FDF7AFFC0C20FDF79EFCDE
:103DC000002202211020FDF7A7FC1020FDF796FC31
:103DD000002203213920FDF79FFC3920FDF78EFCDE
:103DE000002204213A20FDF797FCBDE808403A2064
:103DF000FDF784BC30380240F0B587B01C2168461E
:103E0000FCF754FA104808260E4B002201274025E3
:103E10000360102147608024C0E9022684614B01C1
:103E2000C0E90425C0E90732426282620091019133
:103E3000029103910491059106916946FEF77EFE79
:103E400007B0F0BD400100A0900700202DE9F04F21
:103E500087B014216846FCF729FA5248016841F0FE
:103E600010010160016801F010010591016841F045
:103E700004010160016801F004010591016841F04D
:103E800020010160016801F020010591016841F005
:103E900080010160016801F080010591016841F035
:103EA00001010160016801F001010591016841F023
:103EB00002010160016801F002010591016841F011
:103EC00040010160016801F040010591016841F085
:103ED0000801016000684EF23006DFF8CC90002245
:103EE00000F00800314605904846FDF7A5FBDFF8D5
:103EF000BCA0002240215046FDF79EFBDFF8B0B089
:103F0000002210215846FDF797FB43F60127294868
:103F100000223946FDF790FB264801220221FDF7D9
:103F20008BFB4FF47158244800224146FDF784FB77
:103F300000240096012569464846CDE901540394C2
:103F4000FDF79CFA40200090CDE9015469465046A7
:103F50000394FDF793FA10200090CDE901546946CF
:103F600058460394FDF78AFA00976946CDE9015453
:103F700010480394FDF782FA03210220CDE90005E1
:103F8000CDE902410B486946FDF778FACDF800808B
:103F90006946CDE9015408480394FDF76FFA07B06C
:103FA000BDE8F08F303802400008024000140240A3
:103FB0000000024000040240000C02400C480021B6
:103FC00030B40A4C4FF47062C0E900416315C0E997
:103FD000021201610724C0E9051301624162C0E9D0
:103FE0000A140163416330BCFEF7B8BF00300140E2
:103FF0001C02002030B40C4D00210C484FF47064BA
:104000002B1505605A10C0E90113C0E903410723CD
:10401000C0E9051201624162C0E90A13016341630C
:1040200030BCFEF79BBF000000380040800200203B
:1040300030B40C4D00210C484FF470642B15056012
:104040005A10C0E90113C0E903410723C0E9051272
:1040500001624162C0E90A130163416330BCFEF7AB
:104060007DBF0000003C0040E402002030B40C4D55
:1040700000210C484FF470642B1505605A10C0E9FC
:104080000113C0E903410723C0E90512016241623F
:10409000C0E90A130163416330BCFEF75FBF000053
:1040A000003401404803002030B40C4D00210C487E
:1040B0004FF470642B1505605A10C0E90113C0E974
:1040C00003410723C0E9051201624162C0E90A13F6
:1040D0000163416330BCFEF741BF00000050014066
:1040E000AC03002010B59EB00024142112A81A942D
:1040F0001B941C941D94FCF7D9F81C2117940BA851
:1041000018941994FCF7D2F82C216846FCF7CEF8E5
:1041100025482449C0E900148460C46004614461F6
:104120008461FFF701F94FF480501A901E481AA9D4
:10413000FFF762F91C48FFF730FA12AA0620702137
:1041400082E81300184812A915941694FFF741FA53
:10415000154817A9179418941994FFF793F80B941E
:1041600000220C940BA910480D940E940F941094F7
:104170001194FFF7D9F94FF4005000940194010312
:104180000294CDE9044003940694CDE90741064822
:10419000694609940A94FFF725F80348FFF79AF94E
:1041A0001EB010BD00000140100400200A4800218C
:1041B00030B4084C0C224FF4E1330460C0E9013103
:1041C000C160C0E904128161C1610162416230BC19
:1041D000FFF72ABA004C0040900400200A48002152
:1041E00030B4084C0C224FF4E1330460C0E90131D3
:1041F000C160C0E904128161C1610162416230BCE9
:10420000FFF712BA007C0040100500200A48002188
:1042100030B4084C0C224FF4E1330460C0E90131A2
:10422000C160C0E904128161C1610162416230BCB8
:10423000FFF7FAB900100140900500200A4800215C
:1042400030B4084C0C224FF4E1330460C0E9013172
:10425000C160C0E904128161C1610162416230BC88
:10426000FFF7E2B900440040100600200A48002190
:1042700030B4084C0C224FF4E1330460C0E9013142
:10428000C160C0E904128161C1610162416230BC58
:10429000FFF7CAB900480040900600200A480021F4
:1042A00030B4084C0C224FF4E1330460C0E9013112
:1042B000C160C0E904128161C1610162416230BC28
:1042C000FFF7B2B900140140100700201049012285
:1042D000104810B501F074FC08B1FCF774FF0E49EA
:1042E0000C4801F048FE08B1FCF76DFF0B49094886
:1042F00001F089FA08B1FCF766FF064801F0B4FE48
:10430000002803D0BDE81040FCF75DBF10BD0000E1
:10431000000000207CCC002058010020500000202C
:10432000FEE770470148FDF78BBB00004CCF002033
:104330002DE9F041044600690D4620272368012835
:104340004FF4004604F5717203EB4511D3F840C0F9
:10435000D1F8080B09D0DFF89CE0F4453AD102040B
:1043600033D500BFC1F8086B40E0234B5FEA007E05
:1043700004D59C453AD90004F4D437E05FEA806E56
:1043800002D5C1F8087B31E010F0280F2ED19C45F2
:1043900001D90004E6D4D1F8103BC5EBC50004EB0D
:1043A0008000C3F31203D0F80412A1EB0303C0F89A
:1043B0001432D0F808321944C0F8081295B9D4F86C
:1043C000100278B9206801210AE080060AD5C1F8F8
:1043D000087B07E035B9D4F8100218B90021184657
:1043E00002F052FA2046E9B2FDF711FA0020BDE8CA
:1043F000F08100000A31544F0A30544F2DE9F84F34
:104400000E4605688146C1EBC60100EB8104D4E984
:1044100014203C34904202D90120BDE8F88FA168F5
:10442000101A814200D20846C01C05EB46188708C6
:104430001BE000BFA268A0EB010A524500D29246E1
:1044400099F810100AF1030000911FFA8AF3E1684D
:1044500087082846F2B202F09FFCE16801EB0A00EF
:10446000E060A16901EB0A00A061D8F8180980B2E8
:10447000B84205D3D4E90501814201D20028D9D13F
:10448000D4E90501884208D8D5F83418012006F08F
:104490000F0290408143C5F834180020BDE77047F3
:1044A00010B5094C012251032046FDF7C5F8012241
:1044B0002046D102FDF7C0F800222046A114BDE835
:1044C0001040FDF7B9B8000000040240044801683C
:1044D00041F001010160C16841F00101C160704714
:1044E00000200040704730B585B004463720402298
:1044F0000DF1080CCDE90010002369461501204696
:104500008CE82C0000F07DFA372141F288322046F9
:1045100000F036F905B030BD30B50B4A85B0044621
:104520002920114340220DF1080CCDE90010002391
:104530006946150120468CE82C0000F062FA2046FE
:1045400000F0D6F905B030BD0000108030B585B060
:10455000044610200DF1080C8501CDE90010402221
:104560006946002320468CE82C0000F04AFA10210E
:1045700041F28832204600F003F905B030BD30B575
:1045800085B00446062040220DF1080CCDE900104C
:1045900000236946150120468CE82C0000F031FA12
:1045A000062141F28832204600F0EAF805B030BD1D
:1045B00030B585B00546002469464FF4806000940C
:1045C00001940294CDE90340284600F01AFA0B4A00
:1045D0004FF4FA5041F288311268B2FBF0F04843D0
:1045E000401E03D24FF0004005B030BD696B090694
:1045F000F6D5C5212046A963F6E700006C0000202F
:1046000070B585B0044608214FF4D57040250026CA
:10461000CA0104928DE863006946204600F0F1F972
:10462000124A4FF4FA5041F288311268B2FBF0F0AE
:104630004843401E03D24FF0004005B070BD616B8F
:1046400011F0450FF5D00905F3D4606B400701D593
:10465000042003E0606BC00702D00120A063ECE7F8
:10466000606B400600D5A5633046E6E76C0000208D
:1046700030B585B0044640210DF1040C07200092AE
:1046800000230D018CE82B006946204600F0B9F9A3
:10469000072141F28832204600F072F805B030BDA3
:1046A00010B586B0044600210220C02243020493C4
:1046B000CDE90010CDE902216946204600F0A1F9BC
:1046C000204600F0EDF806B010BD30B585B00446C8
:1046D00009200DF1080CC022CDE900100023694625
:1046E0004FF4806520468CE82C0000F08AF92046C3
:1046F00000F0D6F805B030BD10B586B004460021F4
:1047000033204022CDE90221CDE900101301694692
:104710002046049300F075F9332141F28832204697
:1047200000F02EF806B010BD30B585B00C46002163
:10473000054603204022CDE90221CDE900101301F6
:1047400069462846049300F05CF903212246284676
:1047500000F0F0F805B030BD70B50A6842624A68F2
:104760008262C46AD1E90225D1E9043624F0F70156
:104770002A4333431A431143C162002070BD000035
:1047800010B5454C4FF4FA532468B4FBF3F353438C
:104790005B1E02D24FF0004010BD426B12F0450F7D
:1047A000F6D01205F4D4426B520703D5042181637D
:1047B000084610BD426BD20702D00121816305E09B
:1047C000C52282630269D2B28A4201D0012010BDA3
:1047D000002100F0F7F83149084201D1002010BD56
:1047E000002802DA4FF0007010BD410001D54020D2
:1047F00010BD810001D5802010BDC10002D54FF44D
:10480000807010BD010102D54FF4007010BD410150
:1048100002D54FF4806010BDC10102D54FF4006095
:1048200010BD010202D54FF4805010BD410202D5E7
:104830004FF4005010BD810202D54FF4804010BDEE
:10484000C10202D54FF4004010BD410302D54FF420
:10485000003010BD810302D54FF4802010BDC1038C
:1048600002D54FF4002010BD010402D54FF4801092
:1048700010BD410402D54FF4001010BD810402D5D3
:104880004FF4800010BD000702D54FF4000010BDAA
:104890004FF4803010BD00006C00002008E0FFFDE8
:1048A000124B4FF4FA5141F288321B68B3FBF1F11D
:1048B0005143491E02D24FF000407047426B12F044
:1048C000450FF6D01205F4D4416B490703D50421F6
:1048D000816308467047416BC90703D0012181639A
:1048E00008467047C5218163002070476C00002096
:1048F0000F4B4FF4FA5141F288321B68B3FBF1F1D0
:104900005143491E02D24FF000407047426B12F0F3
:10491000450FF6D01205F4D4416B490703D50421A5
:10492000816308467047C5218163002070470000FD
:104930006C00002030B5204D4FF4FA5341F288341A
:104940002D68B5FBF3F363435B1E02D24FF00040CA
:1049500030BD446B14F0450FF6D02405F4D4436BFE
:104960005B0703D504218163084630BD436BDB0739
:1049700002D00121816303E00369DBB28B4201D0E5
:10498000012030BDC5218163002100F01BF810F427
:10499000604F04D0410406D54FF4005030BD000CE8
:1049A0001080002030BD000402D54FF4805030BD8F
:1049B0004FF4803030BD00006C000020006800F033
:1049C0000300704708444069704770B5114342685E
:1049D000049EDDE90554334347F6FF661943294336
:1049E000B24321430A434260002070BD10B5032149
:1049F00001600220FCF7D0FC002010BDD0F8800040
:104A0000704770B50A688260C468D1E90125D1E9B0
:104A10000336210B2A43334309031A431143C16070
:104A2000002070BD2DE9F04F89B00D460446FCF71B
:104A300009FE0027009701970821834620683E461B
:104A4000FFF784FD002835D1B4F850102068090420
:104A5000FFF749FD00282DD14FF008084FF002095B
:104A60004FF0010C421E3023CDE90228CDE9043974
:104A7000CDE9067C206802A9FFF76EFE2068FFF7EB
:104A80003BFE002816D1EA4640F22A472068416BD7
:104A9000394212D1416B890204D5FFF7AFFF4AF8C2
:104AA0002600761CFCF7CEFDA0EB0B00401CEDD1E0
:104AB0004FF0004009B0BDE8F08F416B090703D506
:104AC000C0F838800820F5E7416B890703D5C0F8A6
:104AD00038900220EEE7416B890603D520218163DF
:104AE0000846E7E740F23A518163019800BA28602E
:104AF000009800BA68600020DCE710B590B004466A
:104B00000120ADF838002068FFF758FF002854D086
:104B1000606C032842D02068FFF7C2FD00284AD10C
:104B200020680021FFF74EFF606704212068FFF72F
:104B300049FFA06708212068FFF744FFE0670C21C8
:104B40002068FFF73FFF616CC4F88000032925D07F
:104B500020680EA9FFF7E8FD00282CD1606C03281F
:104B60001CD0BDF83810216520680904FFF7ADFDA1
:104B7000002820D120680021FFF724FF606604216F
:104B80002068FFF71FFFA06608212068FFF71AFFC3
:104B9000E0660C212068FFF715FF206704212068DC
:104BA000FFF710FF000DE06403A92046FEF764F84C
:104BB00030B14FF0805010B010BD4FF08060FAE778
:104BC000B4F85000002302042068FFF751FD0028CC
:104BD000F1D104F1100007C88DE8070094E80F0038
:104BE000FFF7F3FE0020E6E72DE9F84F0026044624
:104BF0003546B04600960068FFF7DAFC002827D15A
:104C00002068FFF7FDFC4FF0805B4FF001094FF685
:104C1000FF7748B1A6642068FFF7CAFC002817D1C7
:104C2000A06C012802D020E0C4F848900021206840
:104C3000FFF759FC58B918E020680021FFF753FC32
:104C4000002805D120685146FFF766FC10B1584690
:104C5000BDE8F88F20680021FFF7B4FE4FEAD07856
:104C600005460098401C009002E0DFF82CA0009858
:104C7000B84202D2B8F1000FDED00098B84202D399
:104C80004FF08070E4E7680002D5C4F8449000E07B
:104C900066640020DCE70000000010C17047017866
:104CA000407841EA00207047FCF7D2BC70B5B2B042
:104CB000302120A8FBF7FAFA14212CA8FBF7F6FA0A
:104CC00080216846FBF7F2FA2248016841F08051E2
:104CD0000160006800F0805031901F48016841F485
:104CE0004041016000680125022600F440403190F7
:104CF0002804092481010C22D823CDE9266128A9A2
:104D00002B94CDE9205020A881E84C00FDF754FDFC
:104D1000FDF702FA4FF4A050309000240F21CDE9A6
:104D20002E40CDE92C1607212CA8FDF755FC0421B7
:104D30000F9510AE09480B0214931022009086E8DC
:104D40001600684616941D941E94FDF71BFA32B0A7
:104D500070BD00004038024000700040C02BA00031
:104D6000104A30B51048146800210F4B44F4700409
:104D70001460083305680D4A0D4C45F001050560C7
:104D800019600368051D1340074A03600C322C604C
:104D90000568E305034C25F480250560803C11601F
:104DA000236030BD88ED00E000380240FFFFF6FED2
:104DB000103000240548016921F001010161044817
:104DC00000224FF47051FCF737BC00000020004077
:104DD000000C0240F0B5274B4FF0804E264D026884
:104DE0009842264E264F274C09D0704507D0A8423E
:104DF00005D0B04203D0B84201D0A04205D1D1F8CD
:104E000004C022F070024CEA020298421BD07045A6
:104E100019D0A84217D0B04215D0B84213D0A04242
:104E200011D0194DA8420ED0184DA8420BD0184DE4
:104E3000A84208D0174DA84205D0174DA84202D06D
:104E4000164DA84203D1CD6822F440722A434D6921
:104E500022F080022A43026098428A68C2620A688D
:104E6000826201D0A04201D109690163012141613F
:104E7000F0BD0000000001400004004000080040B8
:104E8000000C00400004014000400140004401408B
:104E90000048014000180040001C00400020004075
:104EA00042EA032283680A4323F47F410A43826073
:104EB0007047826822F070020A4342F00701816065
:104EC00070470000F0B5026ADFF860C0184F22F0AA
:104ED0000102DFF860E00262066A4268836926F038
:104EE00002060D68B8428C6803EA0C0323F0030342
:104EF00044EA060445EA030501D0704505D1CB68B4
:104F000024F00804234323F00404B84201D0704580
:104F100005D122F44076D1E9053233431A43426089
:104F20008561496841630462F0BD00008FFFFEFFA8
:104F30000000014000040140F0B5026A194E1A4C0D
:104F400022F01002DFF864E00262056A43688269B9
:104F500025F02005D1F808C0A0420F6802EA060239
:104F600022F4407245EA0C1542EA072201D070454E
:104F700006D1CE6825F0800545EA061525F04005E6
:104F8000A04201D0704507D1D1E9054623F4406322
:104F900043EA840343EA860343608261496881638C
:104FA0000562F0BDFF8FFFFE0000014000040140DC
:104FB000F0B5026A194F1A4E22F48072DFF864E0ED
:104FC0000262056A4368C26925F40075D1F808C019
:104FD000B0420C6802EA070222F0030245EA0C25FF
:104FE00044EA020401D0704506D1CF6825F400627E
:104FF00042EA072222F48065B04201D0704507D111
:1050000023F44052D1E9053642EA031242EA06137C
:105010004360C4614968C1630562F0BD8FFFFEFF54
:105020000000014000040140F0B5026A124B114F2C
:1050300022F4805298420262046A4268C36924F4EE
:1050400000548E680D6803EA070323F4407344EAB2
:10505000063443EA052302D0084DA84204D14D6925
:1050600022F4804242EA85124260C36149680164C9
:105070000462F0BDFF8FFFFE00000140000401400C
:10508000F0B5026ADFF844C022F480320262056A99
:105090004268446D25F400350E8960450C4F0B685D
:1050A00004EA070445EA064543EA040302D0094C32
:1050B000A04204D14C6922F4803242EA04224260C8
:1050C0004365496881650562F0BD0000000001404C
:1050D0008FFFFEFF00040140F0B5026ADFF844C014
:1050E00022F480120262046A4268436D24F40014C0
:1050F0000E8960450C4F0D6803EA070344EA065425
:1051000043EA052302D0094DA84204D14D6922F497
:10511000802242EA8522426043654968C165046293
:10512000F0BD000000000140FF8FFFFE00040140C1
:1051300070B5D1E9002304681F4EA56825F07005FD
:105140002B4333401A43A2604A6812F00F0F30D14C
:105150001211082A2DD2DFE802F02C2C2C2C0B2166
:1051600027048A680068D1E90313FFF799FE20E05D
:105170000A68052A10D00268136A146A24F0010430
:10518000146202680C69916921F0F00141EA04118E
:105190009161006803620CE0012070BD0A6900683B
:1051A000896800F00BF804E00A690068896800F07B
:1051B00016F8002070BD0000F8FFFEFF10B5036A6E
:1051C000046A23F00A0324F00104046284690B4397
:1051D00024F0F00141EA02118161036210BD10B5B3
:1051E000036A23F0100303628369046A23F47043A3
:1051F00024F0A00443EA0232826144EA0111016210
:1052000010BD7047704790F82410C90706D0016898
:10521000836A4A6822F400321A434A6090F82410E4
:10522000890706D50168C36A4A6822F480321A43A6
:105230004A6090F82410490706D50168036B4A6854
:1052400022F480221A434A6090F82410090706D5F8
:105250000168436B4A6822F400421A434A6090F89E
:105260002410C90606D50168836B8A6822F480522F
:105270001A438A6090F82410890606D50168C36B2A
:105280008A6822F400521A438A6090F82410490672
:1052900011D50168036C4A6822F480121A434A60EF
:1052A000016CB1F5801F06D10168436C4A6822F495
:1052B000C0021A434A6090F82410090606D5016816
:1052C000826C486820F4002010434860704738B56D
:1052D00000250446C567FCF7B5F903462068006859
:1052E00000070BD56FF07E400090002220464FF45F
:1052F000001100F039F908B1032038BD20206067A3
:1053000084F87050A067002038BD00002DE9F041FE
:1053100004468068DFF820C2884F2368D4E904522D
:10532000E16928431E6800250A438549104306EABF
:105330000C0606431E604FF400422068E66843688E
:1053400023F44053334343602368A669206AD3F8AB
:1053500008C030432CF4306606439E602068B84293
:105360000AD1086810F0030052D001287BD002282F
:105370007AD003286ED186E0724B98420AD1086831
:1053800010F00C0079D004287BD0082877D00C28A6
:1053900060D178E06C4B98420AD1086810F0300078
:1053A0006BD010286DD0202869D0302852D16AE007
:1053B000664B98420AD1086810F0C0005DD04028C2
:1053C0005FD080285BD0C02844D15CE0604B98421D
:1053D0000DD1086810F440704FD0B0F5807F50D0E8
:1053E000B0F5007F4BD0B0F5407F33D14BE0594B47
:1053F00098420FD1086810F4406009D0B0F5806F72
:105400003FD0B0F5006F3AD0B0F5406F22D13AE00E
:10541000012120E0504B98420DD1086810F4405013
:105420002BD0B0F5805F2CD0B0F5005F27D0B0F561
:10543000405F0FD127E0494B98420BD1086810F428
:1054400040401AD0B0F5804F1BD0904217D0B0F535
:10545000404F18D01021E0694FF6EF7690423AD1D4
:10546000092961D202E00CE009E006E0DFE801F082
:105470000D10255C285C5C5C2B000021EBE7022111
:10548000E9E70421E7E70821E5E7FDF743F901E053
:10549000FDF750F96168400000EB5100B0FBF1F0FE
:1054A00080B2A0F11001B1423ED84FF6F0732168EE
:1054B000C0F342021840104326E02949606805E025
:1054C000FDF748F9E6E760684FF4803101EB5001E1
:1054D000B1FBF0F0E4E7092926D2DFE801F0050886
:1054E00017251C2525251F00FDF714F901E0FDF700
:1054F00021F9616800EB5100B0FBF1F080B2A0F13E
:105500001001B14210D82168C8600EE060681549EA
:1055100001EB500105E0FDF71DF9EAE7606802EBD9
:105520005001B1FBF0F0E9E701250020206660663C
:105530002846BDE8F0810000F369FFEF001001404C
:10554000903802400044004000480040004C0040B9
:10555000005000400014014000780040007C0040F2
:105560000048E8010024F4002DE9F0479A46174668
:105570000E460446089D4FF000094FF0200839E020
:10558000681C37D0FCF75EF8A0EB0A00A84222D8CE
:105590000DB32068016849072CD5C069C0430005D8
:1055A00028D423684FF40061196221680B6823F442
:1055B000D0730B6021688B6823F001038B60C4F803
:1055C0007480C4F87880C4F87C8000BF032084F81D
:1055D0007090BDE8F08721680B6823F4D0730B60EE
:1055E00021688B6823F001038B60C4F87480C4F8D1
:1055F0007880EBE72068C06936EA000004D000201C
:10560000B842BDD00020E4E70120F9E770477047B9
:10561000704770472DE9F041D0F8C4220C46D0F80D
:10562000BC12F1B104EB8403002600EB8305AB69E7
:105630004BB1C4EBC40702EB8702526CB3FBF2F729
:1056400002FB17327AB1C1F814622246D0F8C002C8
:105650000369D1F8080201F5047198470020BDE8FC
:10566000F0810320FBE7002321461A46AE6100F0DB
:1056700064FCF3E770B5D0F8BC4205466CB100F0AD
:1056800066FBC4F80C0204F50371D5F8C002C268C9
:10569000D4F804029047002070BD032070BD70B59F
:1056A00000260446812100F0AEFA002520460121A3
:1056B000258700F0A8FA82212046A4F8785100F04E
:1056C000A2FAD4F8BC02A4F84C50A4F84E5048B149
:1056D000D4F8C00204F52F7440688047206801F0B8
:1056E000B7FB2560304670BD10B5D0E9AF4159B168
:1056F00094F80002FF2807D08B68214694F8012215
:105700009847FF2084F80002002010BD0A21018084
:105710000048704780000020432101800048704706
:10572000D000002043210180004870478C000020F9
:105730004321018000487047140100202DE9F04703
:1057400004464FF4077001F03DFC05004FF00007E0
:1057500035D0207C01264FF400794FF01008C4F8B2
:10576000BC5280B3402320460222812100F03CFB42
:105770004023268702222046012100F035FBA4F8B1
:1057800078610823032220468221A4F84E8000F08D
:105790002BFBA4F84C60D4F8C00200688047C5F821
:1057A0001472C5F81872207CD5F80422A8B14023E1
:1057B0002046012100F024FB0020BDE8F0870220F4
:1057C000C4F8BC72F9E7FFE702224B46812120466C
:1057D00000F00AFB4B462687CCE74B46E8E710B5BE
:1057E000D0F8BC1251B1027C002AD1F8042207D0B3
:1057F0004023012100F004FB002010BD032010BD58
:105800004FF40073F5E719B1C0F8C01200207047DB
:1058100003207047D0F8BC02C0F804120020704783
:10582000D0F8BC02C0F81022C0F80812002070475F
:105830002DE9FC4105460C4600200646D5F8BC7211
:105840008DF80000ADF80400087810F0600122D057
:1058500020293ED1E288B2B1000608D5D5F8C002B1
:105860003946836860789847E288394629E060784D
:10587000394687F80002A07987F801022846E288B5
:1058800000F052F82AE0D5F8C002002221468368D1
:105890006078984722E0607830B101281ED00A284D
:1058A00009D00B2815D110E095F89C02032810D1DF
:1058B000022201A905E095F89C02032809D10122E2
:1058C0006946284600F04AF808E095F89C0203284B
:1058D00004D02146284600F01CF803263046BDE8D7
:1058E000FC8110B5D0F8B8220AB152689047002068
:1058F00010BD13460A46002110B500F081FA0020C1
:1059000010BD13460A46002110B500F016FB00201A
:1059100010BD10B58021044600F0F4FA2046BDE821
:105920001040002100F0EEBA10B5C0F85821032352
:10593000C0F894321346C0F85C210A46002100F0FA
:105940005FFA002010BD0521002310B51A46C0F8EB
:105950009412194600F054FA002010BD10B582616F
:105960000223C0F894321346C2610A46002100F0B7
:10597000E4FA002010BD0421002310B51A46C0F837
:105980009412194600F0D9FA002010BDF8B504466B
:105990000D460020ADF800004888010A08295FD2B2
:1059A000DFE801F05E0409175E5E3C45D4F8B412EE
:1059B000207C0A6819E0207C02260028D4F8B8026E
:1059C00005D0C16A684688470146467039E0816A59
:1059D000F8E7C0B2062843D2DFE800F0030A10144B
:1059E000181CD4F8B402426805E0694690471CE0F0
:1059F000D4F8B402826892B3207CF6E7D4F8B402FB
:105A0000C268F8E7D4F8B4020269F4E7D4F8B40243
:105A10004269F0E7D4F8B4028269ECE7207CF0B97F
:105A2000D4F8B802416B68468847014609E0207CFB
:105A3000A8B9D4F8B802016B684688470146072028
:105A40004870EA888AB1BDF8000040B1824200D9AE
:105A500002462046ADF80020FFF780FFF8BDFFE7C3
:105A600029462046FFF755FFF8E72046FFF783FF5A
:105A7000F4E770B500284FF000051ED004462E460E
:105A800002E0761C641CF6B22378002BF9D10224C4
:105A900004EB4604148012786B1C03264A5500243C
:105AA000AA1CCE5406E0551C8B54EAB2531C401C71
:105AB0008C54DAB20378002BF5D170BD01004FF0A1
:105AC000000004D0012901D0022901D00320704731
:105AD0000120704704A00A46024910B5FFF7C9FF2C
