:020000040800F2
:1000000030280020F5010008BF2E000859290008FB
:10001000BD2E00087B0300088D580008000000007A
:10002000000000000000000000000000713800081F
:10003000C1030008000000004B30000873380008BE
:100040000F0200080F0200080F0200080F0200084C
:100050000F0200080F0200080F0200080F0200083C
:100060000F0200080F0200080F0200080F0200082C
:100070000F0200080F0200080F0200080F0200081C
:100080000F0200080F0200080F0200080F0200080C
:100090000F0200080F0200080F0200080F020008FC
:1000A0000F0200080F0200080F0200080F020008EC
:1000B0000F0200080F0200080F0200080F020008DC
:1000C0000F0200080F0200080F0200080F020008CC
:1000D0000F020008654100086741000869410008F7
:1000E0000F0200080F0200080F0200080F020008AC
:1000F0000F0200080F0200080F0200080F0200089C
:100100000F0200084D3000080F0200080F0200081F
:10011000A73D00080F0200080F0200080F020008A8
:100120000F0200080F0200080F0200080F0200086B
:100130000F020008000000000000000000000000A6
:100140000000000000000000000000000F02000896
:100150000F0200080F0200080F0200086B410008A0
:100160000F0200080F0200080F0200080F0200082B
:100170000F020008C12E000800000000000000006F
:100180000F0200080F0200080F020008A93D000836
:100190000F0200080F020008000000000F02000814
:1001A0000000000000000000000000000F02000836
:1001B0000F0200080F02000800000000000000000D
:1001C000000000000000000000000000000000002F
:1001D0000000000000000000000000000F02000806
:1001E000DFF80CD000F08CF80048004721590008D7
:1001F000302800200648804706480047FEE7FEE713
:10020000FEE7FEE7FEE7FEE7FEE7FEE7FEE7FEE7C6
:1002100025390008E10100082DE9F05F05460020BE
:1002200092469B4688460646814640241BE0284667
:1002300041464746224600F053F853465A46C01AF4
:10024000914110D311461846224600F03AF82D1A73
:1002500067EB01084F4622460120002100F031F8EB
:1002600017EB00094E41201EA4F10104DFDC4846D3
:1002700031462A464346BDE8F09F40EA01039B070A
:1002800003D009E008C9121F08C0042AFAD203E00B
:1002900011F8013B00F8013B521EF9D27047D2B26F
:1002A00001E000F8012B491EFBD270470022F6E75F
:1002B00010B513460A4604461946FFF7F0FF2046DC
:1002C00010BD202A04DB203A00FA02F1002070471A
:1002D0009140C2F1200320FA03F319439040704784
:1002E000202A04DB203A21FA02F00021704721FA8B
:1002F00002F3D040C2F120029140084319467047F2
:10030000064C074D06E0E06840F0010394E8070062
:1003100098471034AC42F6D3FFF766FF885A0008BE
:10032000A85A000870B58C1810F8015B15F0070387
:1003300001D110F8013B2A1106D110F8012B03E07E
:1003400010F8016B01F8016B5B1EF9D12B0705D486
:100350000023521E0DD401F8013BFAE710F8013BCF
:10036000CB1A921C03E013F8015B01F8015B521EEB
:10037000F9D5A142D8D3002070BDFEE70020704718
:100380000020704705490022054810B503F0E4FF3E
:100390000449034803F0DAFF002010BD30180020A4
:1003A00090070020301000200146044810B503F0EB
:1003B000CDFF024803F0ACFF002010BD90070020E5
:1003C00070477047F0B5D1E90125D1E90343D1E980
:1003D00005762A43D1F800C044EA0304D1E9073581
:1003E00042EA0402496A42EA0702BCF1010F42EA0A
:1003F000060208D004681A432A430A43E30BDB03CE
:100400001A4302600BE0066844682B4326F4F84563
:1004100029430B4303606FF30E0422434260002024
:10042000F0BD00002DE9F043914691E81C006FF00B
:100430000F05521E2E0105EB03131A430B7E06EB2C
:1004400004268C8A2F034FEA054C0D8A32434FF065
:100450007F4808EB0366CB68B9F1010F07EB054550
:100460000CEB04540CD081683F1107EB03331A43A3
:100470002A432243324301F070410A43826011E073
:100480008168DFF828C0C7681B03A3F580532343A6
:100490002A4301EA0C0132430B43836007F07044A6
:1004A0002243C2600020BDE8F0830000FF0F0FFF71
:1004B00070B5044600F052F90546601C02D00448AD
:1004C0000078044400F04AF9401BA042FAD370BD02
:1004D000780000202DE9F04186B014216846FFF72E
:1004E000E5FE24480168002940D14FF00108C0F81A
:1004F00000802148016841F0010101600068022488
:100500000025694600F00100059003264FF63F00E4
:100510000C278DE8F100194800F03CF801AACDF84D
:1005200000801748694682E8F00000F033F848F28E
:10053000371069468DE8F100124800F02BF84FF4AF
:10054000F06069468DE8F1000F4800F023F84CF2A6
:10055000030069468DE8F1000C4800F01BF86020AC
:1005600069468DE8F1000A4800F014F806B0BDE8CD
:10057000F081000070000020383802400014024072
:10058000000802400018024000100240000C024027
:10059000000402402DE9F84FDFF888E100224FF017
:1005A00001084FF0030B4FF00F0A00BF0B6808FA69
:1005B00002F42340A34271D14D68022D01D0122DC7
:1005C0000FD1D5080E69570700EB8505A9462D6A9E
:1005D000FF0E0AFA07FCBE4025EA0C052E43C9F8B7
:1005E00020600F79550006680BFA05FC07F0030739
:1005F00026EA0C06AF40374307604E68012E05D04F
:10060000022E03D0112E01D0122E0ED18668CF6893
:1006100026EA0C06AF403743876046680F79A64349
:10062000C7F30017974037434760C4688E6824EAD1
:100630000C04AE402643C6604C68E4006BD53A4CCF
:10064000256845F480452560246822F00306950757
:1006500004F480440094354C2D0F2644D6F8084805
:10066000DFF8CCC00AFA05F7604524EA070401D197
:10067000002724E02F4FB84201D101271FE02E4F61
:10068000B84201D102271AE02C4FB84201D103270A
:1006900015E02B4FB84202D1042710E03BE0294F70
:1006A000B84201D105270AE0274FB84201D10627F9
:1006B00005E0264FB84201D1072700E00827AF40E8
:1006C00027437546C6F808784E68DEF80040F60302
:1006D00024EA030400D51C43124E2C60361D4D68DD
:1006E0003468AD0324EA030400D51C430D4D346087
:1006F00008354E682C68F60224EA030400D51C4332
:10070000084E2C600C364D683468AD0224EA0304B0
:1007100000D51C433460521C102AFFF447AFBDE8DB
:10072000F88F0000003C0140443802400030014096
:10073000000002400004024000080240000C024099
:10074000001002400014024000180240001C024049
:100750000AB1816170470904FBE700000148806825
:100760007047000078000020024881680278114438
:100770008160704778000020094810B5016841F495
:1007800000710160016841F480710160032000F094
:100790006FF8002000F006F800F024F8002010BDEB
:1007A000003C024070B50D4D04464FF47A700C4A7F
:1007B00029781268B0FBF1F0B2FBF0F001F08CFD8B
:1007C00048B9102C07D200222146501E00F030F804
:1007D00000206C6070BD012070BD0000780000201A
:1007E000840000200A4808B5016841F0805101608A
:1007F000006800F0805000900548001D016841F439
:1008000080410160006800F48040009008BD000055
:1008100040380240002809DB410900F01F0289002E
:10082000012001F1E0219040C1F800017047000073
:100830000E4BF0B41B680D46C3F30223C3F1070649
:10084000042E00D90426191D072901D2002300E037
:10085000DB1E012404FA06F19C40491E2940641E57
:10086000994014402143F0BC05F011B80CED00E0B4
:10087000064900F0070210B54FF6FF040868044B64
:10088000204040EA02201843086010BD0CED00E053
:100890000000FA0501680123C0F8FC33002280F84B
:1008A000F4238869044A40F000608861486D104371
:1008B00048650020704700000300001070B5164D19
:1008C0000446A1B1012911D12068D0F8001E41F0E1
:1008D0000101C0F8001ED4F8000404F0D7F8206A23
:1008E000002803D0286840F00600286070BD206A08
:1008F00028B102F0C1FF286820F0060028602068B7
:10090000D0F8001E21F00101C0F8001ED4F8000448
:10091000BDE8704004F05FB810ED00E0006841628F
:1009200000207047F0B503685D6A39B19F6A4C1EBC
:1009300000204FF4827605EB17450BE045EA0240B4
:10094000986210E0471C06EB800053F800C0F8B234
:1009500005EB1C45A042F5D34FF4807000EB8100FD
:1009600045EA02421A500020F0BDD0F8000403F01E
:100970009CBFC1EBC10200EB8202D0F80004926C74
:1009800003F0F1BEC1EBC10200EB8202D0F800041B
:10099000D2F8082203F048BFD0F8000403F087BF64
:1009A00001F00F020B0670B5C2EBC20104464FF016
:1009B00001004FF0000504EB810103D581F83D00F3
:1009C0003C3103E081F8FD5101F5FE710A7094F8A5
:1009D000BC23012A08D084F8BC03206804F01CFB67
:1009E000002084F8BC5370BD022070BD70B5426811
:1009F000044601F00F00904201D9012070BD01F0C2
:100A00000F024FF000050B06C2EBC2014FF00102CE
:100A100004EB810103D581F83D203C3103E081F8EE
:100A2000FD5101F5FE718D70087094F8BC0301282A
:100A300008D084F8BC23206804F0CAFC002084F8A5
:100A4000BC5370BD022070BD01F00F01C1EBC101AC
:100A500000EB8100D0F8140270472DE9F04101F05D
:100A60000F0604460D064FF00100C6EBC6014FF01D
:100A7000000504EB810103D581F83D003C3103E022
:100A800081F8FD5101F5FE714F788A60CB700E70D0
:100A900007B1CE80022B00D10D7194F8BC23012A3E
:100AA00009D084F8BC03206804F0CCF9284684F807
:100AB000BC53BDE8F0810220FBE770B501F00F05E3
:100AC0000C460026C5EBC50100EB8101C1F80822E8
:100AD000C1E9843681F8FD6181F8FC5101F5FE71B0
:100AE0000369012B00D10A612207027C006803D050
:100AF00004F0C6FC002070BD04F0B6FBFAE770B548
:100B00000D464168044605F00F00884201D90120D6
:100B100070BD29064FF000064FF0010207D5C0EB6B
:100B2000C00104EB810181F83D203C3107E0C5EBB9
:100B3000C50104EB810181F8FD6101F5FE718A7048
:100B4000087094F8BC03012807D084F8BC232068FF
:100B500004F06AFC280702D007E0022070BD217C67
:100B600004F57172206804F007FC002084F8BC636F
:100B700070BD2DE9F04101F00F050C460026C5EBD4
:100B8000C501012700EB81018A64C1E9143681F8AF
:100B90003D7001F83C5F0369012B00D10A61220717
:100BA000027C006804D004F06BFC0020BDE8F081FA
:100BB00004F05AFBF9E700002DE9FC5F04460068E9
:100BC000002681464D4604F074FD00287ED1206841
:100BD00004F09BFD002879D0206804F096FD800782
:100BE00004D52068416901F002014161206804F0E8
:100BF0008CFD01034FF0010B04F57170009077D567
:100C0000206804F061FDDFF838A407466EE0F807BD
:100C10006AD02068F1B204F070FD8046C00707D0AA
:100C200005EB4611C1F808BB3146204602F04EF9EB
:100C30005FEA087034D520682169012900EB46116C
:100C4000006C0190D1F8080B10D0FE4B019A9A422B
:100C500015D1000403D54FF40040C1F8080B20461D
:100C600000F0FAFA2069012810D014E0019A5245E8
:100C700005D9000403D54FF40040C1F8080B204605
:100C800000F0EAFA01985045ECD804E02068012110
:100C9000009A04F071FB05EB46110820C1F8080B1F
:100CA0005FEAC86004D505EB46111020C1F8080BB7
:100CB0005FEA88600FD52069012804D120680121EE
:100CC000009A04F059FB05EB461101E0C7E10FE083
:100CD0002020C1F8080B5FEA884005D505EB4611D6
:100CE0004FF40050C1F8080B7F08761C002F8ED1FE
:100CF000206804F00AFD40034FF0000A60D5206828
:100D000004F0DBFC0026074658E0F80754D02068C2
:100D1000F1B204F0E0FC8046C00726D0D5F83428B4
:100D200006F00F0C05EB46130BFA0CF08243C5F8E6
:100D30003428C3F808B92069012807D1C6EBC600DA
:100D400004EB8000D0E91121114481642046F1B206
:100D5000FFF70FFE2069012807D136B9206D20B9B1
:100D600020680121009A04F007FB5FEA087004D5AF
:100D700005EB46110820C1F808095FEAC86004D5F0
:100D800005EB46111020C1F808095FEA486004D558
:100D900005EB46114020C1F808095FEA887004D5C8
:100DA00005EB46110220C1F808095FEA086003D587
:100DB0003146204602F0F8F87F08761C002FA4D1B7
:100DC000206804F0A2FC002811DAD5F8040820F00D
:100DD0000100C5F8040894F8F40301283BD020462C
:100DE00000F01EFA2068416901F00041416120686D
:100DF00004F08BFC00050BD5D5F80808C00702D01D
:100E0000204600F045FA2068416901F40061416123
:100E1000206804F07AFC00010AD52068416901F0DD
:100E20000061416194F8F403E0B1204600F030FA2B
:100E3000206804F06AFCC0046AD5D5F8040820F0E4
:100E40000100C5F804082068102104F013FC0021FB
:100E50004FF67F3227E00021204684F8F4A3FFF705
:100E60002DFDBFE784F8F4B32068406D0121C0F385
:100E70008300C4F8F8032046FFF720FDD8E700BF41
:100E800005EB4110C0F80829D0F8003923F400130D
:100E9000C0F80039C0F8082BD0F8003B23F4001349
:100EA000C0F8003B491C60688842E9D8D5F81C08A6
:100EB00040F00110C5F81C08206B60B1D5F884081B
:100EC00040F00B00C5F88408D5F8440840F00B004A
:100ED000C5F844080CE0D5F8140842F22B01084389
:100EE000C5F81408D5F8100840F00B00C5F8100834
:100EF000D5F8000820F4FE60C5F80008217C2068C1
:100F0000009A04F039FA2068416901F48051416186
:100F1000206804F0FAFB800417D5206803F0D2FFA4
:100F2000206804F0B9FB58B30320E06000F0BEFC79
:100F3000227B0146206804F023FC204600F05AF989
:100F40002068416901F400514161206804F0DDFB33
:100F5000C00639D52168886920F010008861D9F869
:100F6000207007F00F01C7F34340C1EBC101022815
:100F700004EB810505F5FE7505D0062815D01EE0A9
:100F8000C4F80CA0D2E747F6F0710F4217D0C7F3B0
:100F90000A12E9681746484604F0BBFBA969E868ED
:100FA0003944A9613844E86009E0009908224846BC
:100FB00004F0AFFBA969C7F30A100844A8612068D0
:100FC000816941F010018161206804F09EFB0007F7
:100FD00007D5204600F028F92068416901F0080192
:100FE0004161206804F091FBC00208D52046F1B2AF
:100FF00000F037F82068416901F4801141612068F0
:1010000004F083FB800208D52046F1B200F02DF8F1
:101010002068416901F400114161206804F075FB0A
:10102000400007D52046FFF7A0FC2068416901F089
:1010300080414161206804F068FB40070FD503E060
:101040000A30544F0A31544F20684568680702D56A
:101050002046FFF7A1FC2068416829434160BDE8B4
:10106000FC9FD0F8000403F075BCD0F8000403F036
:1010700073BC00002DE9F04104008AB004D094F85C
:10108000BD03002520B108E001200AB0BDE8F081D1
:10109000204684F8BC5300F063F8032084F8BD03B5
:1010A000206804F0DBF804F1100168462822884625
:1010B000FFF7E3F894E80F0003F01EFF0227E0BB00
:1010C0002068002104F033FB0020012611E000BF5E
:1010D000C0EBC001421C04EB810181F83D6081F846
:1010E0003F504D648D640D6581F83C00A1F84200CD
:1010F000D0B261688142EBD8002011E0C0EBC001A2
:10110000421C04EB810181F8FD5181F8FF51C1F8C7
:101110000452C1F80852C1F8105281F8FC01D0B253
:1011200061688142EAD8282241466846FFF7A5F85F
:1011300094E80F0003F0C8FF10B184F8BD73A3E773
:10114000606A84F8385084F8BD63012802D12046D3
:10115000FFF7A0FB206803F0ABFF002095E700003D
:1011600030B587B0044614216846FFF79FF81E4942
:101170002068884236D11D4C206840F00200206073
:1011800020680221002200F00200059003230C25B4
:101190004FF440408DE82F0015486946FFF7FAF9F3
:1011A00012481430016841F000410160006800F00D
:1011B00000400590206840F000502060206800F05A
:1011C00000500590206840F0804020602068002298
:1011D000114600F0804005904D20FFF729FB4D207F
:1011E000FFF718FB07B030BD000004403038024064
:1011F0000004024070B50446C068012570B10228A1
:1012000001D0FFF7DEF8D4F80004294603F0F5FB1F
:10121000D4F80004BDE8704003F0B5BB0025F2E748
:10122000D0F8000403F0D7BBD0F8000403F0D9BB1A
:1012300010B5044690F8BC0301280BD0012084F8B7
:10124000381084F8BC03206804F088FA002084F881
:10125000BC0310BD022010BDD0F8002400F5717150
:10126000104603F0D6BB10B5044690F8BC03012825
:101270000CD0012084F8BC03206803F00DFF206827
:1012800004F0E2F9002084F8BC0310BD022010BD78
:1012900010B50446D0F8000403F0F8FB2068D0F83D
:1012A000001E41F00101C0F8001E206A002804D091
:1012B0000248016841F00601016010BD10ED00E038
:1012C0001848F8B5016841F0805101600068164C7B
:1012D00000F080500090206840F480302060FFF7DC
:1012E0003DFA4FF47A76054605E000BFFFF736FA7F
:1012F000401BB0420FD86068C003F7D5206840F4A7
:1013000000302060FFF72AFA054606E0FFF726FACC
:10131000401BB04201D90320F8BD60688003F5D5B9
:101320000020F8BD40380240007000402DE9F84F21
:1013300004460078DFF81C944FF000073E46C007D3
:101340000ED0D9F8001021F40001C9F80010D9F826
:101350000010E26A1143C9F80010E06A00B90127E1
:10136000FC4D2068843500030ED5616B286820F49D
:10137000401008432860606BB0F5801F01D010B1A9
:1013800002E0012700E0012620684FF4800BC00234
:101390000CD5A16B286820F4400008432860A06B9E
:1013A000584501D1012701E000B9012620788006C7
:1013B00067D5E8483830016841F080510160006825
:1013C000DFF894A300F080500090DAF8001041F4A8
:1013D0008071CAF80010FFF7C1F9804606E000BF2F
:1013E000FFF7BCF9A0EB080064287DD8DAF800000C
:1013F000C005F5D5DFF85C8308F16808D8F800006F
:1014000010F440702AD0218D01F44071814225D022
:10141000D8F80010D8F8002021F4407142F480324E
:10142000C8F80020D8F8002022F48032C8F8002044
:10143000C8F80010D8F80000C0070FD0FFF78EF9E9
:10144000824607E0FFF78AF9A0EB0A0141F28830F3
:101450008142CAD8D8F800008007F3D5A06AC0F34B
:10146000012103297ED0D9F8001021F4F811C9F820
:101470000010228DD8F80010C2F30B021143C8F8F7
:1014800000102078C00607D5286820F080702860FA
:101490002868216B084328602188AE4888304904B9
:1014A00005D5E26D016821F44031114301602188C6
:1014B000090405D5226E016821F440211143016021
:1014C0002168C90305D5626E016821F440111143FA
:1014D00001602178490605D5E26B016821F003011E
:1014E00011430160217800E00BE1090605D5226C6B
:1014F000016821F00C01114301602188C90505D55F
:10150000626C016821F03001114301602188890576
:1015100005D5A26C016821F0C0011143016021884A
:10152000490505D5E26C016821F440711143016061
:101530002188090505D5226D016821F44061114318
:1015400001602188C90405D5626D016821F440510C
:10155000114301602188890407D5A26D016821F437
:10156000404100E034E01143016021684FF0006A1F
:10157000890209D5626F016821F0006111430160A1
:10158000616F514500D101262168490305D5E26EFE
:10159000016821F04071114301602168090205D5FD
:1015A000A26F016821F08051114301602168490157
:1015B00005D5E26F016821F0005111430160DFF8A9
:1015C0009C91012F0ED02068B0F1007F0AD06EE010
:1015D000634AD9F80030104023F4F8120243C9F8E6
:1015E000002046E7D9F800004F4620F08060C9F897
:1015F0000000FFF7B3F8804606E000BFFFF7AEF843
:10160000A0EB080064287CD838680001F6D4217863
:1016100050487C30C9070DD0E16A59B9227A616817
:10162000D0F800C08B01CCF3036143EA016141EAC9
:101630000271016021680A0303D5626BB2F5801F55
:1016400004D0C90214D5A16B594511D1237B62681E
:1016500001689201C1F3027142EA036242EA017138
:1016600001602968E26921F01F01521E11432960BF
:101670002168890108D56168227B237A890141EAC2
:10168000026141EA037101603968B84641F0806146
:101690003960FFF763F8074605E000BFFFF75EF823
:1016A000C01B642863D8D8F800000001F6D54EB3FB
:1016B000D9F800004E4620F08050C9F80000FFF72E
:1016C0004DF8074605E000BFFFF748F8C01B642847
:1016D0004DD83068C0438000F6D51E482168803060
:1016E0000A0301D5626B1AB1C90219D5A16BB9B948
:1016F00023690168227D9B01C1F3014143EA014155
:1017000001E034E03AE041EA0261016029686FF0EB
:10171000FF03226A21F4F85103EB022211432960EE
:10172000216889020DD5616F51450AD1228B21694B
:101730000368890141EA0242C3F3036142EA01619D
:101740000160306840F080503060FFF707F80446D1
:1017500010E00000083802400070004000380240ED
:10176000FFFCFF0FFEF7FAFF001B642802D90320DD
:10177000BDE8F88F3068C0438000F3D40020F7E75D
:101780002DE9F04705000F4663D0444E306800F065
:101790000F00B84209D2306820F00F0038433060A3
:1017A000306800F00F00B84253D128683C4C8107E4
:1017B00012D5400703D5206840F4E0502060287817
:1017C000000703D5206840F460402060A9682068C5
:1017D00020F0F000084320602878C0072AD0304964
:1017E00068680839012810D00968022810D08907D4
:1017F00000292EDA216821F0030101432160FEF760
:10180000ADFF804641F288390DE009688903EFE7B2
:101810008901EDE7FEF7A2FFA0EB0801494502D9D7
:101820000320BDE8F0876868216801F00C01B1EB86
:10183000800FEFD1306800F00F00B8420BD930684C
:1018400020F00F0038433060306800F00F00B842DD
:1018500001D00120E5E72878400705D5E968206830
:1018600020F4E050084320602878000706D5286956
:10187000216821F4604141EAC000206000F03CF89A
:101880002168084AC1F30311515CC8400649086049
:101890000020FEF787FF0020C3E70000003C024065
:1018A00008380240705A000884000020014800688F
:1018B000704700008400002004490548096800685A
:1018C000044AC1F38221515CC84070470838024085
:1018D00084000020805A000804490548096800680F
:1018E000044AC1F34231515CC84070470838024095
:1018F00084000020805A0008154910B51548096871
:1019000011F00C0213D01449042A0FD0082A0ED16A
:101910000F4C241F2268236802F03F025B0207D5A8
:101920002068C0F38810A0FB010106E0084610BD46
:101930002168C1F38811A1FB00010023FEF76CFCB4
:101940002168C1F30141491C4900B0FBF1F010BD11
:10195000083802400024F40000366E012DE9F84FEB
:1019600005004FF000076ED02878DFF81C93A9F12E
:10197000040AC007AAF104044CD0D9F80010484664
:10198000C1F38101012908D00068C0F38100022859
:101990000AD1DAF80000400206D52068800339D564
:1019A00068680028DFD035E06868B0F5803F0BD06C
:1019B00010B1B0F5A02F11D0206820F48030206045
:1019C000206820F4802002E0206840F4803020600D
:1019D000686890B1FEF7C2FE06460AE0206840F44F
:1019E00080202060F0E700BFFEF7B8FE801B64286F
:1019F00072D820688003F7D50CE0FEF7AFFE0646EC
:101A000005E000BFFEF7AAFE801B6428F0D820681E
:101A10008003F7D42878800742D5D9F800104846CB
:101A200011F00C0F08D00068C0F3810002280BD120
:101A3000DAF80000400207D42068800718D5E8686B
:101A4000012800D114E01CE1E8680028206817D0C4
:101A500040F001002060FEF781FE064605E000BF71
:101A6000FEF77CFE801B0228C2D820688007F7D5CD
:101A70002869216821F0F80141EAC00020600FE0E8
:101A800020F001002060FEF769FE064605E000BF79
:101A9000FEF764FE801B02281ED820688007F7D45A
:101AA0002878000729D5784869696C300029804674
:101AB000016812D041F001010160FEF74FFE0646B9
:101AC00005E000BFFEF74AFE801B022804D8D8F8C4
:101AD00000008007F6D510E089E021F001010160E7
:101AE000FEF73CFE064604E0FEF738FE801B0228A7
:101AF0007DD8D8F800008007F6D4287840076BD549
:101B0000DFF8848108F13808D8F80000C0000BD451
:101B1000D8F8001041F08051C8F80010D8F8000043
:101B2000012700F08050009058480168C90512D480
:101B30000168834641F480710160FEF70FFE06469E
:101B400005E000BFFEF70AFE801B64284FD8DBF8D3
:101B50000000C005F6D54C4EA868683601280AD0AA
:101B600008B1052811D0306820F0010030603068DD
:101B700020F0040002E0306840F001003060A86806
:101B8000A0B1FEF7EBFD83460CE0306840F00400A6
:101B90003060F0E7FEF7E2FDA0EB0B0141F2883088
:101BA000814266D830688007F4D50EE0FEF7D6FD96
:101BB000834607E0FEF7D2FDA0EB0B0141F288302F
:101BC000814256D830688007F4D42FB1D8F800107D
:101BD00021F08051C8F80010A869C8B3D9F80010E6
:101BE000C1F3810102294CD00228206800E040E0C6
:101BF00020F08070206003D0FEF7B0FD05463BE08A
:101C0000FEF7ACFD064604E0FEF7A8FD801B0228A7
:101C10002FD820688001F7D4D5E90962D5E90701FA
:101C20001B4B570895F82C20084303EB074343EA66
:101C30008611084340EA026040F00050CAF80000F4
:101C4000206840F080702060FEF788FD054606E0C1
:101C500015E000BFFEF782FD401B022809D820686E
:101C60008001F7D50BE000BFFEF778FD401B02288E
:101C700002D90320BDE8F88F20688001F4D4002049
:101C8000F8E70120F6E70000083802400070004045
:101C90000000FFFF70B504000D4603D094F82C003F
:101CA00010B107E0012070BD002084F82D0020460F
:101CB00000F011F8022084F82C002068211DFEF7A6
:101CC00081FBD4E900022946FEF7ACFB012084F831
:101CD0002C00002070BDFEF7FDBBFEB504460D468E
:101CE000416C032084F83400032920D0B5F5805FCF
:101CF0001DD0B5F5006F05D045B1A06B40F0006078
:101D0000A06309E0204601F08CFD02E0204601F0CE
:101D100061FDA16B0143A163A06B012658B121684D
:101D200040F2FF50886384F834600120FEBDA06B50
:101D300040F08050E4E7211DD4E905070EC9CDE944
:101D400000500297206801F0EBFB84F8346000201B
:101D5000FEBDF0B5426E120E93090B70C2F3830400
:101D600002F003024C708A70426E120CCA70B0F816
:101D70006420120A0A7190F864204A714FF6FF73CA
:101D8000826E120E03EA0212CA80CB88826EC2F300
:101D9000074214092343CB8002F00F020A72B0F805
:101DA00068200025C2F30722D3094B72C2F38014C6
:101DB000C2F34016C2F300178C72CE720F734D73CC
:101DC0000123446C4FF400766CB1012C46D00268BC
:101DD00040F2FF519163816B41F08051816380F843
:101DE00034300120F0BD9207120D0A610C6990F8A1
:101DF000682044EA82020A610C69C26E120E9709D9
:101E0000C2F3C20C3C430C6102F0070281F814C01B
:101E10004A75C26EC2F30742940757098F75640F63
:101E2000C2F38202CA750C760A7EB0F86C40C4F325
:101E3000072442EAD4120A760A69521C42650F7ED0
:101E4000BF1CBA4042650F7A03FA07F787654FEA6D
:101E5000572C02FB0CF2C0E917261CE090F8682012
:101E60009206920A0A610C69C26E120E44EA0222BC
:101E70000A610C69C26EC2F3074214430C610A691D
:101E8000B0F86C40521C4FEA82224265C4F307242A
:101E9000C0E916620666C4F380124FEA84644A768B
:101EA0004FEA54648C7690F86C208C7E4FEAD21600
:101EB00002F07F0244EA06048C76CA7650F8702F4E
:101EC0004FEA12624FEAD2140C77C2F34116C2F302
:101ED00082074FEA82724E778F774FEA1272CA7783
:101EE000CC7F0268C2F3074244EA9214CC77C2F373
:101EF000401602F0010281F8206081F8215081F83B
:101F000022200288C2F307224FEAD21481F823402C
:101F1000C2F38015C2F34016C2F30017C2F3810C5E
:101F200002F0030281F8245081F8256081F82670C0
:101F300081F827C081F8282000784FEA500081F806
:101F4000290081F82A304FF00000F0BD70B5040080
:101F500004D094F83400002510B105E0012070BDD4
:101F60002046257700F03CF8032084F83400204612
:101F700000F007F80120A563256384F834000020F1
:101F800070BD3EB504467620002100910B460A46FE
:101F9000CDE90110206801F0C3FA2068416821F4FE
:101FA00080714160206801F0CCFA2068416841F4FA
:101FB000807141600220FEF77BFA204601F0B7FBFA
:101FC0004FF0010520B9204601F03EFB002805D066
:101FD00084F83450A16B0143A16301203EBD000091
:101FE000F0B587B0044614216846FEF75FF91E4934
:101FF0002068884235D11D48016841F400610160C4
:10200000006800F40060059018481438016841F039
:1020100004010160016801F004010591016841F0CB
:1020200008010160006802240025694600F00800EC
:10203000059003260C274FF4F8508DE8F1000C486A
:10204000FEF7A8FA042069468DE8F1000948FEF77A
:10205000A1FA002209213120FEF7EAFB3120FEF728
:10206000D9FB07B0F0BD0000002C0140443802400D
:1020700000080240000C02402DE9F047040005D0A2
:1020800094F85D000025A56218B107E00120BDE8C5
:10209000F087204684F85C5000F050F8022284F863
:1020A0005D204FF4E0632068016821F04001016089
:1020B000E068984201D9002101E04FF48051B0F569
:1020C000706F02D0984200D0A5624FF00109266BD4
:1020D0002EB9984201D9226301E0C4F83090D4E9C6
:1020E0000468D4E90102278B46EA0806A36A104374
:1020F00007F4007830432668D4E907C240EA0800B4
:1021000040EA0C00CC460427104318433060D4F852
:102110001880666B606AE26807EA184723683043F4
:102120003A431043084358602068C16921F40061B4
:10213000C161256684F85DC00020A8E72DE9F04163
:1021400086B0064614216846FEF7B0F857490025C8
:1021500033680224564A143954480326052793420B
:1021600015D1026842F480520260006800F4805089
:102170000590086840F0010008600868694600F0B2
:1021800001000590E0208DE8F1004A482EE0474A22
:10219000DFF824C1DFF82481121F63452BD11068BA
:1021A00040F480401060106800F48040059008689A
:1021B00040F004000860086800F00400059008681A
:1021C00040F002000860086801AB0094694600F026
:1021D0000200CDE9047083E870003948FEF7DAF9AF
:1021E0004FF4806069468DE8F1004046FEF7D2F971
:1021F00006B0BDE8F081DFF8CCC0634523D110689C
:1022000040F400401060106800F400400590086839
:1022100040F00200086008680721474600F002000D
:1022200005900420CDE903618DE831006946404600
:10223000FEF7B0F908200621CDE903618DE83100F1
:1022400069463846D2E7204A934215D1026842F4E3
:1022500000520260006800F400500590086840F0E9
:10226000100008600868694600F0100005904420DE
:102270008DE8F1001548B9E7154A9342B8D10268D4
:1022800042F480120260006800F480100590086833
:1022900040F0200008600868694600F020000590C2
:1022A0004FF420708DE8F1000A489FE7443802405F
:1022B00000300140000002400038004000040240AD
:1022C00000080240003C0040003401400010024081
:1022D0000050014000140240401EB0F1807F10B554
:1022E00001D3012010BD4FF0E02460610F21601781
:1022F00003F0CDFA0020A0610721216110BD00008C
:102300002DE9F04390F83C20012A42D0012280F8C8
:102310003C2051F80C4BDFF880804FF0000991E829
:10232000680051E9022723F44073B1F80CC03B4325
:10233000CF6923F480631343026823F400632343CB
:1023400023F4805343EA050323F4005343EA0603CE
:1023500023F4804343EA07030C3923F470234245F6
:1023600043EA0C4302D00D4CA2420CD18D8C23F4D5
:102370007006D1E9073446EA055121F0807119430E
:1023800021F000732343536480F83C900020BDE8A3
:10239000F0830220FBE70000000001400004014040
:1023A00070B590F83C20012A24D0134C012580F808
:1023B0003C50022280F83D2002685368A242966891
:1023C00002D00E4CA24203D14C6823F47003234385
:1023D0000C6823F0700389681C435460002326F0C6
:1023E000800602683143916080F83D5080F83C30AF
:1023F000184670BD022070BD00000140000401407D
:1024000010B5040003D094F83D0010B107E001209E
:1024100010BD002084F83C00204600F00DF802209A
:1024200084F83D002068211D01F0A6FA012084F8FF
:102430003D00002010BD000010B586B004461421F8
:102440006846FDF733FF13492068884220D11248BF
:10245000016841F001010160006800F00100059091
:102460000D481438016841F0010101600068012342
:10247000022200F00100059000204FF480510091ED
:102480006946CDE90120CDE903030448FEF782F84F
:1024900006B010BD00000140443802400000024078
:1024A00070B5044690F83C00012817D0324B012546
:1024B00084F83C50022084F83D002268906818405F
:1024C00020F47F4090600868502830D00DDC202830
:1024D0004DD005DC98B310283BD148E0022070BDF8
:1024E000302844D0402834D139E0602828D07028E2
:1024F00006D0B0F5805F2CD0B0F5005F29D10AE09E
:102500004A682068D1E9021301F09CFA20688168CA
:1025100041F0770109E04A682068D1E9021301F02F
:1025200091FA2068816841F48041816011E0CA68B5
:102530004968206801F014FC2068502107E016E08B
:10254000CA684968206801F01CFC2068602101F01D
:1025500082FA002084F83D5084F83C0070BDCA68BF
:102560004968206801F0FCFB20684021EFE7226801
:1025700001461046EBE7000088FFFEFF10B586B06D
:10258000044614216846FDF791FE0E4920688842F2
:1025900016D10D48016841F0010101600068012376
:1025A000022200F00100059000204FF4807100919C
:1025B0006946CDE90120CDE903030448FDF7EAFFB0
:1025C00006B010BD0000014030380240000002405B
:1025D00070B5044690F83C0001280ED0012584F81F
:1025E0003C50022084F83D000C2A19D007DC5AB177
:1025F000042A0DD0082A1ED10EE0022070BD102A38
:1026000012D0142A17D113E0206801F02DFA12E03D
:10261000206801F063FA0EE0206801F09BFA0AE0FE
:10262000206801F0D3FA06E0206801F0FBFA02E02E
:10263000206801F023FB002084F83D5084F83C0022
:1026400070BD10B5040003D094F83D0010B107E050
:10265000012010BD002084F83C00204600F00CF85A
:10266000022084F83D002068211D01F085F9012039
:1026700084F83D00002010BD704770B5044690F806
:102680003C00012812D0012584F83C50022084F837
:102690003D00204601F01EFB00284FF0000007D04F
:1026A00084F83D5084F83C00012070BD022070BDCC
:1026B0002168CA6822F04002CA602168CA6822F410
:1026C0008042CA6084F83D5084F83C00002070BD10
:1026D00010B5040002D0606F10B107E0012010BDFA
:1026E000002084F87000204600F026F8242060675F
:1026F0002068016821F001010160204601F0D8FB4B
:102700000128ECD0606A10B1204601F04EFB206831
:10271000416821F4904141602068816821F02A01DC
:1027200081602068016841F0010101602046BDE838
:10273000104001F09EBB00002DE9F04387B0044635
:1027400014216846FDF7B2FD78490025246803236B
:10275000774F1039754A02267648BC424FF0080C74
:102760001ED1146844F400241460126802F400229C
:1027700005920A6842F001020A600968CDE9003654
:1027800001F00101CDE90253CDE904C16946FDF72D
:1027900001FF00220B213420FEF74AF8342021E00B
:1027A000654FBC4223D1106840F0004010601068B3
:1027B00000F000400590086840F0100008600868CC
:1027C0006946CDE9003600F01000CDE90253CDE9AD
:1027D00004C05A48FDF7DEFE00220F215320FEF709
:1027E00027F85320FEF716F807B0BDE8F083544FE2
:1027F000DFF83891BC424FF0070709F1040923D1F3
:10280000D9F8004044F01004C9F80040D9F800207D
:1028100002F0100205920A6842F001020A6009689B
:10282000CDE9025301F0010105914FF4C061049715
:10283000CDE900166946FDF7ADFE00220C212520EA
:10284000FDF7F6FF2520CDE7DFF8F88044451FD1DE
:10285000146844F400341460126802F400320592E3
:102860000A6842F001020A600968CDE9025301F0EA
:10287000010105910C210497CDE900166946FDF789
:1028800089FE00220D212620FDF7D2FF2620A9E790
:102890002D48844221D1106840F4802010601068D7
:1028A00000F480200590086840F00800086008687F
:1028B0006946CDE9025300F0080005904FF44070DE
:1028C0000497CDE900062148FDF764FE00220E21A1
:1028D0002720FDF7ADFF272084E71D48844283D1E0
:1028E000D9F8002042F02002C9F80020D9F80000F1
:1028F00000F020000590086840F0040008600868B7
:102900006946CDE9025300F004000590C020CDF8DF
:1029100010C0CDE900060F48FDF73CFE00220A2159
:102920004720FDF785FF47205CE700004038024064
:10293000004C004000000240007C004000100240BB
:10294000001001400044004000480040000C0240DC
:102950000014014000080240FEE70000F0B500232B
:102960000A251C463026372711E000BFB5EB107F43
:1029700002D906EB107C01E007EB107C01F813C0D4
:1029800001EB430C00015B1C8CF80140DBB293426D
:10299000ECD3F0BDF0B587B01C216846FDF786FC8E
:1029A000104808260E4B0022012740250360102105
:1029B00047608024C0E9022684614B01C0E90425F8
:1029C000C0E9073242628262009101910291039153
:1029D0000491059106916946FFF75CF907B0F0BDD7
:1029E000400100A05C0700202DE9F04F87B01421C2
:1029F0006846FDF75BFC5248016841F01001016038
:102A0000016801F010010591016841F004010160C5
:102A1000016801F004010591016841F020010160A5
:102A2000016801F020010591016841F08001016019
:102A3000016801F080010591016841F00101016028
:102A4000016801F001010591016841F00201016096
:102A5000016801F002010591016841F04001016047
:102A6000016801F040010591016841F00801016031
:102A700000684EF23006DFF8CC90002200F008002B
:102A8000314605904846FDF763FEDFF8BCA0002202
:102A900040215046FDF75CFEDFF8B0B00022102167
:102AA0005846FDF755FE43F60127294800223946CE
:102AB000FDF74EFE264801220221FDF749FE4FF4A4
:102AC0007158244800224146FDF742FE002400963A
:102AD000012569464846CDE901540394FDF75AFDA6
:102AE00040200090CDE90154694650460394FDF71B
:102AF00051FD10200090CDE90154694658460394D9
:102B0000FDF748FD00976946CDE90154104803944C
:102B1000FDF740FD03210220CDE90005CDE902418A
:102B20000B486946FDF736FDCDF800806946CDE9D2
:102B3000015408480394FDF72DFD07B0BDE8F08F60
:102B400030380240000802400014024000000240F9
:102B500000040240000C02400C48002130B40A4C32
:102B60004FF47062C0E900416315C0E902120161CF
:102B70000724C0E9051301624162C0E90A14016338
:102B8000416330BCFFF778BA0030014028020020D2
:102B900030B40C4D00210C484FF470642B150560C7
:102BA0005A10C0E90113C0E903410723C0E9051227
:102BB00001624162C0E90A130163416330BCFFF75F
:102BC0005BBA0000003800408C02002030B40C4D8D
:102BD00000210C484FF470642B1505605A10C0E9B1
:102BE0000113C0E903410723C0E9051201624162F4
:102BF000C0E90A130163416330BCFFF73DBA00002E
:102C0000003C0040F002002030B40C4D00210C4884
:102C10004FF470642B1505605A10C0E90113C0E928
:102C200003410723C0E9051201624162C0E90A13AA
:102C30000163416330BCFFF71FBA0000003401405C
:102C40005403002030B40C4D00210C484FF4706444
:102C50002B1505605A10C0E90113C0E90341072391
:102C6000C0E9051201624162C0E90A1301634163D0
:102C700030BCFFF701BA000000500140B80300204B
:102C800010B59EB00024142112A81A941B941C9411
:102C90001D94FDF70BFB1C2117940BA81894199495
:102CA000FDF704FB2C216846FDF700FB254824496D
:102CB000C0E900148460C460046144618461FFF76A
:102CC0009FFB4FF480501A901E481AA9FFF7E8FBAB
:102CD0001C48FFF7B6FC12AA0620702182E81300F8
:102CE000184812A915941694FFF7C7FC154817A9A0
:102CF000179418941994FFF753FB0B9400220C942B
:102D00000BA910480D940E940F9410941194FFF792
:102D10005FFC4FF400500094019401030294CDE94C
:102D2000044003940694CDE9074106486946099496
:102D30000A94FFF7E5FA0348FFF720FC1EB010BD28
:102D4000000001401C0400200A48002130B4084C57
:102D50000C224FF4E1330460C0E90131C160C0E9E5
:102D600004128161C1610162416230BCFFF7B0BCF5
:102D7000004C00405C0400200A48002130B4084C9C
:102D80000C224FF4E1330460C0E90131C160C0E9B5
:102D900004128161C1610162416230BCFFF798BCDD
:102DA000007C0040DC0400200A48002130B4084CBC
:102DB0000C224FF4E1330460C0E90131C160C0E985
:102DC00004128161C1610162416230BCFFF780BCC5
:102DD000001001405C0500200A48002130B4084C76
:102DE0000C224FF4E1330460C0E90131C160C0E955
:102DF00004128161C1610162416230BCFFF768BCAD
:102E000000440040DC0500200A48002130B4084C92
:102E10000C224FF4E1330460C0E90131C160C0E924
:102E200004128161C1610162416230BCFFF750BC94
:102E3000004800405C0600200A48002130B4084CDD
:102E40000C224FF4E1330460C0E90131C160C0E9F4
:102E500004128161C1610162416230BCFFF738BC7C
:102E600000140140DC06002010490122104810B572
:102E700001F052FC08B1FDF7A4FA0E490C4801F02C
:102E80002BFE08B1FDF79DFA0B49094801F054FAF1
:102E900008B1FDF796FA064801F076FE002803D047
:102EA000BDE81040FDF78DBA10BD00000000002005
:102EB000900700206401002060000020FEE77047BA
:102EC0000148FDF779BE00002C0A00202DE9F041F1
:102ED0000E46016904460068202301294FF4004290
:102EE000016C00EB4615D5F8080B08D02C4FB94201
:102EF0004FD1010449D500BFC5F8082B4DE05FEA6A
:102F0000007CDFF8A0C004F5717711D5614503D9C5
:102F1000000401D5C5F8082B2046FEF79DF920686E
:102F200001213A4602F028FA0820C5F8080B34E0DF
:102F30005FEA806E02D5C5F8083B2EE010F0280F3E
:102F40002BD1614501D90004D6D4D5F8102BC6EB9E
:102F5000C60004EB8000C2F31202D0F804128A1AF1
:102F6000C0F81422D0F808221144C0F808122046F4
:102F7000F1B2FDF707FD86B9D4F8100268B92068F0
:102F800001213A4602F0F8F907E0800601D5C5F8BC
:102F9000083B2046F1B2FDF7F5FC0020BDE8F081CA
:102FA0000A31544F0A30544F2DE9F84F0E46056848
:102FB0008146C1EBC60100EB8104D4E914203C3406
:102FC000904202D90120BDE8F88FA168101A814211
:102FD00000D20846C01C05EB461887081BE000BF5E
:102FE000A268A0EB010A524500D2924699F810104F
:102FF0000AF1030000911FFA8AF3E1688708284666
:10300000F2B202F031FCE16801EB0A00E060A16974
:1030100001EB0A00A061D8F8180980B2B84205D3C4
:10302000D4E90501814201D20028D9D1D4E90501B2
:10303000884208D8D5F83418012006F00F029040D5
:103040008143C5F834180020BDE77047704730B59C
:1030500085B00446372040220DF1080CCDE9001060
:1030600000236946150120468CE82C0000F070FA18
:10307000372141F28832204600F030F905B030BDEA
:1030800030B50B4A85B004462920114340220DF18A
:10309000080CCDE9001000236946150120468CE894
:1030A0002C0000F055FA204600F0CEF905B030BDF6
:1030B0000000108030B585B0044610200DF1080CDA
:1030C0008501CDE9001040226946002320468CE8A6
:1030D0002C0000F03DFA102141F28832204600F029
:1030E000FDF805B030BD30B585B00446062040225D
:1030F0000DF1080CCDE900100023694615012046AA
:103100008CE82C0000F024FA062141F28832204697
:1031100000F0E4F805B030BD30B585B005460024B8
:1031200069464FF48060009401940294CDE9034015
:10313000284600F00DFA0B4A4FF4FA5041F288315C
:103140001268B2FBF0F04843401E03D24FF000403B
:1031500005B030BD696B0906F6D540F2FF51204637
:10316000A963F5E78400002070B50821044685B006
:103170004FF4D5704026CA018DE84300002569460A
:10318000CDE90352204600F0E3F90F4A4FF4FA501C
:1031900041F288311268B2FBF0F04843401E02D27F
:1031A0004FF000450CE0616B11F0450FF6D0606BFD
:1031B000400701D5042502E0606B400600D5A663F8
:1031C00005B0284670BD00008400002030B585B0F1
:1031D000044640210DF1040C0720009200230D014C
:1031E0008CE82B006946204600F0B2F9072141F235
:1031F0008832204600F072F805B030BD10B586B0B8
:10320000044600210220C02243020493CDE90010AD
:10321000CDE902216946204600F09AF9204600F0E7
:10322000EBF806B010BD30B585B0044609200DF1AD
:10323000080CC022CDE90010002369464FF48065D8
:1032400020468CE82C0000F083F9204600F0D4F8EA
:1032500005B030BD10B586B00446002133204022B1
:10326000CDE90221CDE900101301694620460493FF
:1032700000F06EF9332141F28832204600F02EF83A
:1032800006B010BD30B585B00C46002105460320C0
:103290004022CDE90221CDE90010130169462846FC
:1032A000049300F055F903212246284600F0ECF87B
:1032B00005B030BD70B50A6842624A688262C46A6D
:1032C000D1E90225D1E9043624F0F7012A4333433A
:1032D0001A431143C162002070BD000010B5444C78
:1032E0004FF4FA532468B4FBF3F353435B1E02D24A
:1032F0004FF0004010BD426B12F0450FF6D0426B0C
:10330000520703D504218163084610BD426BD207E2
:1033100002D00121816303E00269D2B28A4201D066
:10332000012010BD40F2FF518163002100F0F2F84E
:103330003049084201D1002010BD002802DA4FF0C8
:10334000007010BD410001D5402010BD810001D5A5
:10335000802010BDC10002D54FF4807010BD010166
:1033600002D54FF4007010BD410102D54FF48060CA
:1033700010BDC10102D54FF4006010BD010202D59D
:103380004FF4805010BD410202D54FF4005010BDE3
:10339000810202D54FF4804010BDC10202D54FF426
:1033A000004010BD410302D54FF4003010BD810331
:1033B00002D54FF4802010BDC10302D54FF4002088
:1033C00010BD010402D54FF4801010BD410402D598
:1033D0004FF4001010BD810402D54FF4800010BDE1
:1033E000000702D54FF4000010BD4FF4803010BD2F
:1033F0008400002008E0FFFD124B4FF4FA5141F227
:1034000088321B68B3FBF1F15143491E02D24FF0E1
:1034100000407047426B12F0450FF6D0416B4907F0
:1034200003D50421816308467047416BC90703D067
:10343000012181630846704740F2FF5181630020FB
:1034400070470000840000200E4B4FF4FA5141F207
:1034500088321B68B3FBF1F15143491E02D24FF091
:1034600000407047426B12F0450FF6D0416B4907A0
:1034700003D5042181630846704740F2FF51816300
:10348000002070478400002030B51F4D4FF4FA53E0
:1034900041F288342D68B5FBF3F363435B1E02D21F
:1034A0004FF0004030BD446B14F0450FF6D0436B35
:1034B0005B0703D504218163084630BD436BDB07FE
:1034C00002D00121816303E00369DBB28B4201D0AA
:1034D000012030BD40F2FF518163002100F01AF855
:1034E00010F4604F04D0410406D54FF4005030BDB5
:1034F000000C1080002030BD000402D54FF4805035
:1035000030BD4FF4803030BD84000020006800F0F2
:1035100003007047084408B514300090006808BDE7
:1035200070B511434268049EDDE90554334347F604
:10353000FF6619432943B24321430A4342600020F6
:1035400070BD0321016000207047D0F880007047F3
:1035500070B50A688260C468D1E90125D1E90336F3
:10356000210B2A43334309031A431143C16000204E
:1035700070BD2DE9F04F89B00E460446FDF7EEF818
:103580000027009701970821834620683D46FFF7F2
:1035900091FD002835D1B4F8501020680904FFF7D8
:1035A00056FD00282DD14FF008084FF002094FF0CA
:1035B000010C421E3023CDE90228CDE90439CDE9C2
:1035C000067C206802A9FFF775FE2068FFF742FE1F
:1035D000002816D1EA4640F22A472068416B39425A
:1035E00012D1416B890204D5FFF7AFFF4AF82500DD
:1035F0006D1CFDF7B3F8A0EB0B00401CEDD14FF0B4
:10360000004009B0BDE8F08F416B090703D5C0F851
:1036100038800820F5E7416B890703D5C0F838905A
:103620000220EEE7416B890603D52021816308461D
:10363000E7E740F2FF518163009800BA706001989B
:1036400000BA30600020DCE710B590B004460120DD
:10365000ADF838002068FFF759FF002864D0606C8F
:10366000032842D02068FFF7C9FD00285AD12068FE
:103670000021FFF74FFF606704212068FFF74AFF32
:10368000A06708212068FFF745FFE0670C2120684C
:10369000FFF740FF616CC4F88000032925D0206843
:1036A0000EA9FFF7EFFD00283CD1606C03281CD069
:1036B000BDF83810216520680904FFF7B4FD002823
:1036C00030D120680021FFF725FF606604212068C3
:1036D000FFF720FFA06608212068FFF71BFFE066C8
:1036E0000C212068FFF716FF206704212068FFF7F0
:1036F00011FF000DE06403A92046FEF72AFBB4F891
:103700005000002302042068FFF760FD002809D163
:1037100004F1100007C88DE8070094E80F00FFF7D8
:10372000FFFE002010B010BD4FF08060FAE72DE9D9
:10373000F8430025044600950068FFF7EDFC0028DB
:103740001BD12068FFF710FD4FF080784FF6FF7611
:10375000E0B14FF08057A5640098B04200F101003D
:1037600000901BD020680021FFF771FC20B9206871
:103770000021FFF785FC10B13846BDE8F8832068CA
:103780000021FFF7C7FEC00FE6D020E00127A764A5
:103790000098B04200F10100009001D14046ECE7F2
:1037A00020680021FFF753FC0028E6D120684FF085
:1037B0008041FFF765FC0028DFD120680021FFF77A
:1037C000A9FEC10FE4D0400001D5676400E0656444
:1037D0000020D2E71CB50446002000900021019093
:1037E0002068FFF797FE800102D54FF400601CBDF2
:1037F00069462046FFF7BDFE0028F8D10198C003B6
:103800000CD5B4F8501020680904FFF720FC0028FC
:10381000EDD120680021FFF766FC1CBD4FF08060F1
:103820001CBD1CB5044600200090002101902068BA
:10383000FFF770FE800102D54FF400601CBD6946A1
:103840002046FFF796FE0028F8D1019840030CD5DA
:10385000B4F8501020680904FFF7F9FB0028EDD1F7
:1038600020680221FFF73FFC1CBD4FF080601CBDAB
:103870007047FCF779BF000070B5B2B0302120A8C6
:10388000FCF714FD14212CA8FCF710FD80216846DC
:10389000FCF70CFD2048016841F080510160006890
:1038A00000F0805031901D48016841F440410160B2
:1038B000006802250C2300F4404031900120D824F8
:1038C000820501040926CDE92652CDE9200128A967
:1038D00020A881E87800FEF741F8FDF7F1FC4FF4ED
:1038E000A050309000240F21CDE92E40CDE92C15B9
:1038F00007212CA8FDF744FF0F9414940848119455
:103900001E941094129416941D9400906846FDF72E
:103910000DFD32B070BD0000403802400070004024
:10392000C02BA000104A30B51048146800210F4B7E
:1039300044F470041460083305680D4A0D4C45F0DA
:103940000105056019600368051D1340074A0360FF
:103950000C322C600568E305034C25F480250560D6
:10396000803C1160236030BD88ED00E000380240EB
:10397000FFFFF6FE10300024F0B5274B4FF0804ECD
:10398000264D02689842264E264F274C09D0704596
:1039900007D0A84205D0B04203D0B84201D0A0421F
:1039A00005D1D1F804C022F070024CEA020298421C
:1039B0001BD0704519D0A84217D0B04215D0B842DC
:1039C00013D0A04211D0194DA8420ED0184DA842D4
:1039D0000BD0184DA84208D0174DA84205D0174D5E
:1039E000A84202D0164DA84203D1CD6822F44072FD
:1039F0002A434D6922F080022A43026098428A6875
:103A0000C2620A68826201D0A04201D109690163E1
:103A100001214161F0BD00000000014000040040B0
:103A200000080040000C004000040140004001403C
:103A3000004401400048014000180040001C0040C4
:103A40000020004042EA032283680A4323F47F41B6
:103A50000A4382607047826822F070020A4342F093
:103A60000701816070470000F0B5026ADFF860C0AE
:103A7000184F22F00102DFF860E00262066A426835
:103A8000836926F002060D68B8428C6803EA0C03CD
:103A900023F0030344EA060445EA030501D0704518
:103AA00005D1CB6824F00804234323F00404B84272
:103AB00001D0704505D122F44076D1E90532334377
:103AC0001A4342608561496841630462F0BD0000A9
:103AD0008FFFFEFF0000014000040140F0B5026AC4
:103AE000194E1A4C22F01002DFF864E00262056AF7
:103AF0004368826925F02005D1F808C0A0420F680C
:103B000002EA060222F4407245EA0C1542EA072254
:103B100001D0704506D1CE6825F0800545EA06152E
:103B200025F04005A04201D0704507D1D1E90546F6
:103B300023F4406343EA840343EA860343608261DB
:103B4000496881630562F0BDFF8FFFFE0000014000
:103B500000040140F0B5026A194F1A4E22F4807237
:103B6000DFF864E00262056A4368C26925F4007503
:103B7000D1F808C0B0420C6802EA070222F0030242
:103B800045EA0C2544EA020401D0704506D1CF680D
:103B900025F4006242EA072222F48065B04201D097
:103BA000704507D123F44052D1E9053642EA0312A9
:103BB00042EA06134360C4614968C1630562F0BD0F
:103BC0008FFFFEFF0000014000040140F0B5026AD3
:103BD000124B114F22F4805298420262046A4268EA
:103BE000C36924F400548E680D6803EA070323F4C4
:103BF000407344EA063443EA052302D0084DA84244
:103C000004D14D6922F4804242EA85124260C361C8
:103C1000496801640462F0BDFF8FFFFE00000140AF
:103C200000040140F0B5026ADFF844C022F480329B
:103C30000262056A4268446D25F400350E896045CC
:103C40000C4F0B6804EA070445EA064543EA0403FF
:103C500002D0094CA04204D14C6922F4803242EADD
:103C6000042242604365496881650562F0BD000039
:103C7000000001408FFFFEFF00040140F0B5026A22
:103C8000DFF844C022F480120262046A4268436D85
:103C900024F400140E8960450C4F0D6803EA0703F5
:103CA00044EA065443EA052302D0094DA84204D150
:103CB0004D6922F4802242EA8522426043654968C8
:103CC000C1650462F0BD000000000140FF8FFFFEEF
:103CD0000004014070B5D1E9002304681F4EA568B7
:103CE00025F070052B4333401A43A2604A6812F056
:103CF0000F0F30D11211082A2DD2DFE802F02C2C40
:103D00002C2C0B2127048A680068D1E90313FFF7E4
:103D100099FE20E00A68052A10D00268136A146A26
:103D200024F00104146202680C69916921F0F00129
:103D300041EA04119161006803620CE0012070BD4A
:103D40000A690068896800F00BF804E00A690068F5
:103D5000896800F016F8002070BD0000F8FFFEFF33
:103D600010B5036A046A23F00A0324F00104046214
:103D700084690B4324F0F00141EA0211816103627E
:103D800010BD10B5036A23F0100303628369046A4F
:103D900023F4704324F0A00443EA0232826144EA2F
:103DA0000111016210BD7047704790F82410C907D7
:103DB00006D00168836A4A6822F400321A434A60D6
:103DC00090F82410890706D50168C36A4A6822F46E
:103DD00080321A434A6090F82410490706D50168DA
:103DE000036B4A6822F480221A434A6090F8241038
:103DF000090706D50168436B4A6822F400421A435A
:103E00004A6090F82410C90606D50168836B8A6859
:103E100022F480521A438A6090F82410890606D54D
:103E20000168C36B8A6822F400521A438A6090F8D2
:103E30002410490611D50168036C4A6822F48012E7
:103E40001A434A60016CB1F5801F06D10168436CCA
:103E50004A6822F4C0021A434A6090F82410090606
:103E600006D50168826C486820F400201043486041
:103E7000704738B500250446C567FCF76FFC03465C
:103E80002068006800070BD56FF07E40009000228C
:103E900020464FF4001100F035F908B1032038BD79
:103EA0002020606784F87050A067002038BD0000B3
:103EB0002DE9F04104468068DFF818C2864F236878
:103EC000D4E90452E16928431E6800250A43834966
:103ED000104306EA0C0606431E604FF400422068B9
:103EE000E668436823F44053334343602368A6697C
:103EF000206AD3F808C030432CF4306606439E6035
:103F00002068B8420AD1086810F0030052D0012896
:103F10007BD002287AD003286ED186E0704B98427D
:103F20000AD1086810F00C0079D004287BD008284A
:103F300077D00C2860D178E06A4B98420AD10868A3
:103F400010F030006BD010286DD0202869D03028B8
:103F500052D16AE0644B98420AD1086810F0C00060
:103F60005DD040285FD080285BD0C02844D15CE081
:103F70005E4B98420DD1086810F440704FD0B0F5F8
:103F8000807F50D0B0F5007F4BD0B0F5407F33D16B
:103F90004BE0574B98420FD1086810F4406009D0AD
:103FA000B0F5806F3FD0B0F5006F3AD0B0F5406FFC
:103FB00022D13AE0012120E04E4B98420DD1086811
:103FC00010F440502BD0B0F5805F2CD0B0F5005FDE
:103FD00027D0B0F5405F0FD127E0474B98420BD177
:103FE000086810F440401AD0B0F5804F1BD09042C2
:103FF00017D0B0F5404F18D01021E0694FF6EF769A
:10400000904238D109295DD202E00CE009E006E0D7
:10401000DFE801F00D1027582A5858582D000021CC
:10402000EBE70221E9E70421E7E70821E5E7FDF7EF
:1040300043FC01E0FDF750FC0146D4F804004900C0
:1040400001EB5001B1FBF0F080B2A0F11001B142E0
:1040500038D84FF6F0732168C0F34202184010437D
:1040600024E026496068EBE7FDF746FCE4E760687A
:104070004FF48031E4E7092924D2DFE801F0050894
:1040800019231C2323231F00FDF716FC01E0FDF775
:1040900023FC0146D4F8040001EB5001B1FBF0F021
:1040A00080B2A0F11001B1420CD82168C8600AE0CA
:1040B00013496068F0E7FDF71FFCEAE7606802EB70
:1040C0005001EBE701250020206660662846BDE828
:1040D000F0810000F369FFEF0010014090380240CA
:1040E0000044004000480040004C004000500040A8
:1040F0000014014000780040007C00400048E801C6
:104100000024F4002DE9F041984617460E46044677
:10411000069D08E0681C06D0FCF720FBA0EB080019
:10412000A8420BD855B12068C06936EA000017D004
:104130000020B842EED00020BDE8F08121682020A8
:1041400000220B6823F4D0730B6021688B6823F086
:1041500001038B606067A067032084F87020EBE7A1
:104160000120E6E770477047704770472DE9F0413E
:10417000D0F89832D0F89022DAB101EB8104002512
:1041800000EB8404E6694EB1C1EBC10703EB870382
:104190005B6CB6FBF3F703FB176323B1C2F8145251
:1041A0000020BDE8F0810023E5611A4600F077FCAD
:1041B000F6E70220F5E770B5D0F89042054600F02A
:1041C00081FBC4F80C02D5F8900248B1D5F89402EE
:1041D00004F50371C268D4F804029047002070BD52
:1041E000022070BD70B500260446812100F0B2FAAD
:1041F000002520460121E56200F0ACFA822120462C
:10420000C4F8585100F0A6FAD4F89002256448B1D9
:10421000D4F8940204F5247440688047206801F0C3
:1042200057FB2560304670BD10B5D0E9A44159B1A7
:1042300094F80002FF2807D08B68214694F80122E9
:104240009847FF2084F80002002010BD0A21018059
:10425000004870478C0000204321018000487047CF
:10426000DC000020432101800048704798000020B6
:104270004321018000487047200100202DE9F041D2
:1042800001250446007C00264FF4007790B34023BC
:1042900020460222812100F061FB4023E5620222D8
:1042A0002046012100F05AFB082320460322C4F8CF
:1042B0005851822100F052FB4FF40770256401F041
:1042C000A1FBC4F89002F8B10546D4F89402006846
:1042D00080470020C5F81402C5F81802207CD5F8E4
:1042E000042298B140232046012100F043FB3046D0
:1042F000BDE8F081FFE702223B468121204600F025
:104300002DFB3B46E562CAE70126F0E73B46EAE7BC
:1043100010B5D0F8901269B1027C002AD1F80422BD
:1043200005D04023012100F025FB002010BD4FF4F3
:104330000073F7E7022010BD002902464FF002008B
:1043400003D04FF00000C2F894127047D0F89002EA
:10435000C0F8041200207047D0F89002C0F8102274
:10436000C0F80812002070472DE9FC4105460C46B4
:1043700000200646D5F890728DF80000ADF80400D4
:10438000087810F0600122D020293CD1E288B2B137
:10439000000608D5D5F894023946836860789847B6
:1043A000E288394627E06078394687F80002A0792C
:1043B00087F801022846E28800F04FF828E0D5F897
:1043C00094020022214683686078984720E0607854
:1043D00020B10A2809D00B2815D110E095F87402F5
:1043E000032810D1022201A905E095F874020328E0
:1043F00009D101226946284600F049F808E095F8FD
:104400007402032804D02146284600F01BF8022637
:104410003046BDE8FC8110B5D0F88C225268904738
:10442000002010BD13460A46002110B500F0A2FA84
:10443000002010BD13460A46002110B500F02FFBE6
:10444000002010BD10B58021044600F00DFB204671
:10445000BDE81040002100F007BB10B5C0F84821AE
:104460000323C0F86C321346C0F84C210A460021E1
:1044700000F080FA002010BD0521002310B51A4677
:10448000C0F86C12194600F075FA002010BD10B586
:10449000C2610223C0F86C32134602620A46002150
:1044A00000F0FDFA002010BD0421002310B51A46CB
:1044B000C0F86C12194600F0F2FA002010BDF8B5F1
:1044C000044648880D46010A06294CD006DC01291D
:1044D0000DD0022910D003294FD11BE007294AD063
:1044E0000F294AD1D4F88812207CCA6937E0D4F861
:1044F0008812207C0A6832E0207C02260028D4F84A
:104500008C0205D0C16A684688470146467041E082
:10451000816AF8E7C0B206282FD2DFE800F003086E
:104520000D12171CD4F88812207C4A6817E0D4F8C2
:104530008812207C8A6812E0D4F88812207CCA682D
:104540000DE0D4F88812207C0A6908E0D4F88812BB
:10455000207C4A6903E0D4F88812207C8A69694685
:104560009047014616E0207C38B9D4F88C02416BA4
:1045700068468847F5E7207C20B129462046FFF7AA
:1045800061FFF8BDD4F88C02016B6846884701468C
:1045900007204870BDF8000048B1EA8852B1824255
:1045A00000D902462046ADF80020FFF770FFE888EA
:1045B0000028E6D12046FFF777FFF8BD70B5002848
:1045C0004FF000061ED00546344602E0641C6D1C08
:1045D000E4B22B78002BF9D1022505EB44041480BA
:1045E0001278731C03258A550024B21CCD5406E0B2
:1045F000551C8B54EAB2531C401C8C54DAB203781D
:10460000002BF5D170BD01004FF0000004D001294E
:1046100001D0022901D0022070470120704700001C
:1046200004A00A46024910B5FFF7C8FF004810BDB4
:10463000300E002043444320436F6E6669670000DC
:1046400012200880004870472400002004A00A4679
:10465000024910B5FFF7B2FF004810BD300E002030
:1046600043444320496E74657266616365000000CF
:1046700004200880004870472000002004A00A465B
:10468000024910B5FFF79AFF004810BD300E002018
:1046900053544D6963726F656C656374726F6E69B4
:1046A0006373000004A00A46024910B5FFF786FFB5
:1046B000004810BD300E002053544D33322056694F
:1046C000727475616C20436F6D506F7274000000DE
:1046D00010B51A2008800B480A490830021F0968E3
:1046E00000681468081809D007490822FEF736F94F
:1046F0000549042220461031FEF730F90248801E99
:1047000010BD0000107AF01F460000200C20088029
:10471000004870473800002010B580B1D0F88C32C6
:1047200013B10023C0F88C3209B1C0F888120121FE
:10473000027080F8741200F0C9F8002010BD022049
:1047400010BD10B5D0F89802FCF750F9BDE8104044
:10475000FFF759BF10B5D0F89802FCF721F9BDE872
:104760001040FFF750BF70B51646044649B1D4F863
:104770008C0242691AB194F87402032850D00220C6
:1047800070BDD4F86C32002504F11400022B03D064
:10479000042B3AD0C3B33CE0D0E90313994207D9C4
:1047A000C91AC1608AB231462046FFF743FE12E0C3
:1047B0008068B0FBF3F103FB110199B9984211D362
:1047C000D4F8701288420DD2002220461146FFF71D
:1047D00031FEC4F8705200231A461946204600F0F4
:1047E000C9F816E0D4F88C02C16829B194F87402B3
:1047F000032801D1204688478021204600F034F963
:104800002046FFF739FE04E0FFE78021204600F054
:104810002BF994F87802012804D184F8785201E049
:1048200020469047002070BD70B51546044649B13A
:10483000D4F88C0282691AB194F87402032830D03B
:10484000022070BDD4F86C1204F5A070032902D0C8
:1048500005291ED027E0D0E903218A420BD9531A3B
:10486000C3600846834200D3034629469AB22046D5
:10487000FFF7D8FD17E0D4F88C02016929B194F84C
:104880007402032801D1204688472046FFF70CFE1A
:1048900009E00020C4F86C020146204600F0E4F86C
:1048A00001E020469047002070BD0020704710B501
:1048B000012180F87412D0F88C2201795268904757
:1048C000002010BDD0F89802FCF7BEB870B5017892
:1048D000012928D1154900220325154B0924C1F8C7
:1048E0000004C0F8981208460A61C1E906520A623B
:1048F0004A62CA620A634A63C1E90034FCF7BAFB40
:1049000008B1FBF75EFD09484FF40071FCF706F8AB
:10491000064880220021FCF705F8044801214FF4E5
:10492000BA72FBF7FFFF002070BD00002C0A0020C8
:1049300000000440D0F8982201F07F000B06C0EB85
:10494000C00002EB800002D590F83E00704790F85E
:10495000FE017047002070470020704710B51C46CC
:10496000D0F8980213462246FCF777F8BDE81040CD
:10497000FFF749BE10B5D0F89802FCF79EF8BDE8E5
:104980001040FFF740BE70B5002204464023114698
:10499000FFF7E4FF4026C4F85061012533460022AA
:1049A00020468021C4F84451FFF7D8FFD4F8901274
:1049B00000206662A56184F87452C4F86C026060DD
:1049C000C4F87C0229B1D4F88C0200214268204648
:1049D0009047002070BD90F8751280F87412002086
:1049E000704710B590F87412032904D1D0F88C12D6
:1049F000C96901B18847002010BD017400207047CB
:104A000010B5D0F89802FCF713FCBDE81040FFF792
:104A1000FABD70B5044600F52070054600F048F870
:104A2000B4F88632012194F8800210F01F02C4E924
:104A30009B130AD0012A0DD0022A10D000F0800169
:104A4000204600F011F8002070BD2946204600F0F5
:104A5000A0F8F8E72946204600F0CDF9F3E729460B
:104A6000204600F020F9EEE710B5D0F89802FCF7E8
:104A700046F8BDE81040FFF7C6BD10B5D0F8980263
:104A8000FCF7F1FBBDE81040FFF7BDBD90F87422C4
:104A9000042180F8752280F874120020704710B548
:104AA000D0F89802FCF765F8BDE81040FFF7ABBD01
:104AB0000A7802704A784270CB788A7802EB032237
:104AC00042804B790A7902EB032282808A79C97984
:104AD00002EB0121C180704702464FF0000011B186
:104AE000C2F88C1270470220704710B5D0F88C22A3
:104AF00002241AB11268904700B90024204610BD64
:104B000070B5204D044688780E46C1B2012929703F
:104B100031D894F8740202280BD003280FD0314604
:104B20002046FFF78FFC29782046BDE87040FFF74C
:104B300072BCD9B16160032084F8740209E071B1DC
:104B40006068884212D0C1B22046FFF764FC297821
:104B500061602046FFF7C9FF02280CD006E0022062
:104B6000616084F874022046FFF755FC2046BDE8DA
:104B70007040FFF799BC31462046BDE87040FFF712
:104B800061BC00008800002010B5FFF776FF002010
:104B900010BD2DE9F0410A784FF0000612F06002D6
:104BA00008D0202A01D0402A70D1D0F88C229268F7
:104BB00090476DE04B78002201250A2B66D2DFE892
:104BC00003F0405D6557650805652C29FFF777FC04
:104BD0005EE004468888D8B9C888C8B94888802863
:104BE00016D294F8742200F07F07032A10D03946B9
:104BF000204684F87672FFF703FF2046FFF754FC47
:104C00001FB1022084F8740242E084F874523FE03D
:104C100020463BE0FFF774FF3AE0CB88012B35D10B
:104C200090F87432012B04D0022B02D0032B2DD12B
:104C300004E000F108018260012216E00122011D5A
:104C400013E090F87422012A03D0022A01D0032A2B
:104C50001CD1CA88022A19D1D0F87C12C56009B1CA
:104C60000321C160022200F10C01FFF710FC0FE0EC
:104C7000498801290CD1C0F87C5211E090F87432B7
:104C8000012B08D0022B06D0032B04D0FFF7DAFB50
:104C90003046BDE8F08149880129F9D1C0F87C226D
:104CA000FFF702FCF4E70A462DE9F04104461078CC
:104CB0000979002710F060030AD0202B01D0402B87
:104CC00050D1D4F88C0211468368204698478FE073
:104CD000C0F34110012806D05078D0B301282AD063
:104CE00003283FD107E0D4F88C02114683682046A0
:104CF000BDE8F041184794F87402022802D0032856
:104D000072D10AE071B380296ED02046FFF7ACFE65
:104D100080212046FFF7A8FE6AE0508838B931B1FB
:104D2000802904D0D08810B92046FFF79DFE204688
:104D3000FFF7BAFB5CE094F874020228E2D0032883
:104D400052D1508898BB4806F1D02046FFF7F9FCB5
:104D5000EDE7FFE794F874020026022803D0032849
:104D600042D112E040E009B180293DD1080601F0AE
:104D70007F0000EB800004EB800101D5143101E0DD
:104D800001F5A07102220E602AE0080601F00F0072
:104D900000EB800004EB80000AD5806920B301F0AD
:104DA0007F0000EB800004EB800514350BE01FE072
:104DB000D0F84401C0B101F07F0000EB800004EBAB
:104DC000800505F5A07541B1802906D02046FFF782
:104DD000B1FD10B10120286000E02E6002222946BA
:104DE0002046FFF754FB03E011462046FFF72AFB5D
:104DF0003846BDE8F08170B5054608780C4610F0DD
:104E0000600003D0202801D0402816D195F8740204
:104E1000012803D0022801D003280ED120790128CF
:104E20000BD8D5F88C02826828469047E188014368
:104E300006D12846FFF738FB02E02846FFF702FBC1
:104E4000002070BD70B54D7801230A78012D1C4CEF
:104E500002F00F0503FA05F3D0F81C5817D000EB49
:104E6000421245EA0343C0F81C38D2F8000B000494
:104E70000BD40B89C978D2F8000BC3F30A0318438B
:104E800044EA81410843C2F8000B002070BD9EB285
:104E90003543C0F81C5800EB4213D3F80009000456
:104EA000F3D40D89C978D3F80009C5F30A0589043C
:104EB000284341EA825108432043C3F80009E4E74C
:104EC00000800010D0F800196FF30A01C0F8001933
:104ED000D0F80818C1F34101022905D1D0F8001912
:104EE00041F00301C0F80019D0F8041841F48071B2
:104EF000C0F804180020704770B50446354906987C
:104F0000049E0D9D012817D0032828D0E06840F0AA
:104F10004000E060204600F063F8A16B41F480316E
:104F2000A163012E07D1A16841F00601A160A1682B
:104F300041F02001A16070BDA06B012D20F48030F4
:104F4000A063E06800EA0100E060E06820F440103F
:104F5000E0603BD1E06840F48010E06036E0A06B98
:104F600020F48030A063E0680840E060E06820F44E
:104F70004010E060E06820F01000E060A06B40F4BA
:104F80000000A06314480168144A41F00403036060
:104F9000002104E0491C914201D9012070BD036841
:104FA0009B07F7D50C4840F613730B4918380C399A
:104FB000082202600A681A430A60016841F0010190
:104FC00001600220FBF774FA012DC3D0204600F0E7
:104FD00007F8A6E7BFFFBDFF187C0140400D0300A6
:104FE0000C49012202E0521C8A420BD80369002BB3
:104FF000F9DA0369012243F00103036104E0521C62
:105000008A4201D9032070470369DB07F7D10020EA
:1050100070470000400D030030B54C7801220B783A
:10502000012CD0F83C5803F00F0402FA04F417D016
:1050300025EA0444C0F83C480978D0F81C4801F03F
:105040000F018A4000EB431124EA0243104AC0F8E2
:105050001C38D1F8000B1040C1F8000B002030BD07
:10506000A4B2A543C0F83C580978D0F81C4801F018
:105070000F018A4092B29443064A00EB4311C0F8F4
:105080001C48D1F800091040C1F80009E6E700000B
:105090000078F3EF007833EC10B5D0F8041821F065
:1050A0000201C0F804180320FBF702FA002010BD2B
:1050B00010B5D0F8041841F00201C0F8041803201C
:1050C000FBF7F6F9002010BD2DE9F04F0E4604461F
:1050D0000021DDE90B2BDDF840800D46099F0846D5
:1050E00004EB800CCCF80411401C0F28F8D32046A8
:1050F000A06BB8F1000F15D040F4001CC4F838C004
:1051000089460846C4F8000E2046D4F80018012A43
:10511000C4F8001834D0032A32D0D0F8001841F077
:10512000030111E020F4001CC4F838C0206840F0EE
:10513000400CC4F800C0206840F0800CC4F800C0E7
:10514000DEE700BF41F00101C0F80018102100F0B7
:1051500091FA00B10125204600F07CFA00B101254A
:1051600048464FF0006C4FF67F334FF0904AC4F83A
:105170001098C4F81498C4F81C980021994619E0B6
:10518000D0F80018002BDFD0DCE700BF04EB4112A1
:10519000D2F80039002B06DA11B1C2F800A904E0F8
:1051A000C4F800C901E0C2F80009C2F81009C2F849
:1051B0000899491C8E42E9D8002113E004EB411202
:1051C000D2F8003B002B06DA11B1C2F800AB04E0C4
:1051D000C4F800CB01E0C2F8000BC2F8100BC2F813
:1051E000089B491C8E42E9D8D4F81018012F21F4ED
:1051F00080722146C4F8102808D1144B144AC1F813
:105200003038D1F830181143C4F830186FF08041AD
:10521000A06161611FB9A06940F01000A061A069A0
:10522000BBF1000F0B4A40EA0200A06103D0A06965
:1052300040F00800A061B8F1010F03D1A069064950
:105240000843A0612846BDE8F08F000000018000FF
:105250000300010000383C8004000040816821F018
:10526000010181600020704770B50B784E78414C89
:105270000D78012E00EB431320D0D3F8100B6FF301
:105280001200C3F8100BD3F8100B2040C3F8100B1A
:10529000486908B188684861D3F8100B012A40F4C6
:1052A0000020C3F8100BD3F8100B8A68C2F3120267
:1052B00040EA0200C3F8100B4FD052E04E69002EB6
:1052C000D3F8106933D06FF31206C3F81069D3F81E
:1052D00010692640C3F810694E698C68A64200D94F
:1052E0004C61D3F8104944F40024C3F81049D3F8B2
:1052F00010494E69C6F3120654EA0604C3F8104971
:10530000012A22D04A694AB10B78D0F83428012109
:1053100003F00F0399400A43C0F8342800EB45100E
:10532000D0F8001941F00441C0F800191FE02640F0
:10533000C3F81069D3F8104944F40024C3F81049A5
:10534000D3F810496FF31204D8E709690029E5D0B2
:1053500000EB4512C2F81419E0E7C86808B1C3F8B9
:10536000140BD3F8000B40F00440C3F8000B0020EE
:1053700070BD0000FFFF07E010B5144C036CA342A2
:1053800003D9D0F8003B002B1EDB0023C0F8103BF4
:105390000129D0F8101B41F40021C0F8101BD0F8EF
:1053A000101B41F01801C0F8101BD0F8101B41F081
:1053B000C041C0F8101B07D1C0F8142BD0F8001B57
:1053C00041F08021C0F8001B002010BD0A30544F6E
:1053D0000B784A78012A00EB43100BD0D0F8002B51
:1053E00022F40012C0F8002BC978032914D0022936
:1053F00012D017E0D0F8002922F40012C0F80029DA
:10540000C978032901D002290CD1D0F8001941F044
:105410008051C0F8001905E0D0F8001B41F0805120
:10542000C0F8001B002070470A784B78D1B2012BDE
:1054300000EB421012D0D0F8002B002A06DB29B175
:10544000D0F8001B21F08041C0F8001BD0F8001BF1
:1054500041F40011C0F8001B00207047D0F800296B
:10546000002A06DB29B1D0F8001921F08041C0F8EC
:105470000019D0F8001941F40011C0F80019EBE749
:10548000F8B50B786FF060464F786E4DDCB2012FA7
:1054900000EB431326D0D3F8104B6FF31204C3F87C
:1054A000104BD3F8104B2C40C3F8104B4D69002D16
:1054B00070D08C68D3F8107B25446D1EB5FBF4F4D6
:1054C000A4B206EAC4452F43C3F8107BD3F8105B9F
:1054D0008E686643C6F312042543C3F8105B012AA5
:1054E0007ED097E04F6927B3D3F810796FF3120796
:1054F000C3F81079D3F810792F40C3F810794F69A9
:105500008D68D3F810C92F447F1EB7FBF5F506EA66
:10551000C54545EA0C05C3F81059D3F810594E6932
:10552000C6F312063543C3F81059CD78012D10D0BB
:105530001BE0D3F810692E40C3F81069D3F8105956
:1055400045F40025C3F81059D3F810596FF312052C
:1055500009E0D3F8105925F0C045C3F81059D3F825
:10556000105945F00055C3F81059012A13D0CB78D3
:10557000012B18D04B692BB30E78D0F834380125A5
:1055800006F00F06B5402B43C0F83438CB78012B1A
:1055900009D017E02BE00B69002BF7D000EB441586
:1055A000C5F81439F2E7D0F80838DB0500EB4413EE
:1055B000D3F8005902D445F0005501E045F080557C
:1055C000C3F8005900EB4413D3F8004944F00444F5
:1055D000C3F80049CB78012B32D100928B8A00E0CE
:1055E00014E00A789BB2C96800F03EF928E08D68A3
:1055F000D3F8104BC5F312052C43C3F8104BD3F866
:10560000104B44F40024C3F8104B68E7CA680AB191
:10561000C3F8142BC97801290CD1D0F80808C005AB
:10562000D3F8000B02D440F0005001E040F080506D
:10563000C3F8000BD3F8000B40F00440C3F8000B94
:105640000020F8BDFFFF07E0816841F001018160A3
:1056500000207047064A102101610021491C914237
:1056600001D9032070470369DB06F7D40020704797
:10567000400D03002023074A43EA81130361002100
:10568000491C914201D90320704703699B06F7D456
:1056900000207047400D0300D0F8080810F0060005
:1056A00004D0022803D0062801D000207047032030
:1056B0007047406900F001007047D0F81818D0F822
:1056C0001C08084080B27047D0F81818D0F81C08A1
:1056D0000840000C704710B5D0F8102801F00F03F7
:1056E00000EB4114D0F83418D4F80809D94001F07F
:1056F000010142EAC111084010BD00EB4111D1F88F
:10570000081BD0F8140808407047416980690840B8
:105710007047D21C00F580509308002210B502E0BB
:105720000468521C10C19A42FAD3084610BD10B545
:10573000C268012922F0C042C26002D029B1012012
:1057400010BDC16841F0005102E0C16841F08041E4
:10575000C1603220FAF7ACFE002010BDD0F800285E
:105760004FF4FE6303EA011322F4FE62C0F800283E
:10577000D0F800181943C0F8001800207047000046
:10578000032A3ED1264A274B0A449A4201D20F21CE
:1057900038E0254A254B0A449A4201D20E2131E0D5
:1057A000234A244B0A449A4201D20D212AE0224A7C
:1057B000224B0A449A4201D20C2123E0204B214A79
:1057C0000B44934201D20B211CE01F4B1F4A0B4498
:1057D000934201D20A2115E01D4B1E4A0B4493420D
:1057E0000FD31D4B1D4A0B44934201D2082109E0FF
:1057F0001B4B1C4A1944914201D2072102E00621A9
:1058000000E00921C2684FF4705322F47052C26064
:1058100003EA8123C1681943C1600020704700007A
:10582000405327FF00350C00401E1BFF40420F0075
:1058300000DC0BFF804F1200808CF9FE20D6130095
:1058400060B6E5FE60E3160000D3CEFE40771B0095
:10585000C05BB3FEC091210000CA91FE20753800E4
:10586000E05459FEE09C410010B5029C64B900EB85
:105870000230DB1C00229B0800F5805002E010C9BA
:105880000460521C9A42FAD3002010BDFEE70907BB
:1058900000284FEA116104DB00F1E02080F80014D9
:1058A000704700F00F0000F1E02080F8141D7047F1
:1058B00002E008C8121F08C1002AFAD170477047D9
:1058C000002001E001C1121F002AFBD17047000037
:1058D00010B5002821D0114B0022001F196803E0E9
:1058E000814203D80A4649680029F9D152B11368A8
:1058F000841A9C4204D1006818441060104602E0EB
:10590000506000E0186039B102680B1A934203D16D
:105910000B681A4402604968416010BD9C01002078
:10592000BFF34F8FBFF36F8F324800240460BFF383
:105930004F8FBFF36F8F3049086840F40030086024
:10594000BFF34F8FBFF36F8F2B4870300460BFF3EE
:105950004F8F001F43F6FF7C0068264D1035C0F3C3
:105960004E32C0F3C9030CEA4216184646EA807765
:105970002F60401EFAD2521EF5D2BFF34F8F086837
:1059800040F480300860BFF34F8FBFF36F8FFAF79A
:10599000F3FEFDF771FFFDF727F8FCF7FBFF184852
:1059A0001649C0E900148460C460046144618461E4
:1059B000FCF7CCFA12484FF40061FCF78EF9FDF7C2
:1059C000CBF8FDF7E5F8FDF701F9FDF71DF9FDF757
:1059D00039F9FDF755F9FDF7B7F9FDF7CDF9FDF701
:1059E000E3F9FDF7F9F9FDF70FFAFDF725FAFDF7F1
:1059F0003BFAFEE750EF00E014ED00E0002C014020
:105A0000A4010020F0B50B30154D20F00701002453
:105A1000144A0FE003688B420BD38B4205D95E1A00
:105A200043184768C3E9006700E04368136002C099
:105A300004E0021D10680028ECD12046002802D1A5
:105A4000286808B10020F0BD064A07481060074AE0
:105A5000121A22F00702C0E9002401202860D7E7CB
:105A6000A00100209C0100203420002030240020D0
:105A700000000000000000000102030406070809FE
:105A80000000000001020304A85A000800000020E2
:105A9000A401000024030008785B0008A401002092
:105AA0008C260000C05800081341461B0871041AD8
:105AB0007D041AA5041AD1041A21041A4D04130DE9
:105AC00047100C08040309041201010202021640E7
:105AD0008304405726020102030114050F0C1C0128
