:020000040800F2
:1000000018ED0020F5010008AB4200080139000896
:10001000A94200087B030008E56E0008000000000C
:10002000000000000000000000000000514E000829
:10003000ED1100080000000037440008534E00088E
:100040000F0200080F0200080F0200080F0200084C
:100050000F0200080F0200080F0200080F0200083C
:100060000F0200080F0200080F0200080F0200082C
:10007000210F00080F0200080F0200080F020008FD
:10008000B50F00080F0200080F0200080F02000859
:100090000F0200080F0200080F0200080F020008FC
:1000A0000F0200080F0200080F0200080F020008EC
:1000B0000F0200080F0200080F0200080F020008DC
:1000C0000F0200080F0200080F0200080F020008CC
:1000D0000F020008655700086757000869570008B5
:1000E0000F0200080F0200080F0200080F020008AC
:1000F0000F020008594F00080F0200080F02000805
:100100000F0200082D4600080F0200080F02000829
:10011000A75300080F0200080F0200080F02000892
:100120000F02000849100008DD1000080F02000847
:100130000F020008000000000000000000000000A6
:100140000000000000000000000000000F02000896
:100150000F0200080F0200080F0200086B5700088A
:100160000F0200080F0200080F0200080F0200082B
:100170000F020008AD42000800000000000000006F
:100180000F0200080F0200080F020008A953000820
:100190000F0200080F020008000000000F02000814
:1001A0000000000000000000000000000F02000836
:1001B0000F0200080F02000800000000000000000D
:1001C000000000000000000000000000000000002F
:1001D0000000000000000000000000000F02000806
:1001E000DFF80CD000F08CF800480047C96F000819
:1001F00018ED00200648804706480047FEE7FEE766
:10020000FEE7FEE7FEE7FEE7FEE7FEE7FEE7FEE7C6
:10021000054F0008E10100082DE9F05F05460020C8
:1002200092469B4688460646814640241BE0284667
:1002300041464746224600F053F853465A46C01AF4
:10024000914110D311461846224600F03AF82D1A73
:1002500067EB01084F4622460120002100F031F8EB
:1002600017EB00094E41201EA4F10104DFDC4846D3
:1002700031462A464346BDE8F09F40EA01039B070A
:1002800003D009E008C9121F08C0042AFAD203E00B
:1002900011F8013B00F8013B521EF9D27047D2B26F
:1002A00001E000F8012B491EFBD270470022F6E75F
:1002B00010B513460A4604461946FFF7F0FF2046DC
:1002C00010BD202A04DB203A00FA02F1002070471A
:1002D0009140C2F1200320FA03F319439040704784
:1002E000202A04DB203A21FA02F00021704721FA8B
:1002F00002F3D040C2F120029140084319467047F2
:10030000064C074D06E0E06840F0010394E8070062
:1003100098471034AC42F6D3FFF766FFA47100088B
:10032000C471000870B58C1810F8015B15F0070354
:1003300001D110F8013B2A1106D110F8012B03E07E
:1003400010F8016B01F8016B5B1EF9D12B0705D486
:100350000023521E0DD401F8013BFAE710F8013BCF
:10036000CB1A921C03E013F8015B01F8015B521EEB
:10037000F9D5A142D8D3002070BDFEE72DE9F05F8A
:1003800004280F467EDD20287CD1FE4C0C264FF041
:100390000008206F0068016821F001010160216FF1
:1003A00038684860206FC0F80880206FC0F80C8063
:1003B000206FC0F81080206F4661206FC0F8188051
:1003C000206FC0F81C80206FC0F82080206FC0F81C
:1003D0002480206F03F0ECF808B100F008FF206FD4
:1003E0000068C1690906FCD5016821F001010160BE
:1003F000A078800715D5206F806E0068016821F015
:1004000001010160216F886E00680268D207FCD18B
:10041000096824318160206F0068816841F08001A3
:100420008160A078C00715D0206FC06E0068016899
:1004300021F001010160216FC86E00680268D207D7
:10044000FCD1096824318160206F0068816841F027
:1004500040018160216FA14620460A68C96E24329E
:1004600009688A60216FE26AC96E0968CA60226FF2
:10047000B4F87C30E16AD26E194412681161016FE0
:10048000C96E00E0FEE30968BF4DB9F87C00486022
:10049000286F0068016821F001010160296F404662
:1004A0003A684A60296FC1F80880296FC1F80C804A
:1004B000296FC1F81080296F4E61296FC1F818802B
:1004C000296FC1F81C80296FC1F82080296F48620C
:1004D000286F03F06DF808B100F089FE286F0068FE
:1004E000C1690906FCD5016821F001010160A87805
:1004F000800715D5286F806E0068016821F0010122
:100500000160296F886E00680268D207FCD1096813
:1005100024318160286F0068816841F0800181602A
:10052000A878C00715D0286FC06E0068016821F058
:1005300001010160296FC86E00680268D207FCD112
:10054000096824318160286F0068816841F04001AA
:100550008160286F0168C06E243100688160286F57
:10056000C16EE86A0968C860296FB5F87C20E86A3E
:10057000C96E104409680861286F844CC16EB5F8D3
:100580007C0009684860206F0068016821F0010163
:100590000160216F40463A68B3464A60216FC1F856
:1005A0000880216FC1F80C80216FC1F81080226F84
:1005B0005661216FC1F81880216FC1F81C80216F2E
:1005C000C1F82080216F4862206F02F0F1FF08B16E
:1005D00000F00DFE206F0068C1690906FCD50168B6
:1005E00021F001010160A078800715D5206F806E91
:1005F0000068016821F001010160216F886E0068C8
:100600000268D207FCD1096824318160206F00683C
:10061000816841F080018160A078C00715D0206F0B
:10062000C06E0068016821F001010160216FC86E91
:1006300000680268D207FCD1096824318160206F0C
:100640000068816841F040018160216FA246204628
:100650000A68C96E243209688A60216FCA6EE16A2D
:100660001268D160216FB4F87C30E26AC96E1A4416
:1006700009680A61016F464CBAF87C00C96E0968C6
:100680004860206F0068016821F001010160206F5F
:10069000464639684160206FC0F80880206FC0F876
:1006A0000C80206FC0F81080216FC1F814B0206F4B
:1006B000C0F81880206FC0F81C80206F0662206F81
:1006C0004662206F02F074FF08B100F090FD206FC9
:1006D0000068C1690906FCD5016821F001010160CB
:1006E000A078800715D5206F806E0068016821F022
:1006F00001010160216F886E00680268D207FCD199
:10070000096824318160206F0068816841F08001B0
:100710008160A078C00715D0206FC06E00680168A6
:1007200021F001010160216FC86E00680268D207E4
:10073000FCD1096824318160206F0068816841F034
:1007400040018160206F4FF40057C16E0068243073
:1007500009688860216FE06AC96E0968C860216F06
:10076000B4F87C00E26AC96E104409680861206F21
:10077000B4F87C10C06E006841603A4605490648EE
:100780000CE00000F8C8002078C90020F8C900205B
:1007900078CA0020C0870020C0C7002006F0C4FB34
:1007A000FE493A46FE4806F0BFFBFC493A46FD4882
:1007B00006F0BAFBF9493A46FB4806F0B5FBF749A3
:1007C0003A46FA4806F0B0FBF9493A46F94806F0CD
:1007D000ABFBD9F87000CC46C06E0068016821F010
:1007E00001010160D9F87010C86E00680268D20774
:1007F000FCD10868DFF8C083016821F001010160C5
:10080000DCF87000C06E0068016841EA0801016010
:10081000EA48016FC96E09680A6822F400220A607A
:10082000016FB0F87430B0F87C70C26AC96E03FB17
:1008300007220968CA60B0F87410491CA0F8741047
:10084000B0F87810491CA0F87810B0F87410B0F81F
:100850007A20914201D3A0F87460076FB0F8742039
:10086000B0F87C30C16AFF6E02FB03113A68116177
:10087000A0F87860A0F87660286FC06E0068016804
:1008800021F001010160296FC86E00680268D2077B
:10089000FCD10868016821F001010160286FC06E79
:1008A0000068016841EA08010160C548016FC96E2E
:1008B00009680A6822F400220A60016FB0F87430F7
:1008C000B0F87C70C26AC96E03FB07220968CA606F
:1008D000B0F87410491CA0F87410B0F87810491CD6
:1008E000A0F87810B0F87410B0F87A20914201D3D3
:1008F000A0F87460076FB0F87420B0F87C30C16A5B
:10090000FF6E02FB03113A681161A0F87860A0F84D
:1009100076605046DAF87010C96E09680A6822F0ED
:1009200001020A60DAF87020D16E09680B68DB07F3
:10093000FCD11168D1460A6822F001020A60DAF897
:100940007000C06E0068016841EA080101609D48BE
:10095000016FC96E09680A6822F400220A60016FFB
:10096000B0F87430B0F87C70C26AC96E03FB07221D
:100970000968CA60B0F87410491CA0F87410B0F887
:100980007810491CA0F87810B0F87410B0F87A20EC
:10099000914201D3A0F87460076FB0F87420B0F8EA
:1009A0007C30C16AFF6E02FB03113A681161274671
:1009B000A0F87860A0F87660206FC06E00680168CB
:1009C00021F001010160216FC86E00680268D20742
:1009D000FCD10868016821F001010160386FC06E28
:1009E0000068016841EA080101607748016FC96E3B
:1009F00009680A6822F400220A60016FB0F87430B6
:100A0000B0F87C40C26AC96E03FB04220968CA6060
:100A1000B0F87410491CA0F87410B0F87810491C94
:100A2000A0F87810B0F87410B0F87A20914201D391
:100A3000A0F87460026FB0F87430B0F87C40C16AFE
:100A4000D26E03FB041112681161A0F87860A0F85F
:100A50007660DCF870000168CA691206FCD59CF863
:100A60000210202210230824890725D5806E90F8D3
:100A70005C10806D02FA01F18160DCF87010896E03
:100A800091F85C1003FA01F18160DCF87010896E56
:100A900091F85C1004FA01F18160DCF870000068E4
:100AA000816841F080018160DCF87000806E006830
:100AB000016841F0010101609CF80200C00727D0E5
:100AC000DCF87000C06E90F85C10806D02FA01F1E5
:100AD0008160DCF87010C96E91F85C1003FA01F1C6
:100AE0008160DCF87010C96E91F85C1004FA01F1B5
:100AF0008160DCF870000068816841F0400181602D
:100B0000DCF87000C06E0068016841F0010101600E
:100B1000286F29460568EE693606FCD58D78AD0745
:100B200021D5806E90F85C50806D02FA05F58560E5
:100B30000D6FAD6E95F85C5003FA05F585600D6F8D
:100B4000AD6E95F85C5004FA05F58560086F006895
:100B5000856845F080058560086F806E00680568CF
:100B600045F0010505608878C0073BD0086FC06E6E
:100B700090F85C50806D02FA05F585600D6FED6EA2
:100B800095F85C5003FA05F585600D6FED6E95F8EC
:100B90005C5004FA05F58560086F17E0C067002017
:100BA000F4C7002028C800205CC8002090C800209E
:100BB000C0A70020C4C8002010000400F8C800200E
:100BC00078C90020F8C9002078CA0020006885682C
:100BD00045F040058560086FC06E0068056845F007
:100BE00001050560D9F870004D460668D6F81C80EE
:100BF0005FEA0868FAD5AE78B60721D5806E90F81E
:100C00005C60806D02FA06F686602E6FB66E96F80E
:100C10005C6003FA06F686602E6FB66E96F85C602E
:100C200004FA06F68660286F0068866846F080063B
:100C30008660286F806E0068066846F001060660D0
:100C4000A878C00724D0286FC06E90F85C60806DD3
:100C500002FA06F686602E6FF66E96F85C6003FA6E
:100C600006F686602E6FF66E96F85C6004FA06F65D
:100C70008660286F0068866846F040068660286FA8
:100C8000C06E00E08CE00068066846F00106066071
:100C90003E6F3846D6F80070D7F81C805FEA0868C7
:100CA000FAD58778BF0721D5B66E96F85C70B66D19
:100CB00002FA07F7B760076FBF6E97F85C7003FA28
:100CC00007F7B760076FBF6E97F85C7004FA07F715
:100CD000B760066F3668B76847F08007B760066F81
:100CE000B66E3668376847F0010737608678F607D2
:100CF0001FD0066FF66E96F85C70B66DBA40B260A3
:100D0000026FD26E92F85C209340B360026FD26E95
:100D100092F85C209440B460026F1268936843F0CC
:100D200040039360026FD26E1268136843F00103B0
:100D30001360DCF87020D26E1268136843F0010370
:100D40001360DCF870201268136843F0010313602D
:100D50000A6FD26E1268136843F001031360096FC3
:100D600009680A6842F001020A60296FC96E0968C1
:100D70000A6842F001020A60D9F8701009680A682E
:100D800042F001020A60016FC96E09680A6842F008
:100D900001020A60006F0068016841F00101016012
:100DA0000020BDE8F09F00207047000005490022A8
:100DB000054810B504F0D0FD0449034804F0C6FD11
:100DC000002010BD18DD002078CC002018D50020B0
:100DD0000146044810B504F0B9FD024804F098FD3E
:100DE000002010BD78CC0020094A10B5D2F890221E
:100DF000D2F814220AB1012010BD0A460146044867
:100E000004F0AAFDBDE81040014804F004BE000053
:100E100078CC00202DE9F0418846C16E04460025BB
:100E20004FF480668D60E16EB010CD60E16E0E61B2
:100E3000E16E4D61E16E8D61E16EC861E06E05624B
:100E4000E06E00F04BFA4FF0FF37A0B9E16E4020A2
:100E50008C63A16E8860A06EC560A06E0661A06EF6
:100E60004561A06E8561A06EC561A06E0562A06E31
:100E700000F034FA10B13846BDE8F081A06E0022CF
:100E800011468463404600F05BFC404600F04AFC9B
:100E90002068016821F0200101602068016821F0CC
:100EA00080010160A06F20F02200A0670020E3E72E
:100EB00038B504460025049825800090204600F0AF
:100EC00009F808B1012038BD208840F002002080D8
:100ED000002038BDF8B5044680781D46069EC00740
:100EE00008D0206FC06E0068436800934368201DDF
:100EF00006F02CF8A07880070BD5206F806E006874
:100F000041680091436804F138003246294606F0F2
:100F10001DF894F96C10206FFFF77CFF0020F8BDDE
:100F20002248202230B5102390F85C40816DA24009
:100F30008A6090F85C0083408B601D48011DB0F80A
:100F40007C3002691A440261C468A24201D3121BB8
:100F5000CA60002201EB8204521C022AA5691D44CA
:100F6000A561F7DB1249B1F87430B1F87820B1F817
:100F70007A405B1C521CA1F874309BB2A1F8782017
:100F8000A34202D30022A1F87420016FC96E096840
:100F90000A68B0F874301203C26AB0F87C0003FB30
:100FA000002001D5C86030BD086130BDB8CB00203D
:100FB000F8C900202248202230B5102390F85C4068
:100FC000816DA2408A6090F85C0083408B601D4870
:100FD000011DB0F87C3002691A440261C468A24263
:100FE00001D3121BCA60002201EB8204521C022AA8
:100FF000A5691D44A561F7DB1249B1F87430B1F859
:101000007820B1F87A405B1C521CA1F874309BB276
:10101000A1F87820A34202D30022A1F87420016F26
:10102000C96E09680A68B0F874301203C26AB0F871
:101030007C0003FB002001D5C86030BD086130BDD5
:1010400058CB002078C900202248202230B5102338
:1010500090F85C40816DA2408A6090F85C0083400B
:101060008B601D48011DB0F87C3002691A44026192
:10107000C468A24201D3121BCA60002201EB8204A1
:10108000521C022AA5691D44A561F7DB1249B1F87B
:101090007430B1F87820B1F87A405B1C521CA1F88A
:1010A00074309BB2A1F87820A34202D30022A1F8A9
:1010B0007420016FC96E09680A68B0F874301203B1
:1010C000C26AB0F87C0003FB002001D5C86030BDC7
:1010D000086130BD18CC002078CA002022482022A8
:1010E00030B5102390F85C40816DA2408A6090F882
:1010F0005C0083408B601D48011DB0F87C300269A4
:101100001A440261C468A24201D3121BCA600022C1
:1011100001EB8204521C022AA5691D44A561F7DB7C
:101120001249B1F87430B1F87820B1F87A405B1CFC
:10113000521CA1F874309BB2A1F87820A34202D3CC
:101140000022A1F87420016FC96E09680A68B0F81E
:1011500074301203C26AB0F87C0003FB002001D592
:10116000C86030BD086130BDF8CA0020F8C8002052
:1011700001681823CAB2103AB2FBF3F2054B6FF3C1
:101180000901032A9B5CC36500D9091D81650846D6
:10119000704700008471000810B583694FF0C07477
:1011A000826A0146002053B1B3F5005F15D072B1D9
:1011B000012A0CD0022A0AD0032A09D104E01AB16C
:1011C000012A06D0022A03D1C96AC90100D501202B
:1011D00010BDC96AA142FAD010BD002AF7D0012A79
:1011E000F2D0022AF3D0032AF3D010BD7047704723
:1011F000F0B5D1E90125D1E90343D1E905762A43C8
:10120000D1F800C044EA0304D1E9073542EA0402F8
:10121000496A42EA0702BCF1010F42EA060208D01D
:1012200004681A432A430A43E30BDB031A430260B0
:101230000BE0066844682B4326F4F84529430B432A
:1012400003606FF30E04224342600020F0BD0000F3
:101250002DE9F043914691E81C006FF00F05521EF6
:101260002E0105EB03131A430B7E06EB04268C8A32
:101270002F034FEA054C0D8A32434FF07F4808EBAD
:101280000366CB68B9F1010F07EB05450CEB04547D
:101290000CD081683F1107EB03331A432A432243E2
:1012A000324301F070410A43826011E08168DFF847
:1012B00028C0C7681B03A3F5805323432A4301EAD0
:1012C0000C0132430B43836007F070442243C26039
:1012D0000020BDE8F0830000FF0F0FFF2DE9F0476D
:1012E000044600F0C3F9054664B14FF0000984F8E4
:1012F0003490022184F835102068016821F0010142
:1013000001600EE00120BDE8F08700BF00F0AEF9FB
:10131000401B052805D920216165032084F835008C
:10132000F1E720680068C007F0D1D4E90020D4E9D3
:101330000251D4E9043C284304F118051943084339
:10134000116895E8E00140EA0C001C4B2843194065
:1013500040EA060040EA0700B8F1040F40EA010045
:1013600003D1D4E90B131943084310602068012608
:10137000656A4069042D20F0070045EA00050CD19C
:10138000D4E90A01054341B12046FFF705FF20B12A
:101390004020606584F83560B4E7206845612046E8
:1013A000FFF7E6FE94F85C303F229A408260C4F872
:1013B000549084F835600020A5E700003F8010E0DD
:1013C00070B5044600F052F90546601C02D004488E
:1013D0000078044400F04AF9401BA042FAD370BDE3
:1013E000680000202DE9F04186B014216846FEF720
:1013F0005DFF24480168002940D14FF00108C0F882
:1014000000802148016841F0010101600068022468
:101410000025694600F00100059003264FF63F00C5
:101420000C278DE8F100194800F03CF801AACDF82E
:1014300000801748694682E8F00000F033F848F26F
:10144000371069468DE8F100124800F02BF84FF490
:10145000F06069468DE8F1000F4800F023F84CF287
:10146000030069468DE8F1000C4800F01BF860208D
:1014700069468DE8F1000A4800F014F806B0BDE8AE
:10148000F081000060000020383802400014024063
:10149000000802400018024000100240000C024008
:1014A000000402402DE9F84FDFF888E100224FF0F8
:1014B00001084FF0030B4FF00F0A00BF0B6808FA4A
:1014C00002F42340A34271D14D68022D01D0122DA8
:1014D0000FD1D5080E69570700EB8505A9462D6A7F
:1014E000FF0E0AFA07FCBE4025EA0C052E43C9F898
:1014F00020600F79550006680BFA05FC07F003071A
:1015000026EA0C06AF40374307604E68012E05D02F
:10151000022E03D0112E01D0122E0ED18668CF6874
:1015200026EA0C06AF403743876046680F79A6432A
:10153000C7F30017974037434760C4688E6824EAB2
:101540000C04AE402643C6604C68E4006BD53A4CB0
:10155000256845F480452560246822F00306950738
:1015600004F480440094354C2D0F2644D6F80848E6
:10157000DFF8CCC00AFA05F7604524EA070401D178
:10158000002724E02F4FB84201D101271FE02E4F42
:10159000B84201D102271AE02C4FB84201D10327EB
:1015A00015E02B4FB84202D1042710E03BE0294F51
:1015B000B84201D105270AE0274FB84201D10627DA
:1015C00005E0264FB84201D1072700E00827AF40C9
:1015D00027437546C6F808784E68DEF80040F603E3
:1015E00024EA030400D51C43124E2C60361D4D68BE
:1015F0003468AD0324EA030400D51C430D4D346068
:1016000008354E682C68F60224EA030400D51C4312
:10161000084E2C600C364D683468AD0224EA030491
:1016200000D51C433460521C102AFFF447AFBDE8BC
:10163000F88F0000003C0140443802400030014077
:10164000000002400004024000080240000C02407A
:10165000001002400014024000180240001C02402A
:101660000AB1816170470904FBE700000148806806
:101670007047000068000020024881680278114429
:101680008160704768000020094810B5016841F486
:1016900000710160016841F480710160032000F075
:1016A0006FF8002000F006F800F024F8002010BDCC
:1016B000003C024070B50D4D04464FF47A700C4A60
:1016C00029781268B0FBF1F0B2FBF0F001F05CFD9C
:1016D00048B9102C07D200222146501E00F030F8E5
:1016E00000206C6070BD012070BD0000680000200B
:1016F000740000200A4808B5016841F0805101607B
:10170000006800F0805000900548001D016841F419
:1017100080410160006800F48040009008BD000036
:1017200040380240002809DB410900F01F0289000F
:10173000012001F1E0219040C1F800017047000054
:101740000E4BF0B41B680D46C3F30223C3F107062A
:10175000042E00D90426191D072901D2002300E018
:10176000DB1E012404FA06F19C40491E2940641E38
:10177000994014402143F0BC05F0B5BB0CED00E0EE
:10178000064900F0070210B54FF6FF040868044B45
:10179000204040EA02201843086010BD0CED00E034
:1017A0000000FA0501680123C0F8FC33002280F82C
:1017B000F4238869044A40F000608861486D104352
:1017C0004865002070470000030000107047006863
:1017D000416200207047F0B503685D6A39B19F6AC5
:1017E0004C1E00204FF4827605EB17450BE045EACE
:1017F0000240986210E0471C06EB800053F800C0DE
:10180000F8B205EB1C45A042F5D34FF4807000EB15
:10181000810045EA02421A500020F0BDD0F80004D1
:1018200004F04DBBC1EBC10200EB8202D0F8000412
:10183000926C04F0A2BAC1EBC10200EB8202D0F8B4
:101840000004D2F8082204F0F9BAD0F8000404F039
:1018500038BB01F00F020B0670B5C2EBC2010446A3
:101860004FF001004FF0000504EB810103D581F832
:101870003D003C3103E081F8FD5101F5FE710A7035
:1018800094F8BC23012A08D084F8BC03206804F033
:10189000CDFE002084F8BC5370BD022070BD70B531
:1018A0004268044601F00F00904201D9012070BD4A
:1018B00001F00F024FF000050B06C2EBC2014FF022
:1018C000010204EB810103D581F83D203C3103E0A6
:1018D00081F8FD5101F5FE718D70087094F8BC031C
:1018E000012808D084F8BC23206805F07BF800208C
:1018F00084F8BC5370BD022070BD01F00F01C1EB34
:10190000C10100EB8100D0F8140270472DE9F041CD
:1019100001F00F0604460D064FF00100C6EBC601AC
:101920004FF0000504EB810103D581F83D003C3107
:1019300003E081F8FD5101F5FE714F788A60CB70AC
:101940000E7007B1CE80022B00D10D7194F8BC232C
:10195000012A09D084F8BC03206804F07DFD2846E4
:1019600084F8BC53BDE8F0810220FBE770B501F0BC
:101970000F050C460026C5EBC50100EB8101C1F83F
:101980000822C1E9843681F8FD6181F8FC5101F536
:10199000FE710369012B00D10A612207027C0068F5
:1019A00003D005F077F8002070BD04F067FFFAE778
:1019B00070B50D464168044605F00F00884201D914
:1019C000012070BD29064FF000064FF0010207D537
:1019D000C0EBC00104EB810181F83D203C3107E000
:1019E000C5EBC50104EB810181F8FD6101F5FE71D4
:1019F0008A70087094F8BC03012807D084F8BC23CF
:101A0000206805F01BF8280702D007E0022070BD0F
:101A1000217C04F57172206804F0B8FF002084F87E
:101A2000BC6370BD2DE9F04101F00F050C460026A6
:101A3000C5EBC501012700EB81018A64C1E91436B9
:101A400081F83D7001F83C5F0369012B00D10A6108
:101A50002207027C006804D005F01CF80020BDE8D5
:101A6000F08104F00BFFF9E72DE9FC5F0446006804
:101A7000002681464D4605F026F900287ED12068D3
:101A800005F04DF9002879D0206805F048F9800765
:101A900004D52068416901F002014161206805F028
:101AA0003EF901034FF0010B04F57170009077D5FA
:101AB000206805F013F9DFF838A407466EE0F80750
:101AC0006AD02068F1B205F022F98046C00707D03D
:101AD00005EB4611C1F808BB3146204602F0ECFB8D
:101AE0005FEA087034D520682169012900EB4611AE
:101AF000006C0190D1F8080B10D0FE4B019A9A426D
:101B000015D1000403D54FF40040C1F8080B20465E
:101B100000F0FAFA2069012810D014E0019A524529
:101B200005D9000403D54FF40040C1F8080B204646
:101B300000F0EAFA01985045ECD804E02068012151
:101B4000009A04F023FF05EB46110820C1F8080BAA
:101B50005FEAC86004D505EB46111020C1F8080BF8
:101B60005FEA88600FD52069012804D1206801212F
:101B7000009A04F00BFF05EB461101E0C7E10FE00E
:101B80002020C1F8080B5FEA884005D505EB461117
:101B90004FF40050C1F8080B7F08761C002F8ED13F
:101BA000206805F0BCF840034FF0000A60D52068BB
:101BB00005F08DF80026074658E0F80754D0206855
:101BC000F1B205F092F88046C00726D0D5F8342847
:101BD00006F00F0C05EB46130BFA0CF08243C5F828
:101BE0003428C3F808B92069012807D1C6EBC6001C
:101BF00004EB8000D0E91121114481642046F1B248
:101C0000FFF710FE2069012807D136B9206D20B9F1
:101C100020680121009A04F0B9FE5FEA087004D53B
:101C200005EB46110820C1F808095FEAC86004D531
:101C300005EB46111020C1F808095FEA486004D599
:101C400005EB46114020C1F808095FEA887004D509
:101C500005EB46110220C1F808095FEA086003D5C8
:101C60003146204602F096FB7F08761C002FA4D157
:101C7000206805F054F8002811DAD5F8040820F09F
:101C80000100C5F8040894F8F40301283BD020466D
:101C900000F01EFA2068416901F0004141612068AE
:101CA00005F03DF800050BD5D5F80808C00702D0AF
:101CB000204600F045FA2068416901F40061416165
:101CC000206805F02CF800010AD52068416901F070
:101CD0000061416194F8F403E0B1204600F030FA6D
:101CE000206805F01CF8C0046AD5D5F8040820F077
:101CF0000100C5F804082068102104F0C5FF002188
:101D00004FF67F3227E00021204684F8F4A3FFF746
:101D10005DFDBFE784F8F4B32068406D0121C0F396
:101D20008300C4F8F8032046FFF750FDD8E700BF52
:101D300005EB4110C0F80829D0F8003923F400134E
:101D4000C0F80039C0F8082BD0F8003B23F400138A
:101D5000C0F8003B491C60688842E9D8D5F81C08E7
:101D600040F00110C5F81C08206B60B1D5F884085C
:101D700040F00B00C5F88408D5F8440840F00B008B
:101D8000C5F844080CE0D5F8140842F22B010843CA
:101D9000C5F81408D5F8100840F00B00C5F8100875
:101DA000D5F8000820F4FE60C5F80008217C206802
:101DB000009A04F0EBFD2068416901F48051416113
:101DC000206804F0ACFF800417D5206804F084FB81
:101DD000206804F06BFF58B30320E06000F0BEFC05
:101DE000227B0146206804F0F7FF204600F05AF9F4
:101DF0002068416901F400514161206804F08FFFBF
:101E0000C00639D52168886920F010008861D9F8AA
:101E1000207007F00F01C7F34340C1EBC101022856
:101E200004EB810505F5FE7505D0062815D01EE0EA
:101E3000C4F80CA0D2E747F6F0710F4217D0C7F3F1
:101E40000A12E9681746484604F06DFFA969E86878
:101E50003944A9613844E86009E0009908224846FD
:101E600004F061FFA969C7F30A100844A86120685B
:101E7000816941F010018161206804F050FF000782
:101E800007D5204600F028F92068416901F00801D3
:101E90004161206804F043FFC00208D52046F1B23A
:101EA00000F037F82068416901F480114161206831
:101EB00004F035FF800208D52046F1B200F02DF87D
:101EC0002068416901F400114161206804F027FF96
:101ED000400007D52046FFF7A1FC2068416901F0CA
:101EE00080414161206804F01AFF40070FD503E0EC
:101EF0000A30544F0A31544F20684568680702D5AC
:101F00002046FFF7A2FC2068416829434160BDE8F4
:101F1000FC9FD0F8000404F027B8D0F8000404F0C7
:101F200025B800002DE9F04104008AB004D094F8EF
:101F3000BD03002520B108E001200AB0BDE8F08112
:101F4000204684F8BC5300F063F8032084F8BD03F6
:101F5000206804F08DFC04F11001684628228846B0
:101F6000FEF78BF994E80F0004F0D0FA0227E0BBEB
:101F70002068002104F008FF0020012611E000BFC6
:101F8000C0EBC001421C04EB810181F83D6081F887
:101F90003F504D648D640D6581F83C00A1F842000E
:101FA000D0B261688142EBD8002011E0C0EBC001E3
:101FB000421C04EB810181F8FD5181F8FF51C1F809
:101FC0000452C1F80852C1F8105281F8FC01D0B295
:101FD00061688142EAD8282241466846FEF74DF9F9
:101FE00094E80F0004F07AFB10B184F8BD73A3E706
:101FF000606A84F8385084F8BD63012802D1204615
:10200000FFF7D0FB206804F05DFB002095E700009F
:1020100030B587B0044614216846FEF747F91E49DB
:102020002068884236D11D4C206840F002002060B4
:1020300020680221002200F00200059003230C25F5
:102040004FF440408DE82F0015486946FFF72AFA03
:1020500012481430016841F000410160006800F04E
:1020600000400590206840F000502060206800F09B
:1020700000500590206840F08040206020680022D9
:10208000052100F0804005904D20FFF759FB4D20C1
:10209000FFF748FB07B030BD000004403038024075
:1020A0000004024070B50446C068012570B10228E2
:1020B00001D0FFF79CF8D4F80004294603F0A7FFED
:1020C000D4F80004BDE8704003F067BF0025F2E7D4
:1020D000D0F8000403F089BFD0F8000403F08BBFF0
:1020E00010B5044690F8BC0301280BD0012084F8F9
:1020F000381084F8BC03206804F05DFE002084F8EA
:10210000BC0310BD022010BDD0F8002400F5717191
:10211000104603F088BF10B5044690F8BC030128B0
:102120000CD0012084F8BC03206804F0BFFA2068BA
:1021300004F094FD002084F8BC0310BD022010BD03
:1021400010B50446D0F8000403F0AAFF2068D0F8C8
:10215000001E41F00101C0F8001E206A002804D0D2
:102160000248016841F00601016010BD10ED00E079
:102170001848F8B5016841F0805101600068164CBC
:1021800000F080500090206840F480302060FFF71D
:102190006DFA4FF47A76054605E000BFFFF766FA60
:1021A000401BB0420FD86068C003F7D5206840F4E8
:1021B00000302060FFF75AFA054606E0FFF756FAAE
:1021C000401BB04201D90320F8BD60688003F5D5FB
:1021D0000020F8BD40380240007000402DE9F84F63
:1021E00004460078DFF81C944FF000073E46C00715
:1021F0000ED0D9F8001021F40001C9F80010D9F868
:102200000010E26A1143C9F80010E06A00B9012722
:10221000FC4D2068843500030ED5616B286820F4DE
:10222000401008432860606BB0F5801F01D010B1EA
:1022300002E0012700E0012620684FF4800BC00275
:102240000CD5A16B286820F4400008432860A06BDF
:10225000584501D1012701E000B901262078800608
:1022600067D5E8483830016841F080510160006866
:10227000DFF894A300F080500090DAF8001041F4E9
:102280008071CAF80010FFF7F1F9804606E000BF40
:10229000FFF7ECF9A0EB080064287DD8DAF800001D
:1022A000C005F5D5DFF85C8308F16808D8F80000B0
:1022B00010F440702AD0218D01F44071814225D064
:1022C000D8F80010D8F8002021F4407142F4803290
:1022D000C8F80020D8F8002022F48032C8F8002086
:1022E000C8F80010D8F80000C0070FD0FFF7BEF9FB
:1022F000824607E0FFF7BAF9A0EB0A0141F2883005
:102300008142CAD8D8F800008007F3D5A06AC0F38C
:10231000012103297ED0D9F8001021F4F811C9F861
:102320000010228DD8F80010C2F30B021143C8F838
:1023300000102078C00607D5286820F0807028603B
:102340002868216B084328602188AE4888304904FA
:1023500005D5E26D016821F4403111430160218807
:10236000090405D5226E016821F440211143016062
:102370002168C90305D5626E016821F4401111433B
:1023800001602178490605D5E26B016821F003015F
:1023900011430160217800E00BE1090605D5226CAC
:1023A000016821F00C01114301602188C90505D5A0
:1023B000626C016821F030011143016021888905B8
:1023C00005D5A26C016821F0C0011143016021888C
:1023D000490505D5E26C016821F4407111430160A3
:1023E0002188090505D5226D016821F4406111435A
:1023F00001602188C90405D5626D016821F440514E
:10240000114301602188890407D5A26D016821F478
:10241000404100E034E01143016021684FF0006A60
:10242000890209D5626F016821F0006111430160E2
:10243000616F514500D101262168490305D5E26E3F
:10244000016821F04071114301602168090205D53E
:10245000A26F016821F08051114301602168490198
:1024600005D5E26F016821F0005111430160DFF8EA
:102470009C91012F0ED02068B0F1007F0AD06EE051
:10248000634AD9F80030104023F4F8120243C9F827
:10249000002046E7D9F800004F4620F08060C9F8D8
:1024A0000000FFF7E3F8804606E000BFFFF7DEF824
:1024B000A0EB080064287CD838680001F6D42178A5
:1024C00050487C30C9070DD0E16A59B9227A616859
:1024D000D0F800C08B01CCF3036143EA016141EA0B
:1024E0000271016021680A0303D5626BB2F5801F97
:1024F00004D0C90214D5A16B594511D1237B626860
:1025000001689201C1F3027142EA036242EA017179
:1025100001602968E26921F01F01521E1143296000
:102520002168890108D56168227B237A890141EA03
:10253000026141EA037101603968B84641F0806187
:102540003960FFF793F8074605E000BFFFF78EF804
:10255000C01B642863D8D8F800000001F6D54EB33C
:10256000D9F800004E4620F08050C9F80000FFF76F
:102570007DF8074605E000BFFFF778F8C01B642828
:102580004DD83068C0438000F6D51E4821688030A1
:102590000A0301D5626B1AB1C90219D5A16BB9B989
:1025A00023690168227D9B01C1F3014143EA014196
:1025B00001E034E03AE041EA0261016029686FF02D
:1025C000FF03226A21F4F85103EB02221143296030
:1025D000216889020DD5616F51450AD1228B21698D
:1025E0000368890141EA0242C3F3036142EA0161DF
:1025F0000160306840F080503060FFF737F80446E3
:1026000010E000000838024000700040003802402E
:10261000FFFCFF0FFFF72AF8001B642802D90320F4
:10262000BDE8F88F3068C0438000F3D40020F7E79E
:102630002DE9F04705000F4663D0444E306800F0A6
:102640000F00B84209D2306820F00F0038433060E4
:10265000306800F00F00B84253D128683C4C810725
:1026600012D5400703D5206840F4E0502060287858
:10267000000703D5206840F460402060A968206806
:1026800020F0F000084320602878C0072AD03049A5
:1026900068680839012810D00968022810D0890715
:1026A00000292EDA216821F0030101432160FEF7A1
:1026B000DDFF804641F288390DE009688903EFE7C4
:1026C0008901EDE7FEF7D2FFA0EB0801494502D9E9
:1026D0000320BDE8F0876868216801F00C01B1EBC8
:1026E000800FEFD1306800F00F00B8420BD930688E
:1026F00020F00F0038433060306800F00F00B8421F
:1027000001D00120E5E72878400705D5E968206871
:1027100020F4E050084320602878000706D5286997
:10272000216821F4604141EAC000206000F03CF8DB
:102730002168084AC1F30311515CC840064908608A
:102740000020FEF7B7FF0020C3E70000003C024076
:10275000083802408C7100087400002001480068AD
:1027600070470000740000200449054809680068AB
:10277000044AC1F38221515CC840704708380240C6
:10278000740000209C71000804490548096800682D
:10279000044AC1F34231515CC840704708380240D6
:1027A000740000209C710008154910B5154809688F
:1027B00011F00C0213D01449042A0FD0082A0ED1AC
:1027C0000F4C241F2268236802F03F025B0207D5EA
:1027D0002068C0F38810A0FB010106E0084610BD88
:1027E0002168C1F38811A1FB00010023FDF714FD4E
:1027F0002168C1F30141491C4900B0FBF1F010BD53
:10280000083802400024F40000366E012DE9F84F2C
:1028100005004FF000076ED02878DFF81C93A9F16F
:10282000040AC007AAF104044CD0D9F800104846A5
:10283000C1F38101012908D00068C0F3810002289A
:102840000AD1DAF80000400206D52068800339D5A5
:1028500068680028DFD035E06868B0F5803F0BD0AD
:1028600010B1B0F5A02F11D0206820F48030206086
:10287000206820F4802002E0206840F4803020604E
:10288000686890B1FEF7F2FE06460AE0206840F460
:1028900080202060F0E700BFFEF7E8FE801B642880
:1028A00072D820688003F7D50CE0FEF7DFFE0646FD
:1028B00005E000BFFEF7DAFE801B6428F0D8206830
:1028C0008003F7D42878800742D5D9F8001048460D
:1028D00011F00C0F08D00068C0F3810002280BD162
:1028E000DAF80000400207D42068800718D5E868AD
:1028F000012800D114E01CE1E8680028206817D006
:1029000040F001002060FEF7B1FE064605E000BF82
:10291000FEF7ACFE801B0228C2D820688007F7D5DE
:102920002869216821F0F80141EAC00020600FE029
:1029300020F001002060FEF799FE064605E000BF8A
:10294000FEF794FE801B02281ED820688007F7D46B
:102950002878000729D5784869696C3000298046B5
:10296000016812D041F001010160FEF77FFE0646CA
:1029700005E000BFFEF77AFE801B022804D8D8F8D5
:1029800000008007F6D510E089E021F00101016028
:10299000FEF76CFE064604E0FEF768FE801B022888
:1029A0007DD8D8F800008007F6D4287840076BD58A
:1029B000DFF8848108F13808D8F80000C0000BD493
:1029C000D8F8001041F08051C8F80010D8F8000085
:1029D000012700F08050009058480168C90512D4C2
:1029E0000168834641F480710160FEF73FFE0646B0
:1029F00005E000BFFEF73AFE801B64284FD8DBF8E5
:102A00000000C005F6D54C4EA868683601280AD0EB
:102A100008B1052811D0306820F00100306030681E
:102A200020F0040002E0306840F001003060A86847
:102A3000A0B1FEF71BFE83460CE0306840F00400B6
:102A40003060F0E7FEF712FEA0EB0B0141F2883098
:102A5000814266D830688007F4D50EE0FEF706FEA6
:102A6000834607E0FEF702FEA0EB0B0141F288303F
:102A7000814256D830688007F4D42FB1D8F80010BE
:102A800021F08051C8F80010A869C8B3D9F8001027
:102A9000C1F3810102294CD00228206800E040E007
:102AA00020F08070206003D0FEF7E0FD05463BE09B
:102AB000FEF7DCFD064604E0FEF7D8FD801B022889
:102AC0002FD820688001F7D4D5E90962D5E907013C
:102AD0001B4B570895F82C20084303EB074343EAA8
:102AE0008611084340EA026040F00050CAF8000036
:102AF000206840F080702060FEF7B8FD054606E0D3
:102B000015E000BFFEF7B2FD401B022809D820687F
:102B10008001F7D50BE000BFFEF7A8FD401B02289F
:102B200002D90320BDE8F88F20688001F4D400208A
:102B3000F8E70120F6E70000083802400070004086
:102B40000000FFFF70B504000D4603D094F82C0080
:102B500010B107E0012070BD002084F82D00204650
:102B600000F011F8022084F82C002068211DFEF7E7
:102B70003FFBD4E900022946FEF76AFB012084F8F6
:102B80002C00002070BDFEF72DBCFEB504460D469E
:102B9000416C032084F83400032920D0B5F5805F10
:102BA0001DD0B5F5006F05D045B1A06B40F00060B9
:102BB000A06309E0204602F024F902E0204602F07A
:102BC000F9F8A16B0143A163A06B012658B12168FC
:102BD00040F2FF50886384F834600120FEBDA06B92
:102BE00040F08050E4E7211DD4E905070EC9CDE986
:102BF00000500297206801F083FF84F834600020C1
:102C0000FEBDF0B5426E120E93090B70C2F3830441
:102C100002F003024C708A70426E120CCA70B0F857
:102C20006420120A0A7190F864204A714FF6FF730B
:102C3000826E120E03EA0212CA80CB88826EC2F341
:102C4000074214092343CB8002F00F020A72B0F846
:102C500068200025C2F30722D3094B72C2F3801407
:102C6000C2F34016C2F300178C72CE720F734D730D
:102C70000123446C4FF400766CB1012C46D00268FD
:102C800040F2FF519163816B41F08051816380F884
:102C900034300120F0BD9207120D0A610C6990F8E2
:102CA000682044EA82020A610C69C26E120E97091A
:102CB000C2F3C20C3C430C6102F0070281F814C05D
:102CC0004A75C26EC2F30742940757098F75640FA5
:102CD000C2F38202CA750C760A7EB0F86C40C4F367
:102CE000072442EAD4120A760A69521C42650F7E12
:102CF000BF1CBA4042650F7A03FA07F787654FEAAF
:102D0000572C02FB0CF2C0E917261CE090F8682053
:102D10009206920A0A610C69C26E120E44EA0222FD
:102D20000A610C69C26EC2F3074214430C610A695E
:102D3000B0F86C40521C4FEA82224265C4F307246B
:102D4000C0E916620666C4F380124FEA84644A76CC
:102D50004FEA54648C7690F86C208C7E4FEAD21641
:102D600002F07F0244EA06048C76CA7650F8702F8F
:102D70004FEA12624FEAD2140C77C2F34116C2F343
:102D800082074FEA82724E778F774FEA1272CA77C4
:102D9000CC7F0268C2F3074244EA9214CC77C2F3B4
:102DA000401602F0010281F8206081F8215081F87C
:102DB00022200288C2F307224FEAD21481F823406E
:102DC000C2F38015C2F34016C2F30017C2F3810CA0
:102DD00002F0030281F8245081F8256081F8267002
:102DE00081F827C081F8282000784FEA500081F848
:102DF000290081F82A304FF00000F0BD70B50400C2
:102E000004D094F83400002510B105E0012070BD15
:102E10002046257700F03CF8032084F83400204653
:102E200000F007F80120A563256384F83400002032
:102E300070BD3EB504467620002100910B460A463F
:102E4000CDE90110206801F05BFE2068416821F4A3
:102E500080714160206801F064FE2068416841F49F
:102E6000807141600220FEF7ABFA204601F04FFF6F
:102E70004FF0010520B9204601F0D6FE002805D00C
:102E800084F83450A16B0143A16301203EBD0000D2
:102E9000F0B587B0044614216846FDF707FA1E49CD
:102EA0002068884235D11D48016841F40061016005
:102EB000006800F40060059018481438016841F07B
:102EC00004010160016801F004010591016841F00D
:102ED00008010160006802240025694600F008002E
:102EE000059003260C274FF4F8508DE8F1000C48AC
:102EF000FEF7D8FA042069468DE8F1000948FEF78C
:102F0000D1FA002209213120FEF71AFC3120FEF708
:102F100009FC07B0F0BD0000002C0140443802401D
:102F200000080240000C02402DE9F047040005D0E3
:102F300094F85D000025A56218B107E00120BDE806
:102F4000F087204684F85C5000F050F8022284F8A4
:102F50005D204FF4E0632068016821F040010160CA
:102F6000E068984201D9002101E04FF48051B0F5AA
:102F7000706F02D0984200D0A5624FF00109266B15
:102F80002EB9984201D9226301E0C4F83090D4E907
:102F90000468D4E90102278B46EA0806A36A1043B5
:102FA00007F4007830432668D4E907C240EA0800F5
:102FB00040EA0C00CC460427104318433060D4F894
:102FC0001880666B606AE26807EA18472368304336
:102FD0003A431043084358602068C16921F40061F6
:102FE000C161256684F85DC00020A8E72DE9F041A5
:102FF00086B0064614216846FDF758F95749002562
:1030000033680224564A143954480326052793424C
:1030100015D1026842F480520260006800F48050CA
:103020000590086840F0010008600868694600F0F3
:1030300001000590E0208DE8F1004A482EE0474A63
:10304000DFF824C1DFF82481121F63452BD11068FB
:1030500040F480401060106800F4804005900868DB
:1030600040F004000860086800F00400059008685B
:1030700040F002000860086801AB0094694600F067
:103080000200CDE9047083E870003948FEF70AFABF
:103090004FF4806069468DE8F1004046FEF702FA81
:1030A00006B0BDE8F081DFF8CCC0634523D11068DD
:1030B00040F400401060106800F40040059008687B
:1030C00040F00200086008680721474600F002004F
:1030D00005900420CDE903618DE831006946404642
:1030E000FEF7E0F908200621CDE903618DE8310003
:1030F00069463846D2E7204A934215D1026842F425
:1031000000520260006800F400500590086840F02A
:10311000100008600868694600F01000059044201F
:103120008DE8F1001548B9E7154A9342B8D1026815
:1031300042F480120260006800F480100590086874
:1031400040F0200008600868694600F02000059003
:103150004FF420708DE8F1000A489FE744380240A0
:1031600000300140000002400038004000040240EE
:1031700000080240003C00400034014000100240C2
:103180000050014000140240401EB0F1807F10B595
:1031900001D3012010BD4FF0E02460610F216017C2
:1031A00003F0A1FE0020A0610721216110BD0000F5
:1031B0002DE9F04390F83C20012A42D0012280F80A
:1031C0003C2051F80C4BDFF880804FF0000991E86B
:1031D000680051E9022723F44073B1F80CC03B4367
:1031E000CF6923F480631343026823F4006323430D
:1031F00023F4805343EA050323F4005343EA060310
:1032000023F4804343EA07030C3923F47023424537
:1032100043EA0C4302D00D4CA2420CD18D8C23F416
:103220007006D1E9073446EA055121F0807119434F
:1032300021F000732343536480F83C900020BDE8E4
:10324000F0830220FBE70000000001400004014081
:1032500070B590F83C20012A24D0134C012580F849
:103260003C50022280F83D2002685368A2429668D2
:1032700002D00E4CA24203D14C6823F470032343C6
:103280000C6823F0700389681C435460002326F007
:10329000800602683143916080F83D5080F83C30F0
:1032A000184670BD022070BD0000014000040140BE
:1032B00010B5040003D094F83D0010B107E00120E0
:1032C00010BD002084F83C00204600F00DF80220DC
:1032D00084F83D002068211D01F04EFE012084F895
:1032E0003D00002010BD000010B586B0044614213A
:1032F0006846FCF7DBFF1E492068884222D11D4842
:10330000016841F001010160006800F001000590D2
:1033100018481438016841F0010101600068012378
:10332000022200F00100059000204FF4805100912E
:103330006946CDE90120CDE903030F48FEF7B2F855
:1033400006B010BD0D498842FAD10A48001F016835
:1033500041F48071016000680022062100F4807051
:1033600005902D20FEF7ECF92D20FEF7DBF9E7E7BD
:1033700000000140443802400000024000200040AC
:1033800070B5044690F83C00012817D0324B012557
:1033900084F83C50022084F83D0022689068184070
:1033A00020F47F4090600868502830D00DDC202841
:1033B0004DD005DC98B310283BD148E0022070BD09
:1033C000302844D0402834D139E0602828D07028F3
:1033D00006D0B0F5805F2CD0B0F5005F29D10AE0AF
:1033E0004A682068D1E9021301F02CFE2068816848
:1033F00041F0770109E04A682068D1E9021301F041
:1034000021FE2068816841F48041816011E0CA6832
:103410004968206801F0A4FF2068502107E016E009
:10342000CA684968206801F0ACFF2068602101F09B
:1034300012FE002084F83D5084F83C0070BDCA683C
:103440004968206801F08CFF20684021EFE722687E
:1034500001461046EBE7000088FFFEFF10B586B07E
:10346000044614216846FCF721FF0E492068884273
:1034700016D10D48016841F0010101600068012387
:10348000022200F00100059000204FF480710091AD
:103490006946CDE90120CDE903030448FEF702F8AF
:1034A00006B010BD0000014030380240000002406C
:1034B00070B5044690F83C0001280ED0012584F830
:1034C0003C50022084F83D000C2A19D007DC5AB188
:1034D000042A0DD0082A1ED10EE0022070BD102A49
:1034E00012D0142A17D113E0206801F0BDFD12E0BC
:1034F000206801F0F3FD0EE0206801F02BFE0AE0E9
:10350000206801F063FE06E0206801F08BFE02E017
:10351000206801F0B3FE002084F83D5084F83C00A0
:1035200070BD10B5040003D094F83D0010B107E061
:10353000012010BD002084F83C00204600F00CF86B
:10354000022084F83D002068211D01F015FD0120B6
:1035500084F83D00002010BD704770B5044690F817
:103560003C00012812D0012584F83C50022084F848
:103570003D00204601F0AEFE00284FF0000007D0CD
:1035800084F83D5084F83C00012070BD022070BDDD
:103590002168CA6822F04002CA602168CA6822F421
:1035A0008042CA6084F83D5084F83C00002070BD21
:1035B00010B5040002D0606F10B107E0012010BD0B
:1035C000002084F87000204600F026F82420606770
:1035D0002068016821F001010160204601F068FFC8
:1035E0000128ECD0606A10B1204601F0DEFE2068B0
:1035F000416821F4904141602068816821F02A01EE
:1036000081602068016841F0010101602046BDE849
:10361000104001F02EBF00002DE9F04F87B00546A5
:1036200014216846FCF742FEA4490024A44E03225C
:103630002F681039A1480223DFF888B2B7424FF053
:10364000080C1ED1056845F400250560006800F4EB
:1036500000200590086840F001000860086869468D
:103660008DE81C0000F001000392CDE904C058462B
:10367000FDF718FF00220B213420FEF761F83420FB
:1036800020E0914EB74222D1056845F00045056023
:10369000006800F000400590086840F010000860E5
:1036A000086869468DE81C0000F010000392CDE91F
:1036B00004C08648FDF7F6FE00220F215320FEF7D6
:1036C0003FF85320FEF72EF807B0BDE8F08F804E8C
:1036D0004FF0006ADFF8E4E14FF00709B7420EF15E
:1036E000040E4FF4806639D1DEF8007047F0100701
:1036F000CEF80070DEF8000000F0100005900868B9
:1037000040F00100086008684FF4C061039200F0C7
:1037100001008DE81A00CDE9049069465846FDF78E
:10372000C1FE6C4F6C49384639604FF44031C7E9EF
:1037300001A4C7E903467C61BC61C7E907417C621B
:10374000FDF7CCFD08B1FDF752FDEF6600220C211C
:10375000BD632520FDF7F4FF2520B3E7DFF87C816A
:10376000474535D1076847F400370760006800F423
:1037700000300590086840F00100086008680C21DE
:10378000039200F001008DE81A00CDE9049069462B
:103790005846FDF787FE524F5249384639604FF47C
:1037A0004031C7E901A4C7E903467C61BC61C7E9B0
:1037B00007417C62FDF792FD08B1FDF718FDEF6649
:1037C00000220D21BD632620FDF7BAFF262079E7F0
:1037D000DFF81481474535D1076847F48027076033
:1037E000006800F480200590086840F00800086038
:1037F00008684FF44071039200F008008DE81A0049
:10380000CDE9049039486946FDF74CFE384F3549FB
:10381000384660393960C7E901A4C7E903467C61CD
:10382000BC61FC613C627C62FDF758FD08B1FDF7AC
:10383000DEFCEF6600220E21BD632720FDF780FF2E
:1038400027203FE72B4887427FF43EAFDEF8007029
:1038500047F02007CEF80070DEF8000000F02000EE
:103860000590086840F0040008600868694600F0A8
:1038700004000590C0208DE819001F48CDE9032CF5
:10388000FDF710FE14481D4F1838810587E8130016
:10389000C7E903467C613846BC61FC613C627C62DE
:1038A000FDF71CFD08B1FDF7A2FCEF6600220A211E
:1038B000BD634720FDF744FF472003E7403802403F
:1038C000004C004000000240007C0040001002401C
:1038D00000100140F8CA002040640240004400404B
:1038E00058CB00208860024000480040000C024095
:1038F000B8CB0020001401400008024018CC002082
:10390000FEE70000134910B54FF4005401F5804064
:10391000224603F009FB10492246104803F004FB3D
:103920000E4822460E49343003F0FEFA0B48224678
:103930000C49683003F0F8FA084822460A499C30DE
:1039400003F0F2FA05482246BDE810400749D0309E
:1039500003F0EABAC0870020C0070020F4C70020A7
:10396000C0270020C0470020C0670020C0A700205B
:10397000F8B50426D24C2523D249F702B7FBF6F05E
:10398000A4F87A603A46A4F87C00CF48206784F80F
:103990006C30CE4BC06E0160A3F50041608840F0F2
:1039A0000100608020460097FDF782FA206F0068D2
:1039B000C1690906FCD5016821F001010160A07808
:1039C000800715D5206F806E0068016821F0010125
:1039D0000160216F886E00680268D207FCD1096817
:1039E00024318160206F0068816841F0800181602E
:1039F000A078C00715D0206FC06E0068016821F064
:103A000001010160216FC86E00680268D207FCD115
:103A1000096824318160206F0068816841F04001AD
:103A20008160206F0068016821F001010160206F52
:103A3000C16EE06A0968C8603A46206FA04D8035C3
:103A4000C16EE068B7FBF6F40B68262158609E480B
:103A5000A5F87A608030A5F87C40286785F86C105E
:103A6000C06E9B49994B0160A3F5C041688840F046
:103A70000100688028460092FDF71AFA286F006856
:103A8000C1690906FCD5016821F001010160A8782F
:103A9000800715D5286F806E0068016821F001014C
:103AA0000160296F886E00680268D207FCD109683E
:103AB00024318160286F0068816841F08001816055
:103AC000A878C00715D0286FC06E0068016821F083
:103AD00001010160296FC86E00680268D207FCD13D
:103AE000096824318160286F0068816841F04001D5
:103AF0008160286F0068016821F001010160286F72
:103B0000C16EE86A0968C8603C46286F3A46B7FB50
:103B1000F6F7C16EE8686F4D0B68272158606E4854
:103B2000A5F87A60A5F87C70286785F86C10C06EDF
:103B30006749664B60390160A3F58041688840F0B1
:103B40000100688028460092FDF7B2F9286F0068EE
:103B5000C1690906FCD5016821F001010160A8785E
:103B6000800715D5286F806E0068016821F001017B
:103B70000160296F886E00680268D207FCD109686D
:103B800024318160286F0068816841F08001816084
:103B9000A878C00715D0286FC06E0068016821F0B2
:103BA00001010160296FC86E00680268D207FCD16C
:103BB000096824318160286F0068816841F0400104
:103BC0008160286F2246B2FBF6F3424C47213D4FFD
:103BD00000688034183FD0F800C02CF0010CC0F809
:103BE00000C0286FC06ED0F800C0E86ACCF80C00A6
:103BF000286FED68C06E006845603748A4F87A60A9
:103C00008030A4F87C30206784F86C10C06E2F4B95
:103C1000A3F500510760608840F0010060802046F5
:103C20000092FDF745F9206F0068C1690906FCD5CF
:103C3000016821F001010160A078800715D5206F8F
:103C4000806E0068016821F001010160216F886EBB
:103C500000680268D207FCD1096824318160206FB6
:103C60000068816841F080018160A078C00715D0AC
:103C7000206FC06E0068016821F001010160216FB2
:103C8000C86E00680268D207FCD1096824318160DF
:103C9000206F0068816841F040018160206F0068FA
:103CA000016821F001010160216FE06AC96E0968B5
:103CB000C860216FE068C96E09684860F8BD0000FF
:103CC000F8C80020406402408C050020C087002016
:103CD00088600240F8C900208C060020F0B500235F
:103CE0000A251C463026372711E000BFB5EB107FB0
:103CF00002D906EB107C01E007EB107C01F813C041
:103D000001EB430C00015B1C8CF80140DBB29342D9
:103D1000ECD3F0BD194808B5016841F48001016099
:103D2000016801F480010091016841F40011016013
:103D300000680022012100F4001000900C20FDF723
:103D4000FFFC0C20FDF7EEFC002202211020FDF705
:103D5000F7FC1020FDF7E6FC002203213920FDF7D7
:103D6000EFFC3920FDF7DEFC002204213A20FDF7AC
:103D7000E7FCBDE808403A20FDF7D4BC30380240EB
:103D8000F0B587B01C216846FCF790FA1048082669
:103D90000E4B00220127402503601021476080243C
:103DA000C0E9022684614B01C0E90425C0E907325D
:103DB0004262826200910191029103910491059106
:103DC00006916946FEF7BEFE07B0F0BD400100A0B7
:103DD0008C0700202DE9F04F87B014216846FCF7CE
:103DE00065FA5248016841F010010160016801F074
:103DF00010010591016841F004010160016801F0C2
:103E000004010591016841F020010160016801F0A1
:103E100020010591016841F080010160016801F015
:103E200080010591016841F001010160016801F024
:103E300001010591016841F002010160016801F092
:103E400002010591016841F040010160016801F043
:103E500040010591016841F00801016000684EF2DF
:103E60003006DFF8CC90002200F0080031460590C3
:103E70004846FDF7F5FBDFF8BCA000224021504684
:103E8000FDF7EEFBDFF8B0B0002210215846FDF739
:103E9000E7FB43F60127294800223946FDF7E0FBFE
:103EA000264801220221FDF7DBFB4FF4715824481C
:103EB00000224146FDF7D4FB002400960125694607
:103EC0004846CDE901540394FDF7ECFA40200090F8
:103ED000CDE90154694650460394FDF7E3FA1020FA
:103EE0000090CDE90154694658460394FDF7DAFA8B
:103EF00000976946CDE9015410480394FDF7D2FAC2
:103F000003210220CDE90005CDE902410B486946B5
:103F1000FDF7C8FACDF800806946CDE9015408489C
:103F20000394FDF7BFFA07B0BDE8F08F30380240C8
:103F30000008024000140240000002400004024059
:103F4000000C02400C48002130B40A4C4FF470625F
:103F5000C0E900416315C0E9021201610724C0E90C
:103F6000051301624162C0E90A140163416330BC78
:103F7000FEF7DABF003001401802002030B40C4DCB
:103F800000210C484FF470642B1505605A10C0E9ED
:103F90000113C0E903410723C0E905120162416230
:103FA000C0E90A130163416330BCFEF7BDBF0000E6
:103FB000003800407C02002030B40C4D00210C4839
:103FC0004FF470642B1505605A10C0E90113C0E965
:103FD00003410723C0E9051201624162C0E90A13E7
:103FE0000163416330BCFEF79FBF0000003C00400E
:103FF000E002002030B40C4D00210C484FF47064F6
:104000002B1505605A10C0E90113C0E903410723CD
:10401000C0E9051201624162C0E90A13016341630C
:1040200030BCFEF781BF0000003401404403002093
:1040300030B40C4D00210C484FF470642B15056012
:104040005A10C0E90113C0E903410723C0E9051272
:1040500001624162C0E90A130163416330BCFEF7AB
:1040600063BF000000500140A803002010B59EB0BF
:104070000024142112A81A941B941C941D94FCF77C
:1040800015F91C2117940BA818941994FCF70EF934
:104090002C216846FCF70AF925482449C0E9001498
:1040A0008460C460046144618461FFF701F94FF4E6
:1040B00080501A901E481AA9FFF762F91C48FFF7B2
:1040C00030FA12AA0620702182E81300184812A9BB
:1040D00015941694FFF741FA154817A917941894E8
:1040E0001994FFF7B5F80B9400220C940BA9104813
:1040F0000D940E940F9410941194FFF7D9F94FF486
:1041000000500094019401030294CDE9044003940B
:104110000694CDE907410648694609940A94FFF7D9
:1041200047F80348FFF79AF91EB010BD00000140A0
:104130000C0400200A48002130B4084C0C224FF433
:10414000E1330460C0E90131C160C0E9041281615A
:10415000C1610162416230BCFFF72ABA004C0040E5
:104160008C0400200A48002130B4084C0C224FF483
:10417000E1330460C0E90131C160C0E9041281612A
:10418000C1610162416230BCFFF712BA007C00409D
:104190000C0500200A48002130B4084C0C224FF4D2
:1041A000E1330460C0E90131C160C0E904128161FA
:1041B000C1610162416230BCFFF7FAB900100140F1
:1041C0008C0500200A48002130B4084C0C224FF422
:1041D000E1330460C0E90131C160C0E904128161CA
:1041E000C1610162416230BCFFF7E2B900440040A6
:1041F0000C0600200A48002130B4084C0C224FF471
:10420000E1330460C0E90131C160C0E90412816199
:10421000C1610162416230BCFFF7CAB90048004089
:104220008C0600200A48002130B4084C0C224FF4C0
:10423000E1330460C0E90131C160C0E90412816169
:10424000C1610162416230BCFFF7B2B900140140A4
:104250000C07002010490122104810B501F066FD3E
:1042600008B1FCF7C4FF0E490C4801F03FFF08B14C
:10427000FCF7BDFF0B49094801F05EFB08B1FCF7F4
:10428000B6FF064801F08AFF002803D0BDE81040C1
:10429000FCF7ADBF10BD00000000002078CC00206E
:1042A0005401002050000020FEE770470148FDF750
:1042B000DBBB000014CF00202DE9F0410E46016960
:1042C00004460068202301294FF40042016C00EBF2
:1042D0004615D5F8080B08D02C4FB9424FD1010430
:1042E00049D500BFC5F8082B4DE05FEA007CDFF838
:1042F000A0C004F5717711D5614503D9000401D53B
:10430000C5F8082B2046FDF7FFFE206801213A463C
:1043100002F03CFB0820C5F8080B34E05FEA806E31
:1043200002D5C5F8083B2EE010F0280F2BD16145CF
:1043300001D90004D6D4D5F8102BC6EBC60004EB87
:104340008000C2F31202D0F804128A1AC0F81422B4
:10435000D0F808221144C0F808122046F1B2FDF747
:104360006AFA86B9D4F8100268B9206801213A4681
:1043700002F00CFB07E0800601D5C5F8083B20469B
:10438000F1B2FDF758FA0020BDE8F0810A31544F30
:104390000A30544F2DE9F84F0E4605688146C1EBAF
:1043A000C60100EB8104D4E914203C34904202D9C8
:1043B0000120BDE8F88FA168101A814200D208469A
:1043C000C01C05EB461887081BE000BFA268A0EBE5
:1043D000010A524500D2924699F810100AF10300E2
:1043E00000911FFA8AF3E16887082846F2B202F0CA
:1043F00067FDE16801EB0A00E060A16901EB0A00DA
:10440000A061D8F8180980B2B84205D3D4E90501F3
:10441000814201D20028D9D1D4E90501884208D8C7
:10442000D5F83418012006F00F0290408143C5F8FA
:1044300034180020BDE7704710B5094C0122510324
:104440002046FDF70DF901222046D102FDF708F9BB
:1044500000222046A114BDE81040FDF701B900007C
:104460000004024070B50446C0690D4694287DD30F
:104470006369201DE26A591CD25C6161E36899425C
:1044800001D3C91A01618169491E8161662A6DD112
:104490006369201DE26A591CD25C6161E36899423C
:1044A00001D3C91A01618169491E8161552A5DD113
:1044B0006369201DE26A591CD25C6161E36899421C
:1044C00001D3C91A01618169491E81615D2A4DD1FB
:1044D0006369201DE26A591CD25C6161E3689942FC
:1044E00001D3C91A01618169491E8161D52A3DD173
:1044F0004FF4005145480122E940FDF7B1F8444826
:104500006621C368826AD154D0E90221491CC16086
:10451000914201D3891AC1605FF0000100EB810272
:10452000491C93695B1C93610229F7DB38485521CC
:10453000C368826AD154D0E90221491CC16091420A
:1045400001D3891AC160002100EB8102491C9369E3
:104550005B1C93610229F7DB2D485D21C368826AE9
:10456000D154D0E90221491CC16000E04DE09142E4
:1045700001D3891AC160002100EB8102491C9369B3
:104580005B1C93610229F7DB2148C268816A8D5464
:10459000D0E90221491CC160914201D3891AC1604E
:1045A0005FF0000100EB8102491C93695B1C936181
:1045B0000229F7DB0023E0690028FDD06569201D92
:1045C000E26A691C525D6161E568A94201D3491B39
:1045D00001618169491E81610D48C568816A4A553A
:1045E000C168491CC1608268914201D3891AC160C7
:1045F0005FF0000100EB8102491C95696D1C95611B
:104600000229F7DB5B1C902BD5DB70BD000C024050
:10461000C4C800200448016841F001010160C1687C
:1046200041F00101C160704700200040704730B583
:1046300085B00446372040220DF1080CCDE900106A
:1046400000236946150120468CE82C0000F070FA22
:10465000372141F28832204600F030F905B030BDF4
:1046600030B50B4A85B004462920114340220DF194
:10467000080CCDE9001000236946150120468CE89E
:104680002C0000F055FA204600F0CEF905B030BD00
:104690000000108030B585B0044610200DF1080CE4
:1046A0008501CDE9001040226946002320468CE8B0
:1046B0002C0000F03DFA102141F28832204600F033
:1046C000FDF805B030BD30B585B004460620402267
:1046D0000DF1080CCDE900100023694615012046B4
:1046E0008CE82C0000F024FA062141F288322046A2
:1046F00000F0E4F805B030BD30B585B005460024C3
:1047000069464FF48060009401940294CDE903401F
:10471000284600F00DFA0B4A4FF4FA5041F2883166
:104720001268B2FBF0F04843401E03D24FF0004045
:1047300005B030BD696B0906F6D540F2FF51204641
:10474000A963F5E77400002070B50821044685B020
:104750004FF4D5704026CA018DE843000025694614
:10476000CDE90352204600F0E3F90F4A4FF4FA5026
:1047700041F288311268B2FBF0F04843401E02D289
:104780004FF000450CE0616B11F0450FF6D0606B07
:10479000400701D5042502E0606B400600D5A66302
:1047A00005B0284670BD00007400002030B585B00B
:1047B000044640210DF1040C0720009200230D0156
:1047C0008CE82B006946204600F0B2F9072141F23F
:1047D0008832204600F072F805B030BD10B586B0C2
:1047E000044600210220C02243020493CDE90010B8
:1047F000CDE902216946204600F09AF9204600F0F2
:10480000EBF806B010BD30B585B0044609200DF1B7
:10481000080CC022CDE90010002369464FF48065E2
:1048200020468CE82C0000F083F9204600F0D4F8F4
:1048300005B030BD10B586B00446002133204022BB
:10484000CDE90221CDE90010130169462046049309
:1048500000F06EF9332141F28832204600F02EF844
:1048600006B010BD30B585B00C46002105460320CA
:104870004022CDE90221CDE9001013016946284606
:10488000049300F055F903212246284600F0ECF885
:1048900005B030BD70B50A6842624A688262C46A77
:1048A000D1E90225D1E9043624F0F7012A43334344
:1048B0001A431143C162002070BD000010B5444C82
:1048C0004FF4FA532468B4FBF3F353435B1E02D254
:1048D0004FF0004010BD426B12F0450FF6D0426B16
:1048E000520703D504218163084610BD426BD207ED
:1048F00002D00121816303E00269D2B28A4201D071
:10490000012010BD40F2FF518163002100F0F2F858
:104910003049084201D1002010BD002802DA4FF0D2
:10492000007010BD410001D5402010BD810001D5AF
:10493000802010BDC10002D54FF4807010BD010170
:1049400002D54FF4007010BD410102D54FF48060D4
:1049500010BDC10102D54FF4006010BD010202D5A7
:104960004FF4805010BD410202D54FF4005010BDED
:10497000810202D54FF4804010BDC10202D54FF430
:10498000004010BD410302D54FF4003010BD81033B
:1049900002D54FF4802010BDC10302D54FF4002092
:1049A00010BD010402D54FF4801010BD410402D5A2
:1049B0004FF4001010BD810402D54FF4800010BDEB
:1049C000000702D54FF4000010BD4FF4803010BD39
:1049D0007400002008E0FFFD124B4FF4FA5141F241
:1049E00088321B68B3FBF1F15143491E02D24FF0EC
:1049F00000407047426B12F0450FF6D0416B4907FB
:104A000003D50421816308467047416BC90703D071
:104A1000012181630846704740F2FF518163002005
:104A200070470000740000200E4B4FF4FA5141F221
:104A300088321B68B3FBF1F15143491E02D24FF09B
:104A400000407047426B12F0450FF6D0416B4907AA
:104A500003D5042181630846704740F2FF5181630A
:104A6000002070477400002030B51F4D4FF4FA53FA
:104A700041F288342D68B5FBF3F363435B1E02D229
:104A80004FF0004030BD446B14F0450FF6D0436B3F
:104A90005B0703D504218163084630BD436BDB0708
:104AA00002D00121816303E00369DBB28B4201D0B4
:104AB000012030BD40F2FF518163002100F01AF85F
:104AC00010F4604F04D0410406D54FF4005030BDBF
:104AD000000C1080002030BD000402D54FF480503F
:104AE00030BD4FF4803030BD74000020006800F00D
:104AF00003007047084408B514300090006808BDF2
:104B000070B511434268049EDDE90554334347F60E
:104B1000FF6619432943B24321430A434260002000
:104B200070BD0321016000207047D0F880007047FD
:104B300070B50A688260C468D1E90125D1E90336FD
:104B4000210B2A43334309031A431143C160002058
:104B500070BD2DE9F04F89B00E460446FCF786FD86
:104B60000027009701970821834620683D46FFF7FC
:104B700091FD002835D1B4F8501020680904FFF7E2
:104B800056FD00282DD14FF008084FF002094FF0D4
:104B9000010C421E3023CDE90228CDE90439CDE9CC
:104BA000067C206802A9FFF775FE2068FFF742FE29
:104BB000002816D1EA4640F22A472068416B394264
:104BC00012D1416B890204D5FFF7AFFF4AF82500E7
:104BD0006D1CFCF74BFDA0EB0B00401CEDD14FF022
:104BE000004009B0BDE8F08F416B090703D5C0F85C
:104BF00038800820F5E7416B890703D5C0F8389065
:104C00000220EEE7416B890603D520218163084627
:104C1000E7E740F2FF518163009800BA70600198A5
:104C200000BA30600020DCE710B590B004460120E7
:104C3000ADF838002068FFF759FF002864D0606C99
:104C4000032842D02068FFF7C9FD00285AD1206808
:104C50000021FFF74FFF606704212068FFF74AFF3C
:104C6000A06708212068FFF745FFE0670C21206856
:104C7000FFF740FF616CC4F88000032925D020684D
:104C80000EA9FFF7EFFD00283CD1606C03281CD073
:104C9000BDF83810216520680904FFF7B4FD00282D
:104CA00030D120680021FFF725FF606604212068CD
:104CB000FFF720FFA06608212068FFF71BFFE066D2
:104CC0000C212068FFF716FF206704212068FFF7FA
:104CD00011FF000DE06403A92046FDF792FFB4F830
:104CE0005000002302042068FFF760FD002809D16E
:104CF00004F1100007C88DE8070094E80F00FFF7E3
:104D0000FFFE002010B010BD4FF08060FAE72DE9E3
:104D1000F8430025044600950068FFF7EDFC0028E5
:104D20001BD12068FFF710FD4FF080784FF6FF761B
:104D3000E0B14FF08057A5640098B04200F1010047
:104D400000901BD020680021FFF771FC20B920687B
:104D50000021FFF785FC10B13846BDE8F8832068D4
:104D60000021FFF7C7FEC00FE6D020E00127A764AF
:104D70000098B04200F10100009001D14046ECE7FC
:104D800020680021FFF753FC0028E6D120684FF08F
:104D90008041FFF765FC0028DFD120680021FFF784
:104DA000A9FEC10FE4D0400001D5676400E065644E
:104DB0000020D2E71CB5044600200090002101909D
:104DC0002068FFF797FE800102D54FF400601CBDFC
:104DD00069462046FFF7BDFE0028F8D10198C003C0
:104DE0000CD5B4F8501020680904FFF720FC002807
:104DF000EDD120680021FFF766FC1CBD4FF08060FC
:104E00001CBD1CB5044600200090002101902068C4
:104E1000FFF770FE800102D54FF400601CBD6946AB
:104E20002046FFF796FE0028F8D1019840030CD5E4
:104E3000B4F8501020680904FFF7F9FB0028EDD101
:104E400020680221FFF73FFC1CBD4FF080601CBDB5
:104E50007047FCF711BC000070B5B2B0302120A83B
:104E6000FBF724FA14212CA8FBF720FA80216846CE
:104E7000FBF71CFA2048016841F08051016000688E
:104E800000F0805031901D48016841F440410160BC
:104E9000006802250C2300F4404031900120D82402
:104EA000820501040926CDE92652CDE9200128A971
:104EB00020A881E87800FDF7A9FCFDF759F94FF427
:104EC000A050309000240F21CDE92E40CDE92C15C3
:104ED00007212CA8FDF7ACFB0F94149408481194FB
:104EE0001E941094129416941D9400906846FDF739
:104EF00075F932B070BD00004038024000700040CB
:104F0000C02BA000104A30B51048146800210F4B88
:104F100044F470041460083305680D4A0D4C45F0E4
:104F20000105056019600368051D1340074A036009
:104F30000C322C600568E305034C25F480250560E0
:104F4000803C1160236030BD88ED00E000380240F5
:104F5000FFFFF6FE103000240548016921F0010131
:104F60000161044800224FF47051FCF779BB000046
:104F700000200040000C0240F0B5274B4FF0804E5F
:104F8000264D02689842264E264F274C09D0704580
:104F900007D0A84205D0B04203D0B84201D0A04209
:104FA00005D1D1F804C022F070024CEA0202984206
:104FB0001BD0704519D0A84217D0B04215D0B842C6
:104FC00013D0A04211D0194DA8420ED0184DA842BE
:104FD0000BD0184DA84208D0174DA84205D0174D48
:104FE000A84202D0164DA84203D1CD6822F44072E7
:104FF0002A434D6922F080022A43026098428A685F
:10500000C2620A68826201D0A04201D109690163CB
:1050100001214161F0BD000000000140000400409A
:1050200000080040000C0040000401400040014026
:10503000004401400048014000180040001C0040AE
:105040000020004042EA032283680A4323F47F41A0
:105050000A4382607047826822F070020A4342F07D
:105060000701816070470000F0B5026ADFF860C098
:10507000184F22F00102DFF860E00262066A42681F
:10508000836926F002060D68B8428C6803EA0C03B7
:1050900023F0030344EA060445EA030501D0704502
:1050A00005D1CB6824F00804234323F00404B8425C
:1050B00001D0704505D122F44076D1E90532334361
:1050C0001A4342608561496841630462F0BD000093
:1050D0008FFFFEFF0000014000040140F0B5026AAE
:1050E000194E1A4C22F01002DFF864E00262056AE1
:1050F0004368826925F02005D1F808C0A0420F68F6
:1051000002EA060222F4407245EA0C1542EA07223E
:1051100001D0704506D1CE6825F0800545EA061518
:1051200025F04005A04201D0704507D1D1E90546E0
:1051300023F4406343EA840343EA860343608261C5
:10514000496881630562F0BDFF8FFFFE00000140EA
:1051500000040140F0B5026A194F1A4E22F4807221
:10516000DFF864E00262056A4368C26925F40075ED
:10517000D1F808C0B0420C6802EA070222F003022C
:1051800045EA0C2544EA020401D0704506D1CF68F7
:1051900025F4006242EA072222F48065B04201D081
:1051A000704507D123F44052D1E9053642EA031293
:1051B00042EA06134360C4614968C1630562F0BDF9
:1051C0008FFFFEFF0000014000040140F0B5026ABD
:1051D000124B114F22F4805298420262046A4268D4
:1051E000C36924F400548E680D6803EA070323F4AE
:1051F000407344EA063443EA052302D0084DA8422E
:1052000004D14D6922F4804242EA85124260C361B2
:10521000496801640462F0BDFF8FFFFE0000014099
:1052200000040140F0B5026ADFF844C022F4803285
:105230000262056A4268446D25F400350E896045B6
:105240000C4F0B6804EA070445EA064543EA0403E9
:1052500002D0094CA04204D14C6922F4803242EAC7
:10526000042242604365496881650562F0BD000023
:10527000000001408FFFFEFF00040140F0B5026A0C
:10528000DFF844C022F480120262046A4268436D6F
:1052900024F400140E8960450C4F0D6803EA0703DF
:1052A00044EA065443EA052302D0094DA84204D13A
:1052B0004D6922F4802242EA8522426043654968B2
:1052C000C1650462F0BD000000000140FF8FFFFED9
:1052D0000004014070B5D1E9002304681F4EA568A1
:1052E00025F070052B4333401A43A2604A6812F040
:1052F0000F0F30D11211082A2DD2DFE802F02C2C2A
:105300002C2C0B2127048A680068D1E90313FFF7CE
:1053100099FE20E00A68052A10D00268136A146A10
:1053200024F00104146202680C69916921F0F00113
:1053300041EA04119161006803620CE0012070BD34
:105340000A690068896800F00BF804E00A690068DF
:10535000896800F016F8002070BD0000F8FFFEFF1D
:1053600010B5036A046A23F00A0324F001040462FE
:1053700084690B4324F0F00141EA02118161036268
:1053800010BD10B5036A23F0100303628369046A39
:1053900023F4704324F0A00443EA0232826144EA19
:1053A0000111016210BD7047704790F82410C907C1
:1053B00006D00168836A4A6822F400321A434A60C0
:1053C00090F82410890706D50168C36A4A6822F458
:1053D00080321A434A6090F82410490706D50168C4
:1053E000036B4A6822F480221A434A6090F8241022
:1053F000090706D50168436B4A6822F400421A4344
:105400004A6090F82410C90606D50168836B8A6843
:1054100022F480521A438A6090F82410890606D537
:105420000168C36B8A6822F400521A438A6090F8BC
:105430002410490611D50168036C4A6822F48012D1
:105440001A434A60016CB1F5801F06D10168436CB4
:105450004A6822F4C0021A434A6090F824100906F0
:1054600006D50168826C486820F40020104348602B
:10547000704738B500250446C567FCF7F7F80346C2
:105480002068006800070BD56FF07E400090002276
:1054900020464FF4001100F035F908B1032038BD63
:1054A0002020606784F87050A067002038BD00009D
:1054B0002DE9F04104468068DFF818C2864F236862
:1054C000D4E90452E16928431E6800250A43834950
:1054D000104306EA0C0606431E604FF400422068A3
:1054E000E668436823F44053334343602368A66966
:1054F000206AD3F808C030432CF4306606439E601F
:105500002068B8420AD1086810F0030052D0012880
:105510007BD002287AD003286ED186E0704B984267
:105520000AD1086810F00C0079D004287BD0082834
:1055300077D00C2860D178E06A4B98420AD108688D
:1055400010F030006BD010286DD0202869D03028A2
:1055500052D16AE0644B98420AD1086810F0C0004A
:105560005DD040285FD080285BD0C02844D15CE06B
:105570005E4B98420DD1086810F440704FD0B0F5E2
:10558000807F50D0B0F5007F4BD0B0F5407F33D155
:105590004BE0574B98420FD1086810F4406009D097
:1055A000B0F5806F3FD0B0F5006F3AD0B0F5406FE6
:1055B00022D13AE0012120E04E4B98420DD10868FB
:1055C00010F440502BD0B0F5805F2CD0B0F5005FC8
:1055D00027D0B0F5405F0FD127E0474B98420BD161
:1055E000086810F440401AD0B0F5804F1BD09042AC
:1055F00017D0B0F5404F18D01021E0694FF6EF7684
:10560000904238D109295DD202E00CE009E006E0C1
:10561000DFE801F00D1027582A5858582D000021B6
:10562000EBE70221E9E70421E7E70821E5E7FDF7D9
:105630009BF801E0FDF7A8F80146D4F80400490002
:1056400001EB5001B1FBF0F080B2A0F11001B142CA
:1056500038D84FF6F0732168C0F342021840104367
:1056600024E026496068EBE7FDF79EF8E4E7606810
:105670004FF48031E4E7092924D2DFE801F005087E
:1056800019231C2323231F00FDF76EF801E0FDF70B
:105690007BF80146D4F8040001EB5001B1FBF0F0B7
:1056A00080B2A0F11001B1420CD82168C8600AE0B4
:1056B00013496068F0E7FDF777F8EAE7606802EB06
:1056C0005001EBE701250020206660662846BDE812
:1056D000F0810000F369FFEF0010014090380240B4
:1056E0000044004000480040004C00400050004092
:1056F0000014014000780040007C00400048E801B0
:105700000024F4002DE9F041984617460E46044661
:10571000069D08E0681C06D0FBF7A8FFA0EB080078
:10572000A8420BD855B12068C06936EA000017D0EE
:105730000020B842EED00020BDE8F0812168202092
:1057400000220B6823F4D0730B6021688B6823F070
:1057500001038B606067A067032084F87020EBE78B
:105760000120E6E770477047704770472DE9F04128
:10577000D0F89832D0F89022DAB101EB81040025FC
:1057800000EB8404E6694EB1C1EBC10703EB87036C
:105790005B6CB6FBF3F703FB176323B1C2F814523B
:1057A0000020BDE8F0810023E5611A4600F081FC8D
:1057B000F6E70220F5E770B5D0F89042054600F014
:1057C0008BFBC4F80C02D5F8900248B1D5F89402CE
:1057D00004F50371C268D4F804029047002070BD3C
:1057E000022070BD70B500260446812100F0BCFA8D
:1057F000002520460121E56200F0B6FA822120460C
:10580000C4F8585100F0B0FAD4F89002256448B1B9
:10581000D4F8940204F5247440688047206801F0AD
:10582000ABFB2560304670BD10B5D0E9A44159B13D
:1058300094F80002FF2807D08B68214694F80122D3
:105840009847FF2084F80002002010BD0A21018043
:10585000004870477C0000204321018000487047C9
:10586000CC000020432101800048704788000020C0
:105870004321018000487047100100202DE9F041CC
:1058800001250446007C00264FF4007790B34023A6
:1058900020460222812100F06BFB4023E5620222B8
:1058A0002046012100F064FB082320460322C4F8AF
:1058B0005851822100F05CFB4FF40770256401F021
:1058C0002BFCC4F89002F8B10546D4F894020068A5
:1058D00080470020C5F81402C5F81802207CD5F8CE
:1058E000042298B140232046012100F04DFB3046B0
:1058F000BDE8F081FFE702223B468121204600F00F
:1059000037FB3B46E562CAE70126F0E73B46EAE79C
:1059100010B5D0F8901269B1027C002AD1F80422A7
:1059200005D04023012100F02FFB002010BD4FF4D3
:105930000073F7E7022010BD002902464FF0020075
:1059400003D04FF00000C2F894127047D0F89002D4
:10595000C0F8041200207047D0F89002C0F810225E
:10596000C0F80812002070472DE9FC4105460C469E
:1059700000200646D5F890728DF80000ADF80400BE
:10598000087810F0600122D020293CD1E288B2B121
:10599000000608D5D5F894023946836860789847A0
:1059A000E288394627E06078394687F80002A07916
:1059B00087F801022846E28800F06AF828E0D5F866
:1059C00094020022214683686078984720E060783E
:1059D00020B10A2809D00B2815D110E095F87402DF
:1059E000032810D1022201A905E095F874020328CA
:1059F00009D101226946284600F064F808E095F8CC
:105A00007402032804D02146284600F036F8022606
:105A10003046BDE8FC8110B5D0F89012A1B1D1F8A4
:105A200014220AB1012010BD0122C1F81422D1F8BC
:105A300010220263B1F81032D1F8082281219BB202
:105A400000F037FB002010BD022010BD10B5D0F8CB
:105A50008C2252689047002010BD13460A46002150
:105A600010B500F091FA002010BD13460A4600213F
:105A700010B500F01EFB002010BD10B580210446BB
:105A800000F0FCFA2046BDE81040002100F0F6BA14
:105A900010B5C0F848210323C0F86C321346C0F893
:105AA0004C210A46002100F06FFA002010BD0521AC
:105AB000002310B51A46C0F86C12194600F064FABB
:105AC000002010BD10B5C2610223C0F86C3213462D
:105AD00002620A46002100F0ECFA002010BD042109
